{
	"SimpleStorage/SimpleStorage-modify.sol": {
		"SimpleStorage": {
			"abi": [
				{
					"inputs": [
						{
							"internalType": "string",
							"name": "_name",
							"type": "string"
						},
						{
							"internalType": "uint256",
							"name": "_favoriteNumber",
							"type": "uint256"
						},
						{
							"internalType": "uint256",
							"name": "_age",
							"type": "uint256"
						},
						{
							"internalType": "string",
							"name": "_gender",
							"type": "string"
						}
					],
					"name": "addPerson",
					"outputs": [
						{
							"components": [
								{
									"internalType": "uint256",
									"name": "favoriteNumber",
									"type": "uint256"
								},
								{
									"internalType": "string",
									"name": "name",
									"type": "string"
								},
								{
									"internalType": "uint256",
									"name": "age",
									"type": "uint256"
								},
								{
									"internalType": "string",
									"name": "gender",
									"type": "string"
								}
							],
							"internalType": "struct SimpleStorage.People",
							"name": "",
							"type": "tuple"
						}
					],
					"stateMutability": "nonpayable",
					"type": "function"
				},
				{
					"inputs": [
						{
							"components": [
								{
									"internalType": "uint256",
									"name": "favoriteNumber",
									"type": "uint256"
								},
								{
									"internalType": "string",
									"name": "name",
									"type": "string"
								},
								{
									"internalType": "uint256",
									"name": "age",
									"type": "uint256"
								},
								{
									"internalType": "string",
									"name": "gender",
									"type": "string"
								}
							],
							"internalType": "struct SimpleStorage.People",
							"name": "_people",
							"type": "tuple"
						}
					],
					"name": "addPersonOjbect",
					"outputs": [
						{
							"components": [
								{
									"internalType": "uint256",
									"name": "favoriteNumber",
									"type": "uint256"
								},
								{
									"internalType": "string",
									"name": "name",
									"type": "string"
								},
								{
									"internalType": "uint256",
									"name": "age",
									"type": "uint256"
								},
								{
									"internalType": "string",
									"name": "gender",
									"type": "string"
								}
							],
							"internalType": "struct SimpleStorage.People",
							"name": "",
							"type": "tuple"
						}
					],
					"stateMutability": "nonpayable",
					"type": "function"
				},
				{
					"inputs": [
						{
							"internalType": "string",
							"name": "",
							"type": "string"
						}
					],
					"name": "nameToAge",
					"outputs": [
						{
							"internalType": "uint256",
							"name": "",
							"type": "uint256"
						}
					],
					"stateMutability": "view",
					"type": "function"
				},
				{
					"inputs": [
						{
							"internalType": "string",
							"name": "",
							"type": "string"
						}
					],
					"name": "nameToFavoriteNumber",
					"outputs": [
						{
							"internalType": "uint256",
							"name": "",
							"type": "uint256"
						}
					],
					"stateMutability": "view",
					"type": "function"
				},
				{
					"inputs": [
						{
							"internalType": "uint256",
							"name": "",
							"type": "uint256"
						}
					],
					"name": "people",
					"outputs": [
						{
							"internalType": "uint256",
							"name": "favoriteNumber",
							"type": "uint256"
						},
						{
							"internalType": "string",
							"name": "name",
							"type": "string"
						},
						{
							"internalType": "uint256",
							"name": "age",
							"type": "uint256"
						},
						{
							"internalType": "string",
							"name": "gender",
							"type": "string"
						}
					],
					"stateMutability": "view",
					"type": "function"
				},
				{
					"inputs": [
						{
							"internalType": "string",
							"name": "_name",
							"type": "string"
						}
					],
					"name": "removePerson",
					"outputs": [],
					"stateMutability": "nonpayable",
					"type": "function"
				},
				{
					"inputs": [],
					"name": "retrieve",
					"outputs": [
						{
							"internalType": "uint256",
							"name": "",
							"type": "uint256"
						}
					],
					"stateMutability": "view",
					"type": "function"
				},
				{
					"inputs": [],
					"name": "retrieveAge",
					"outputs": [
						{
							"internalType": "uint256",
							"name": "",
							"type": "uint256"
						}
					],
					"stateMutability": "pure",
					"type": "function"
				},
				{
					"inputs": [
						{
							"internalType": "uint256",
							"name": "_favoriteNumber",
							"type": "uint256"
						}
					],
					"name": "store",
					"outputs": [],
					"stateMutability": "nonpayable",
					"type": "function"
				},
				{
					"inputs": [
						{
							"internalType": "uint256",
							"name": "_age",
							"type": "uint256"
						}
					],
					"name": "storeAge",
					"outputs": [],
					"stateMutability": "nonpayable",
					"type": "function"
				},
				{
					"inputs": [],
					"name": "testbye",
					"outputs": [
						{
							"internalType": "bytes3",
							"name": "",
							"type": "bytes3"
						}
					],
					"stateMutability": "view",
					"type": "function"
				}
			],
			"devdoc": {
				"kind": "dev",
				"methods": {},
				"version": 1
			},
			"evm": {
				"assembly": "    /* \"SimpleStorage/SimpleStorage-modify.sol\":76:1712  contract SimpleStorage {... */\n  mstore(0x40, 0x80)\n    /* \"SimpleStorage/SimpleStorage-modify.sol\":145:174  bytes3 public testbye = 'aaa' */\n  0x6161610000000000000000000000000000000000000000000000000000000000\n  0x01\n  exp(0x0100, 0x00)\n  dup2\n  sload\n  dup2\n  0xffffff\n  mul\n  not\n  and\n  swap1\n  dup4\n  0xe8\n  shr\n  mul\n  or\n  swap1\n  sstore\n  pop\n    /* \"SimpleStorage/SimpleStorage-modify.sol\":76:1712  contract SimpleStorage {... */\n  callvalue\n  dup1\n  iszero\n  tag_1\n  jumpi\n  0x00\n  dup1\n  revert\ntag_1:\n  pop\n  dataSize(sub_0)\n  dup1\n  dataOffset(sub_0)\n  0x00\n  codecopy\n  0x00\n  return\nstop\n\nsub_0: assembly {\n        /* \"SimpleStorage/SimpleStorage-modify.sol\":76:1712  contract SimpleStorage {... */\n      mstore(0x40, 0x80)\n      callvalue\n      dup1\n      iszero\n      tag_1\n      jumpi\n      0x00\n      dup1\n      revert\n    tag_1:\n      pop\n      jumpi(tag_2, lt(calldatasize, 0x04))\n      shr(0xe0, calldataload(0x00))\n      dup1\n      0x6057361d\n      gt\n      tag_14\n      jumpi\n      dup1\n      0x6057361d\n      eq\n      tag_8\n      jumpi\n      dup1\n      0x8bab8dd5\n      eq\n      tag_9\n      jumpi\n      dup1\n      0x90c3ee4d\n      eq\n      tag_10\n      jumpi\n      dup1\n      0x9e7a13ad\n      eq\n      tag_11\n      jumpi\n      dup1\n      0xa3823eaa\n      eq\n      tag_12\n      jumpi\n      dup1\n      0xc43fab38\n      eq\n      tag_13\n      jumpi\n      jump(tag_2)\n    tag_14:\n      dup1\n      0x2e64cec1\n      eq\n      tag_3\n      jumpi\n      dup1\n      0x31d0e130\n      eq\n      tag_4\n      jumpi\n      dup1\n      0x39d2112c\n      eq\n      tag_5\n      jumpi\n      dup1\n      0x4a638559\n      eq\n      tag_6\n      jumpi\n      dup1\n      0x5dee30e6\n      eq\n      tag_7\n      jumpi\n    tag_2:\n      0x00\n      dup1\n      revert\n        /* \"SimpleStorage/SimpleStorage-modify.sol\":654:752  function retrieve() public view returns (uint256){... */\n    tag_3:\n      tag_15\n      tag_16\n      jump\t// in\n    tag_15:\n      mload(0x40)\n      tag_17\n      swap2\n      swap1\n      tag_18\n      jump\t// in\n    tag_17:\n      mload(0x40)\n      dup1\n      swap2\n      sub\n      swap1\n      return\n        /* \"SimpleStorage/SimpleStorage-modify.sol\":145:174  bytes3 public testbye = 'aaa' */\n    tag_4:\n      tag_19\n      tag_20\n      jump\t// in\n    tag_19:\n      mload(0x40)\n      tag_21\n      swap2\n      swap1\n      tag_22\n      jump\t// in\n    tag_21:\n      mload(0x40)\n      dup1\n      swap2\n      sub\n      swap1\n      return\n        /* \"SimpleStorage/SimpleStorage-modify.sol\":935:1375  function addPerson(string calldata _name, uint256 _favoriteNumber,uint256 _age ,string memory _gender) public  returns (People memory ){... */\n    tag_5:\n      tag_23\n      0x04\n      dup1\n      calldatasize\n      sub\n      dup2\n      add\n      swap1\n      tag_24\n      swap2\n      swap1\n      tag_25\n      jump\t// in\n    tag_24:\n      tag_26\n      jump\t// in\n    tag_23:\n      mload(0x40)\n      tag_27\n      swap2\n      swap1\n      tag_28\n      jump\t// in\n    tag_27:\n      mload(0x40)\n      dup1\n      swap2\n      sub\n      swap1\n      return\n        /* \"SimpleStorage/SimpleStorage-modify.sol\":1383:1551  function removePerson(string calldata _name) public {... */\n    tag_6:\n      tag_29\n      0x04\n      dup1\n      calldatasize\n      sub\n      dup2\n      add\n      swap1\n      tag_30\n      swap2\n      swap1\n      tag_31\n      jump\t// in\n    tag_30:\n      tag_32\n      jump\t// in\n    tag_29:\n      stop\n        /* \"SimpleStorage/SimpleStorage-modify.sol\":1559:1709  function addPersonOjbect(People memory _people) public returns(People memory) {... */\n    tag_7:\n      tag_33\n      0x04\n      dup1\n      calldatasize\n      sub\n      dup2\n      add\n      swap1\n      tag_34\n      swap2\n      swap1\n      tag_35\n      jump\t// in\n    tag_34:\n      tag_36\n      jump\t// in\n    tag_33:\n      mload(0x40)\n      tag_37\n      swap2\n      swap1\n      tag_28\n      jump\t// in\n    tag_37:\n      mload(0x40)\n      dup1\n      swap2\n      sub\n      swap1\n      return\n        /* \"SimpleStorage/SimpleStorage-modify.sol\":519:642  function store(uint256 _favoriteNumber) public {... */\n    tag_8:\n      tag_38\n      0x04\n      dup1\n      calldatasize\n      sub\n      dup2\n      add\n      swap1\n      tag_39\n      swap2\n      swap1\n      tag_40\n      jump\t// in\n    tag_39:\n      tag_41\n      jump\t// in\n    tag_38:\n      stop\n        /* \"SimpleStorage/SimpleStorage-modify.sol\":406:460  mapping(string => uint256) public nameToFavoriteNumber */\n    tag_9:\n      tag_42\n      0x04\n      dup1\n      calldatasize\n      sub\n      dup2\n      add\n      swap1\n      tag_43\n      swap2\n      swap1\n      tag_44\n      jump\t// in\n    tag_43:\n      tag_45\n      jump\t// in\n    tag_42:\n      mload(0x40)\n      tag_46\n      swap2\n      swap1\n      tag_18\n      jump\t// in\n    tag_46:\n      mload(0x40)\n      dup1\n      swap2\n      sub\n      swap1\n      return\n        /* \"SimpleStorage/SimpleStorage-modify.sol\":467:510  mapping(string => uint256) public nameToAge */\n    tag_10:\n      tag_47\n      0x04\n      dup1\n      calldatasize\n      sub\n      dup2\n      add\n      swap1\n      tag_48\n      swap2\n      swap1\n      tag_44\n      jump\t// in\n    tag_48:\n      tag_49\n      jump\t// in\n    tag_47:\n      mload(0x40)\n      tag_50\n      swap2\n      swap1\n      tag_18\n      jump\t// in\n    tag_50:\n      mload(0x40)\n      dup1\n      swap2\n      sub\n      swap1\n      return\n        /* \"SimpleStorage/SimpleStorage-modify.sol\":372:397  People[] public    people */\n    tag_11:\n      tag_51\n      0x04\n      dup1\n      calldatasize\n      sub\n      dup2\n      add\n      swap1\n      tag_52\n      swap2\n      swap1\n      tag_40\n      jump\t// in\n    tag_52:\n      tag_53\n      jump\t// in\n    tag_51:\n      mload(0x40)\n      tag_54\n      swap5\n      swap4\n      swap3\n      swap2\n      swap1\n      tag_55\n      jump\t// in\n    tag_54:\n      mload(0x40)\n      dup1\n      swap2\n      sub\n      swap1\n      return\n        /* \"SimpleStorage/SimpleStorage-modify.sol\":836:923  function retrieveAge() public pure returns (uint256) {... */\n    tag_12:\n      tag_56\n      tag_57\n      jump\t// in\n    tag_56:\n      mload(0x40)\n      tag_58\n      swap2\n      swap1\n      tag_18\n      jump\t// in\n    tag_58:\n      mload(0x40)\n      dup1\n      swap2\n      sub\n      swap1\n      return\n        /* \"SimpleStorage/SimpleStorage-modify.sol\":760:828  function storeAge(uint256 _age) public {... */\n    tag_13:\n      tag_59\n      0x04\n      dup1\n      calldatasize\n      sub\n      dup2\n      add\n      swap1\n      tag_60\n      swap2\n      swap1\n      tag_40\n      jump\t// in\n    tag_60:\n      tag_61\n      jump\t// in\n    tag_59:\n      stop\n        /* \"SimpleStorage/SimpleStorage-modify.sol\":654:752  function retrieve() public view returns (uint256){... */\n    tag_16:\n        /* \"SimpleStorage/SimpleStorage-modify.sol\":695:702  uint256 */\n      0x00\n        /* \"SimpleStorage/SimpleStorage-modify.sol\":721:735  favoriteNumber */\n      dup1\n      sload\n        /* \"SimpleStorage/SimpleStorage-modify.sol\":714:735  return favoriteNumber */\n      swap1\n      pop\n        /* \"SimpleStorage/SimpleStorage-modify.sol\":654:752  function retrieve() public view returns (uint256){... */\n      swap1\n      jump\t// out\n        /* \"SimpleStorage/SimpleStorage-modify.sol\":145:174  bytes3 public testbye = 'aaa' */\n    tag_20:\n      0x01\n      0x00\n      swap1\n      sload\n      swap1\n      0x0100\n      exp\n      swap1\n      div\n      0xe8\n      shl\n      dup2\n      jump\t// out\n        /* \"SimpleStorage/SimpleStorage-modify.sol\":935:1375  function addPerson(string calldata _name, uint256 _favoriteNumber,uint256 _age ,string memory _gender) public  returns (People memory ){... */\n    tag_26:\n        /* \"SimpleStorage/SimpleStorage-modify.sol\":1055:1068  People memory */\n      tag_63\n      tag_64\n      jump\t// in\n    tag_63:\n        /* \"SimpleStorage/SimpleStorage-modify.sol\":1081:1087  people */\n      0x03\n        /* \"SimpleStorage/SimpleStorage-modify.sol\":1093:1138  People(_favoriteNumber, _name, _age, _gender) */\n      mload(0x40)\n      dup1\n      0x80\n      add\n      0x40\n      mstore\n      dup1\n        /* \"SimpleStorage/SimpleStorage-modify.sol\":1100:1115  _favoriteNumber */\n      dup7\n        /* \"SimpleStorage/SimpleStorage-modify.sol\":1093:1138  People(_favoriteNumber, _name, _age, _gender) */\n      dup2\n      mstore\n      0x20\n      add\n        /* \"SimpleStorage/SimpleStorage-modify.sol\":1117:1122  _name */\n      dup9\n      dup9\n        /* \"SimpleStorage/SimpleStorage-modify.sol\":1093:1138  People(_favoriteNumber, _name, _age, _gender) */\n      dup1\n      dup1\n      0x1f\n      add\n      0x20\n      dup1\n      swap2\n      div\n      mul\n      0x20\n      add\n      mload(0x40)\n      swap1\n      dup2\n      add\n      0x40\n      mstore\n      dup1\n      swap4\n      swap3\n      swap2\n      swap1\n      dup2\n      dup2\n      mstore\n      0x20\n      add\n      dup4\n      dup4\n      dup1\n      dup3\n      dup5\n      calldatacopy\n      0x00\n      dup2\n      dup5\n      add\n      mstore\n      not(0x1f)\n      0x1f\n      dup3\n      add\n      and\n      swap1\n      pop\n      dup1\n      dup4\n      add\n      swap3\n      pop\n      pop\n      pop\n      pop\n      pop\n      pop\n      pop\n      dup2\n      mstore\n      0x20\n      add\n        /* \"SimpleStorage/SimpleStorage-modify.sol\":1124:1128  _age */\n      dup6\n        /* \"SimpleStorage/SimpleStorage-modify.sol\":1093:1138  People(_favoriteNumber, _name, _age, _gender) */\n      dup2\n      mstore\n      0x20\n      add\n        /* \"SimpleStorage/SimpleStorage-modify.sol\":1130:1137  _gender */\n      dup5\n        /* \"SimpleStorage/SimpleStorage-modify.sol\":1093:1138  People(_favoriteNumber, _name, _age, _gender) */\n      dup2\n      mstore\n      pop\n        /* \"SimpleStorage/SimpleStorage-modify.sol\":1081:1139  people.push(People(_favoriteNumber, _name, _age, _gender)) */\n      swap1\n      dup1\n      0x01\n      dup2\n      sload\n      add\n      dup1\n      dup3\n      sstore\n      dup1\n      swap2\n      pop\n      pop\n      0x01\n      swap1\n      sub\n      swap1\n      0x00\n      mstore\n      keccak256(0x00, 0x20)\n      swap1\n      0x04\n      mul\n      add\n      0x00\n      swap1\n      swap2\n      swap1\n      swap2\n      swap1\n      swap2\n      pop\n      0x00\n      dup3\n      add\n      mload\n      dup2\n      0x00\n      add\n      sstore\n      0x20\n      dup3\n      add\n      mload\n      dup2\n      0x01\n      add\n      swap1\n      dup1\n      mload\n      swap1\n      0x20\n      add\n      swap1\n      tag_67\n      swap3\n      swap2\n      swap1\n      tag_68\n      jump\t// in\n    tag_67:\n      pop\n      0x40\n      dup3\n      add\n      mload\n      dup2\n      0x02\n      add\n      sstore\n      0x60\n      dup3\n      add\n      mload\n      dup2\n      0x03\n      add\n      swap1\n      dup1\n      mload\n      swap1\n      0x20\n      add\n      swap1\n      tag_69\n      swap3\n      swap2\n      swap1\n      tag_68\n      jump\t// in\n    tag_69:\n      pop\n      pop\n      pop\n        /* \"SimpleStorage/SimpleStorage-modify.sol\":1180:1195  _favoriteNumber */\n      dup4\n        /* \"SimpleStorage/SimpleStorage-modify.sol\":1150:1170  nameToFavoriteNumber */\n      0x04\n        /* \"SimpleStorage/SimpleStorage-modify.sol\":1171:1176  _name */\n      dup8\n      dup8\n        /* \"SimpleStorage/SimpleStorage-modify.sol\":1150:1177  nameToFavoriteNumber[_name] */\n      mload(0x40)\n      tag_70\n      swap3\n      swap2\n      swap1\n      tag_71\n      jump\t// in\n    tag_70:\n      swap1\n      dup2\n      mstore\n      0x20\n      add\n      mload(0x40)\n      dup1\n      swap2\n      sub\n      swap1\n      keccak256\n        /* \"SimpleStorage/SimpleStorage-modify.sol\":1150:1195  nameToFavoriteNumber[_name] = _favoriteNumber */\n      dup2\n      swap1\n      sstore\n      pop\n        /* \"SimpleStorage/SimpleStorage-modify.sol\":1225:1229  _age */\n      dup3\n        /* \"SimpleStorage/SimpleStorage-modify.sol\":1206:1215  nameToAge */\n      0x05\n        /* \"SimpleStorage/SimpleStorage-modify.sol\":1216:1221  _name */\n      dup8\n      dup8\n        /* \"SimpleStorage/SimpleStorage-modify.sol\":1206:1222  nameToAge[_name] */\n      mload(0x40)\n      tag_72\n      swap3\n      swap2\n      swap1\n      tag_71\n      jump\t// in\n    tag_72:\n      swap1\n      dup2\n      mstore\n      0x20\n      add\n      mload(0x40)\n      dup1\n      swap2\n      sub\n      swap1\n      keccak256\n        /* \"SimpleStorage/SimpleStorage-modify.sol\":1206:1229  nameToAge[_name] = _age */\n      dup2\n      swap1\n      sstore\n      pop\n        /* \"SimpleStorage/SimpleStorage-modify.sol\":1240:1302  addPersonOjbect(People(_favoriteNumber, _name, _age, _gender)) */\n      tag_73\n        /* \"SimpleStorage/SimpleStorage-modify.sol\":1256:1301  People(_favoriteNumber, _name, _age, _gender) */\n      mload(0x40)\n      dup1\n      0x80\n      add\n      0x40\n      mstore\n      dup1\n        /* \"SimpleStorage/SimpleStorage-modify.sol\":1263:1278  _favoriteNumber */\n      dup7\n        /* \"SimpleStorage/SimpleStorage-modify.sol\":1256:1301  People(_favoriteNumber, _name, _age, _gender) */\n      dup2\n      mstore\n      0x20\n      add\n        /* \"SimpleStorage/SimpleStorage-modify.sol\":1280:1285  _name */\n      dup9\n      dup9\n        /* \"SimpleStorage/SimpleStorage-modify.sol\":1256:1301  People(_favoriteNumber, _name, _age, _gender) */\n      dup1\n      dup1\n      0x1f\n      add\n      0x20\n      dup1\n      swap2\n      div\n      mul\n      0x20\n      add\n      mload(0x40)\n      swap1\n      dup2\n      add\n      0x40\n      mstore\n      dup1\n      swap4\n      swap3\n      swap2\n      swap1\n      dup2\n      dup2\n      mstore\n      0x20\n      add\n      dup4\n      dup4\n      dup1\n      dup3\n      dup5\n      calldatacopy\n      0x00\n      dup2\n      dup5\n      add\n      mstore\n      not(0x1f)\n      0x1f\n      dup3\n      add\n      and\n      swap1\n      pop\n      dup1\n      dup4\n      add\n      swap3\n      pop\n      pop\n      pop\n      pop\n      pop\n      pop\n      pop\n      dup2\n      mstore\n      0x20\n      add\n        /* \"SimpleStorage/SimpleStorage-modify.sol\":1287:1291  _age */\n      dup6\n        /* \"SimpleStorage/SimpleStorage-modify.sol\":1256:1301  People(_favoriteNumber, _name, _age, _gender) */\n      dup2\n      mstore\n      0x20\n      add\n        /* \"SimpleStorage/SimpleStorage-modify.sol\":1293:1300  _gender */\n      dup5\n        /* \"SimpleStorage/SimpleStorage-modify.sol\":1256:1301  People(_favoriteNumber, _name, _age, _gender) */\n      dup2\n      mstore\n      pop\n        /* \"SimpleStorage/SimpleStorage-modify.sol\":1240:1255  addPersonOjbect */\n      tag_36\n        /* \"SimpleStorage/SimpleStorage-modify.sol\":1240:1302  addPersonOjbect(People(_favoriteNumber, _name, _age, _gender)) */\n      jump\t// in\n    tag_73:\n      pop\n        /* \"SimpleStorage/SimpleStorage-modify.sol\":1321:1366  People(_favoriteNumber, _name, _age, _gender) */\n      mload(0x40)\n      dup1\n      0x80\n      add\n      0x40\n      mstore\n      dup1\n        /* \"SimpleStorage/SimpleStorage-modify.sol\":1328:1343  _favoriteNumber */\n      dup6\n        /* \"SimpleStorage/SimpleStorage-modify.sol\":1321:1366  People(_favoriteNumber, _name, _age, _gender) */\n      dup2\n      mstore\n      0x20\n      add\n        /* \"SimpleStorage/SimpleStorage-modify.sol\":1345:1350  _name */\n      dup8\n      dup8\n        /* \"SimpleStorage/SimpleStorage-modify.sol\":1321:1366  People(_favoriteNumber, _name, _age, _gender) */\n      dup1\n      dup1\n      0x1f\n      add\n      0x20\n      dup1\n      swap2\n      div\n      mul\n      0x20\n      add\n      mload(0x40)\n      swap1\n      dup2\n      add\n      0x40\n      mstore\n      dup1\n      swap4\n      swap3\n      swap2\n      swap1\n      dup2\n      dup2\n      mstore\n      0x20\n      add\n      dup4\n      dup4\n      dup1\n      dup3\n      dup5\n      calldatacopy\n      0x00\n      dup2\n      dup5\n      add\n      mstore\n      not(0x1f)\n      0x1f\n      dup3\n      add\n      and\n      swap1\n      pop\n      dup1\n      dup4\n      add\n      swap3\n      pop\n      pop\n      pop\n      pop\n      pop\n      pop\n      pop\n      dup2\n      mstore\n      0x20\n      add\n        /* \"SimpleStorage/SimpleStorage-modify.sol\":1352:1356  _age */\n      dup5\n        /* \"SimpleStorage/SimpleStorage-modify.sol\":1321:1366  People(_favoriteNumber, _name, _age, _gender) */\n      dup2\n      mstore\n      0x20\n      add\n        /* \"SimpleStorage/SimpleStorage-modify.sol\":1358:1365  _gender */\n      dup4\n        /* \"SimpleStorage/SimpleStorage-modify.sol\":1321:1366  People(_favoriteNumber, _name, _age, _gender) */\n      dup2\n      mstore\n      pop\n        /* \"SimpleStorage/SimpleStorage-modify.sol\":1313:1366  return  People(_favoriteNumber, _name, _age, _gender) */\n      swap1\n      pop\n        /* \"SimpleStorage/SimpleStorage-modify.sol\":935:1375  function addPerson(string calldata _name, uint256 _favoriteNumber,uint256 _age ,string memory _gender) public  returns (People memory ){... */\n      swap6\n      swap5\n      pop\n      pop\n      pop\n      pop\n      pop\n      jump\t// out\n        /* \"SimpleStorage/SimpleStorage-modify.sol\":1383:1551  function removePerson(string calldata _name) public {... */\n    tag_32:\n        /* \"SimpleStorage/SimpleStorage-modify.sol\":1447:1453  people */\n      0x03\n        /* \"SimpleStorage/SimpleStorage-modify.sol\":1447:1459  people.pop() */\n      dup1\n      sload\n      dup1\n      tag_75\n      jumpi\n      tag_76\n      tag_77\n      jump\t// in\n    tag_76:\n    tag_75:\n      0x01\n      swap1\n      sub\n      dup2\n      dup2\n      swap1\n      0x00\n      mstore\n      keccak256(0x00, 0x20)\n      swap1\n      0x04\n      mul\n      add\n      0x00\n      dup1\n      dup3\n      add\n      0x00\n      swap1\n      sstore\n      0x01\n      dup3\n      add\n      0x00\n      tag_79\n      swap2\n      swap1\n      tag_80\n      jump\t// in\n    tag_79:\n      0x02\n      dup3\n      add\n      0x00\n      swap1\n      sstore\n      0x03\n      dup3\n      add\n      0x00\n      tag_81\n      swap2\n      swap1\n      tag_80\n      jump\t// in\n    tag_81:\n      pop\n      pop\n      swap1\n      sstore\n        /* \"SimpleStorage/SimpleStorage-modify.sol\":1478:1487  nameToAge */\n      0x05\n        /* \"SimpleStorage/SimpleStorage-modify.sol\":1488:1493  _name */\n      dup3\n      dup3\n        /* \"SimpleStorage/SimpleStorage-modify.sol\":1478:1494  nameToAge[_name] */\n      mload(0x40)\n      tag_82\n      swap3\n      swap2\n      swap1\n      tag_71\n      jump\t// in\n    tag_82:\n      swap1\n      dup2\n      mstore\n      0x20\n      add\n      mload(0x40)\n      dup1\n      swap2\n      sub\n      swap1\n      keccak256\n        /* \"SimpleStorage/SimpleStorage-modify.sol\":1471:1494  delete nameToAge[_name] */\n      0x00\n      swap1\n      sstore\n        /* \"SimpleStorage/SimpleStorage-modify.sol\":1513:1533  nameToFavoriteNumber */\n      0x04\n        /* \"SimpleStorage/SimpleStorage-modify.sol\":1534:1539  _name */\n      dup3\n      dup3\n        /* \"SimpleStorage/SimpleStorage-modify.sol\":1513:1540  nameToFavoriteNumber[_name] */\n      mload(0x40)\n      tag_83\n      swap3\n      swap2\n      swap1\n      tag_71\n      jump\t// in\n    tag_83:\n      swap1\n      dup2\n      mstore\n      0x20\n      add\n      mload(0x40)\n      dup1\n      swap2\n      sub\n      swap1\n      keccak256\n        /* \"SimpleStorage/SimpleStorage-modify.sol\":1506:1540  delete nameToFavoriteNumber[_name] */\n      0x00\n      swap1\n      sstore\n        /* \"SimpleStorage/SimpleStorage-modify.sol\":1383:1551  function removePerson(string calldata _name) public {... */\n      pop\n      pop\n      jump\t// out\n        /* \"SimpleStorage/SimpleStorage-modify.sol\":1559:1709  function addPersonOjbect(People memory _people) public returns(People memory) {... */\n    tag_36:\n        /* \"SimpleStorage/SimpleStorage-modify.sol\":1622:1635  People memory */\n      tag_84\n      tag_64\n      jump\t// in\n    tag_84:\n        /* \"SimpleStorage/SimpleStorage-modify.sol\":1648:1654  people */\n      0x03\n        /* \"SimpleStorage/SimpleStorage-modify.sol\":1660:1667  _people */\n      dup3\n        /* \"SimpleStorage/SimpleStorage-modify.sol\":1648:1668  people.push(_people) */\n      swap1\n      dup1\n      0x01\n      dup2\n      sload\n      add\n      dup1\n      dup3\n      sstore\n      dup1\n      swap2\n      pop\n      pop\n      0x01\n      swap1\n      sub\n      swap1\n      0x00\n      mstore\n      keccak256(0x00, 0x20)\n      swap1\n      0x04\n      mul\n      add\n      0x00\n      swap1\n      swap2\n      swap1\n      swap2\n      swap1\n      swap2\n      pop\n      0x00\n      dup3\n      add\n      mload\n      dup2\n      0x00\n      add\n      sstore\n      0x20\n      dup3\n      add\n      mload\n      dup2\n      0x01\n      add\n      swap1\n      dup1\n      mload\n      swap1\n      0x20\n      add\n      swap1\n      tag_87\n      swap3\n      swap2\n      swap1\n      tag_68\n      jump\t// in\n    tag_87:\n      pop\n      0x40\n      dup3\n      add\n      mload\n      dup2\n      0x02\n      add\n      sstore\n      0x60\n      dup3\n      add\n      mload\n      dup2\n      0x03\n      add\n      swap1\n      dup1\n      mload\n      swap1\n      0x20\n      add\n      swap1\n      tag_88\n      swap3\n      swap2\n      swap1\n      tag_68\n      jump\t// in\n    tag_88:\n      pop\n      pop\n      pop\n        /* \"SimpleStorage/SimpleStorage-modify.sol\":1686:1693  _people */\n      dup2\n        /* \"SimpleStorage/SimpleStorage-modify.sol\":1679:1693  return _people */\n      swap1\n      pop\n        /* \"SimpleStorage/SimpleStorage-modify.sol\":1559:1709  function addPersonOjbect(People memory _people) public returns(People memory) {... */\n      swap2\n      swap1\n      pop\n      jump\t// out\n        /* \"SimpleStorage/SimpleStorage-modify.sol\":519:642  function store(uint256 _favoriteNumber) public {... */\n    tag_41:\n        /* \"SimpleStorage/SimpleStorage-modify.sol\":594:609  _favoriteNumber */\n      dup1\n        /* \"SimpleStorage/SimpleStorage-modify.sol\":577:591  favoriteNumber */\n      0x00\n        /* \"SimpleStorage/SimpleStorage-modify.sol\":577:609  favoriteNumber = _favoriteNumber */\n      dup2\n      swap1\n      sstore\n      pop\n        /* \"SimpleStorage/SimpleStorage-modify.sol\":621:634  retrieveAge() */\n      tag_90\n        /* \"SimpleStorage/SimpleStorage-modify.sol\":621:632  retrieveAge */\n      tag_57\n        /* \"SimpleStorage/SimpleStorage-modify.sol\":621:634  retrieveAge() */\n      jump\t// in\n    tag_90:\n      pop\n        /* \"SimpleStorage/SimpleStorage-modify.sol\":519:642  function store(uint256 _favoriteNumber) public {... */\n      pop\n      jump\t// out\n        /* \"SimpleStorage/SimpleStorage-modify.sol\":406:460  mapping(string => uint256) public nameToFavoriteNumber */\n    tag_45:\n      0x04\n      dup2\n      dup1\n      mload\n      0x20\n      dup2\n      add\n      dup3\n      add\n      dup1\n      mload\n      dup5\n      dup3\n      mstore\n      0x20\n      dup4\n      add\n      0x20\n      dup6\n      add\n      keccak256\n      dup2\n      dup4\n      mstore\n      dup1\n      swap6\n      pop\n      pop\n      pop\n      pop\n      pop\n      pop\n      0x00\n      swap2\n      pop\n      swap1\n      pop\n      sload\n      dup2\n      jump\t// out\n        /* \"SimpleStorage/SimpleStorage-modify.sol\":467:510  mapping(string => uint256) public nameToAge */\n    tag_49:\n      0x05\n      dup2\n      dup1\n      mload\n      0x20\n      dup2\n      add\n      dup3\n      add\n      dup1\n      mload\n      dup5\n      dup3\n      mstore\n      0x20\n      dup4\n      add\n      0x20\n      dup6\n      add\n      keccak256\n      dup2\n      dup4\n      mstore\n      dup1\n      swap6\n      pop\n      pop\n      pop\n      pop\n      pop\n      pop\n      0x00\n      swap2\n      pop\n      swap1\n      pop\n      sload\n      dup2\n      jump\t// out\n        /* \"SimpleStorage/SimpleStorage-modify.sol\":372:397  People[] public    people */\n    tag_53:\n      0x03\n      dup2\n      dup2\n      sload\n      dup2\n      lt\n      tag_91\n      jumpi\n      0x00\n      dup1\n      revert\n    tag_91:\n      swap1\n      0x00\n      mstore\n      keccak256(0x00, 0x20)\n      swap1\n      0x04\n      mul\n      add\n      0x00\n      swap2\n      pop\n      swap1\n      pop\n      dup1\n      0x00\n      add\n      sload\n      swap1\n      dup1\n      0x01\n      add\n      dup1\n      sload\n      tag_93\n      swap1\n      tag_94\n      jump\t// in\n    tag_93:\n      dup1\n      0x1f\n      add\n      0x20\n      dup1\n      swap2\n      div\n      mul\n      0x20\n      add\n      mload(0x40)\n      swap1\n      dup2\n      add\n      0x40\n      mstore\n      dup1\n      swap3\n      swap2\n      swap1\n      dup2\n      dup2\n      mstore\n      0x20\n      add\n      dup3\n      dup1\n      sload\n      tag_95\n      swap1\n      tag_94\n      jump\t// in\n    tag_95:\n      dup1\n      iszero\n      tag_96\n      jumpi\n      dup1\n      0x1f\n      lt\n      tag_97\n      jumpi\n      0x0100\n      dup1\n      dup4\n      sload\n      div\n      mul\n      dup4\n      mstore\n      swap2\n      0x20\n      add\n      swap2\n      jump(tag_96)\n    tag_97:\n      dup3\n      add\n      swap2\n      swap1\n      0x00\n      mstore\n      keccak256(0x00, 0x20)\n      swap1\n    tag_98:\n      dup2\n      sload\n      dup2\n      mstore\n      swap1\n      0x01\n      add\n      swap1\n      0x20\n      add\n      dup1\n      dup4\n      gt\n      tag_98\n      jumpi\n      dup3\n      swap1\n      sub\n      0x1f\n      and\n      dup3\n      add\n      swap2\n    tag_96:\n      pop\n      pop\n      pop\n      pop\n      pop\n      swap1\n      dup1\n      0x02\n      add\n      sload\n      swap1\n      dup1\n      0x03\n      add\n      dup1\n      sload\n      tag_99\n      swap1\n      tag_94\n      jump\t// in\n    tag_99:\n      dup1\n      0x1f\n      add\n      0x20\n      dup1\n      swap2\n      div\n      mul\n      0x20\n      add\n      mload(0x40)\n      swap1\n      dup2\n      add\n      0x40\n      mstore\n      dup1\n      swap3\n      swap2\n      swap1\n      dup2\n      dup2\n      mstore\n      0x20\n      add\n      dup3\n      dup1\n      sload\n      tag_100\n      swap1\n      tag_94\n      jump\t// in\n    tag_100:\n      dup1\n      iszero\n      tag_101\n      jumpi\n      dup1\n      0x1f\n      lt\n      tag_102\n      jumpi\n      0x0100\n      dup1\n      dup4\n      sload\n      div\n      mul\n      dup4\n      mstore\n      swap2\n      0x20\n      add\n      swap2\n      jump(tag_101)\n    tag_102:\n      dup3\n      add\n      swap2\n      swap1\n      0x00\n      mstore\n      keccak256(0x00, 0x20)\n      swap1\n    tag_103:\n      dup2\n      sload\n      dup2\n      mstore\n      swap1\n      0x01\n      add\n      swap1\n      0x20\n      add\n      dup1\n      dup4\n      gt\n      tag_103\n      jumpi\n      dup3\n      swap1\n      sub\n      0x1f\n      and\n      dup3\n      add\n      swap2\n    tag_101:\n      pop\n      pop\n      pop\n      pop\n      pop\n      swap1\n      pop\n      dup5\n      jump\t// out\n        /* \"SimpleStorage/SimpleStorage-modify.sol\":836:923  function retrieveAge() public pure returns (uint256) {... */\n    tag_57:\n        /* \"SimpleStorage/SimpleStorage-modify.sol\":880:887  uint256 */\n      0x00\n        /* \"SimpleStorage/SimpleStorage-modify.sol\":910:915  1 + 1 */\n      0x02\n        /* \"SimpleStorage/SimpleStorage-modify.sol\":903:915  return 1 + 1 */\n      swap1\n      pop\n        /* \"SimpleStorage/SimpleStorage-modify.sol\":836:923  function retrieveAge() public pure returns (uint256) {... */\n      swap1\n      jump\t// out\n        /* \"SimpleStorage/SimpleStorage-modify.sol\":760:828  function storeAge(uint256 _age) public {... */\n    tag_61:\n        /* \"SimpleStorage/SimpleStorage-modify.sol\":816:820  _age */\n      dup1\n        /* \"SimpleStorage/SimpleStorage-modify.sol\":810:813  age */\n      0x02\n        /* \"SimpleStorage/SimpleStorage-modify.sol\":810:820  age = _age */\n      dup2\n      swap1\n      sstore\n      pop\n        /* \"SimpleStorage/SimpleStorage-modify.sol\":760:828  function storeAge(uint256 _age) public {... */\n      pop\n      jump\t// out\n    tag_64:\n      mload(0x40)\n      dup1\n      0x80\n      add\n      0x40\n      mstore\n      dup1\n      0x00\n      dup2\n      mstore\n      0x20\n      add\n      0x60\n      dup2\n      mstore\n      0x20\n      add\n      0x00\n      dup2\n      mstore\n      0x20\n      add\n      0x60\n      dup2\n      mstore\n      pop\n      swap1\n      jump\t// out\n    tag_68:\n      dup3\n      dup1\n      sload\n      tag_106\n      swap1\n      tag_94\n      jump\t// in\n    tag_106:\n      swap1\n      0x00\n      mstore\n      keccak256(0x00, 0x20)\n      swap1\n      0x1f\n      add\n      0x20\n      swap1\n      div\n      dup2\n      add\n      swap3\n      dup3\n      tag_108\n      jumpi\n      0x00\n      dup6\n      sstore\n      jump(tag_107)\n    tag_108:\n      dup3\n      0x1f\n      lt\n      tag_109\n      jumpi\n      dup1\n      mload\n      not(0xff)\n      and\n      dup4\n      dup1\n      add\n      or\n      dup6\n      sstore\n      jump(tag_107)\n    tag_109:\n      dup3\n      dup1\n      add\n      0x01\n      add\n      dup6\n      sstore\n      dup3\n      iszero\n      tag_107\n      jumpi\n      swap2\n      dup3\n      add\n    tag_110:\n      dup3\n      dup2\n      gt\n      iszero\n      tag_111\n      jumpi\n      dup3\n      mload\n      dup3\n      sstore\n      swap2\n      0x20\n      add\n      swap2\n      swap1\n      0x01\n      add\n      swap1\n      jump(tag_110)\n    tag_111:\n    tag_107:\n      pop\n      swap1\n      pop\n      tag_112\n      swap2\n      swap1\n      tag_113\n      jump\t// in\n    tag_112:\n      pop\n      swap1\n      jump\t// out\n    tag_80:\n      pop\n      dup1\n      sload\n      tag_114\n      swap1\n      tag_94\n      jump\t// in\n    tag_114:\n      0x00\n      dup3\n      sstore\n      dup1\n      0x1f\n      lt\n      tag_116\n      jumpi\n      pop\n      jump(tag_115)\n    tag_116:\n      0x1f\n      add\n      0x20\n      swap1\n      div\n      swap1\n      0x00\n      mstore\n      keccak256(0x00, 0x20)\n      swap1\n      dup2\n      add\n      swap1\n      tag_117\n      swap2\n      swap1\n      tag_113\n      jump\t// in\n    tag_117:\n    tag_115:\n      pop\n      jump\t// out\n    tag_113:\n    tag_118:\n      dup1\n      dup3\n      gt\n      iszero\n      tag_119\n      jumpi\n      0x00\n      dup2\n      0x00\n      swap1\n      sstore\n      pop\n      0x01\n      add\n      jump(tag_118)\n    tag_119:\n      pop\n      swap1\n      jump\t// out\n        /* \"#utility.yul\":7:84   */\n    tag_120:\n        /* \"#utility.yul\":44:51   */\n      0x00\n        /* \"#utility.yul\":73:78   */\n      dup2\n        /* \"#utility.yul\":62:78   */\n      swap1\n      pop\n        /* \"#utility.yul\":7:84   */\n      swap2\n      swap1\n      pop\n      jump\t// out\n        /* \"#utility.yul\":90:208   */\n    tag_121:\n        /* \"#utility.yul\":177:201   */\n      tag_159\n        /* \"#utility.yul\":195:200   */\n      dup2\n        /* \"#utility.yul\":177:201   */\n      tag_120\n      jump\t// in\n    tag_159:\n        /* \"#utility.yul\":172:175   */\n      dup3\n        /* \"#utility.yul\":165:202   */\n      mstore\n        /* \"#utility.yul\":90:208   */\n      pop\n      pop\n      jump\t// out\n        /* \"#utility.yul\":214:436   */\n    tag_18:\n        /* \"#utility.yul\":307:311   */\n      0x00\n        /* \"#utility.yul\":345:347   */\n      0x20\n        /* \"#utility.yul\":334:343   */\n      dup3\n        /* \"#utility.yul\":330:348   */\n      add\n        /* \"#utility.yul\":322:348   */\n      swap1\n      pop\n        /* \"#utility.yul\":358:429   */\n      tag_161\n        /* \"#utility.yul\":426:427   */\n      0x00\n        /* \"#utility.yul\":415:424   */\n      dup4\n        /* \"#utility.yul\":411:428   */\n      add\n        /* \"#utility.yul\":402:408   */\n      dup5\n        /* \"#utility.yul\":358:429   */\n      tag_121\n      jump\t// in\n    tag_161:\n        /* \"#utility.yul\":214:436   */\n      swap3\n      swap2\n      pop\n      pop\n      jump\t// out\n        /* \"#utility.yul\":442:591   */\n    tag_122:\n        /* \"#utility.yul\":478:485   */\n      0x00\n        /* \"#utility.yul\":518:584   */\n      0xffffff0000000000000000000000000000000000000000000000000000000000\n        /* \"#utility.yul\":511:516   */\n      dup3\n        /* \"#utility.yul\":507:585   */\n      and\n        /* \"#utility.yul\":496:585   */\n      swap1\n      pop\n        /* \"#utility.yul\":442:591   */\n      swap2\n      swap1\n      pop\n      jump\t// out\n        /* \"#utility.yul\":597:712   */\n    tag_123:\n        /* \"#utility.yul\":682:705   */\n      tag_164\n        /* \"#utility.yul\":699:704   */\n      dup2\n        /* \"#utility.yul\":682:705   */\n      tag_122\n      jump\t// in\n    tag_164:\n        /* \"#utility.yul\":677:680   */\n      dup3\n        /* \"#utility.yul\":670:706   */\n      mstore\n        /* \"#utility.yul\":597:712   */\n      pop\n      pop\n      jump\t// out\n        /* \"#utility.yul\":718:936   */\n    tag_22:\n        /* \"#utility.yul\":809:813   */\n      0x00\n        /* \"#utility.yul\":847:849   */\n      0x20\n        /* \"#utility.yul\":836:845   */\n      dup3\n        /* \"#utility.yul\":832:850   */\n      add\n        /* \"#utility.yul\":824:850   */\n      swap1\n      pop\n        /* \"#utility.yul\":860:929   */\n      tag_166\n        /* \"#utility.yul\":926:927   */\n      0x00\n        /* \"#utility.yul\":915:924   */\n      dup4\n        /* \"#utility.yul\":911:928   */\n      add\n        /* \"#utility.yul\":902:908   */\n      dup5\n        /* \"#utility.yul\":860:929   */\n      tag_123\n      jump\t// in\n    tag_166:\n        /* \"#utility.yul\":718:936   */\n      swap3\n      swap2\n      pop\n      pop\n      jump\t// out\n        /* \"#utility.yul\":942:1017   */\n    tag_124:\n        /* \"#utility.yul\":975:981   */\n      0x00\n        /* \"#utility.yul\":1008:1010   */\n      0x40\n        /* \"#utility.yul\":1002:1011   */\n      mload\n        /* \"#utility.yul\":992:1011   */\n      swap1\n      pop\n        /* \"#utility.yul\":942:1017   */\n      swap1\n      jump\t// out\n        /* \"#utility.yul\":1023:1140   */\n    tag_125:\n        /* \"#utility.yul\":1132:1133   */\n      0x00\n        /* \"#utility.yul\":1129:1130   */\n      dup1\n        /* \"#utility.yul\":1122:1134   */\n      revert\n        /* \"#utility.yul\":1146:1263   */\n    tag_126:\n        /* \"#utility.yul\":1255:1256   */\n      0x00\n        /* \"#utility.yul\":1252:1253   */\n      dup1\n        /* \"#utility.yul\":1245:1257   */\n      revert\n        /* \"#utility.yul\":1269:1386   */\n    tag_127:\n        /* \"#utility.yul\":1378:1379   */\n      0x00\n        /* \"#utility.yul\":1375:1376   */\n      dup1\n        /* \"#utility.yul\":1368:1380   */\n      revert\n        /* \"#utility.yul\":1392:1509   */\n    tag_128:\n        /* \"#utility.yul\":1501:1502   */\n      0x00\n        /* \"#utility.yul\":1498:1499   */\n      dup1\n        /* \"#utility.yul\":1491:1503   */\n      revert\n        /* \"#utility.yul\":1515:1632   */\n    tag_129:\n        /* \"#utility.yul\":1624:1625   */\n      0x00\n        /* \"#utility.yul\":1621:1622   */\n      dup1\n        /* \"#utility.yul\":1614:1626   */\n      revert\n        /* \"#utility.yul\":1652:2205   */\n    tag_130:\n        /* \"#utility.yul\":1710:1718   */\n      0x00\n        /* \"#utility.yul\":1720:1726   */\n      dup1\n        /* \"#utility.yul\":1770:1773   */\n      dup4\n        /* \"#utility.yul\":1763:1767   */\n      0x1f\n        /* \"#utility.yul\":1755:1761   */\n      dup5\n        /* \"#utility.yul\":1751:1768   */\n      add\n        /* \"#utility.yul\":1747:1774   */\n      slt\n        /* \"#utility.yul\":1737:1859   */\n      tag_174\n      jumpi\n        /* \"#utility.yul\":1778:1857   */\n      tag_175\n      tag_127\n      jump\t// in\n    tag_175:\n        /* \"#utility.yul\":1737:1859   */\n    tag_174:\n        /* \"#utility.yul\":1891:1897   */\n      dup3\n        /* \"#utility.yul\":1878:1898   */\n      calldataload\n        /* \"#utility.yul\":1868:1898   */\n      swap1\n      pop\n        /* \"#utility.yul\":1921:1939   */\n      0xffffffffffffffff\n        /* \"#utility.yul\":1913:1919   */\n      dup2\n        /* \"#utility.yul\":1910:1940   */\n      gt\n        /* \"#utility.yul\":1907:2024   */\n      iszero\n      tag_176\n      jumpi\n        /* \"#utility.yul\":1943:2022   */\n      tag_177\n      tag_128\n      jump\t// in\n    tag_177:\n        /* \"#utility.yul\":1907:2024   */\n    tag_176:\n        /* \"#utility.yul\":2057:2061   */\n      0x20\n        /* \"#utility.yul\":2049:2055   */\n      dup4\n        /* \"#utility.yul\":2045:2062   */\n      add\n        /* \"#utility.yul\":2033:2062   */\n      swap2\n      pop\n        /* \"#utility.yul\":2111:2114   */\n      dup4\n        /* \"#utility.yul\":2103:2107   */\n      0x01\n        /* \"#utility.yul\":2095:2101   */\n      dup3\n        /* \"#utility.yul\":2091:2108   */\n      mul\n        /* \"#utility.yul\":2081:2089   */\n      dup4\n        /* \"#utility.yul\":2077:2109   */\n      add\n        /* \"#utility.yul\":2074:2115   */\n      gt\n        /* \"#utility.yul\":2071:2199   */\n      iszero\n      tag_178\n      jumpi\n        /* \"#utility.yul\":2118:2197   */\n      tag_179\n      tag_129\n      jump\t// in\n    tag_179:\n        /* \"#utility.yul\":2071:2199   */\n    tag_178:\n        /* \"#utility.yul\":1652:2205   */\n      swap3\n      pop\n      swap3\n      swap1\n      pop\n      jump\t// out\n        /* \"#utility.yul\":2211:2333   */\n    tag_131:\n        /* \"#utility.yul\":2284:2308   */\n      tag_181\n        /* \"#utility.yul\":2302:2307   */\n      dup2\n        /* \"#utility.yul\":2284:2308   */\n      tag_120\n      jump\t// in\n    tag_181:\n        /* \"#utility.yul\":2277:2282   */\n      dup2\n        /* \"#utility.yul\":2274:2309   */\n      eq\n        /* \"#utility.yul\":2264:2327   */\n      tag_182\n      jumpi\n        /* \"#utility.yul\":2323:2324   */\n      0x00\n        /* \"#utility.yul\":2320:2321   */\n      dup1\n        /* \"#utility.yul\":2313:2325   */\n      revert\n        /* \"#utility.yul\":2264:2327   */\n    tag_182:\n        /* \"#utility.yul\":2211:2333   */\n      pop\n      jump\t// out\n        /* \"#utility.yul\":2339:2478   */\n    tag_132:\n        /* \"#utility.yul\":2385:2390   */\n      0x00\n        /* \"#utility.yul\":2423:2429   */\n      dup2\n        /* \"#utility.yul\":2410:2430   */\n      calldataload\n        /* \"#utility.yul\":2401:2430   */\n      swap1\n      pop\n        /* \"#utility.yul\":2439:2472   */\n      tag_184\n        /* \"#utility.yul\":2466:2471   */\n      dup2\n        /* \"#utility.yul\":2439:2472   */\n      tag_131\n      jump\t// in\n    tag_184:\n        /* \"#utility.yul\":2339:2478   */\n      swap3\n      swap2\n      pop\n      pop\n      jump\t// out\n        /* \"#utility.yul\":2484:2601   */\n    tag_133:\n        /* \"#utility.yul\":2593:2594   */\n      0x00\n        /* \"#utility.yul\":2590:2591   */\n      dup1\n        /* \"#utility.yul\":2583:2595   */\n      revert\n        /* \"#utility.yul\":2607:2709   */\n    tag_134:\n        /* \"#utility.yul\":2648:2654   */\n      0x00\n        /* \"#utility.yul\":2699:2701   */\n      0x1f\n        /* \"#utility.yul\":2695:2702   */\n      not\n        /* \"#utility.yul\":2690:2692   */\n      0x1f\n        /* \"#utility.yul\":2683:2688   */\n      dup4\n        /* \"#utility.yul\":2679:2693   */\n      add\n        /* \"#utility.yul\":2675:2703   */\n      and\n        /* \"#utility.yul\":2665:2703   */\n      swap1\n      pop\n        /* \"#utility.yul\":2607:2709   */\n      swap2\n      swap1\n      pop\n      jump\t// out\n        /* \"#utility.yul\":2715:2895   */\n    tag_135:\n        /* \"#utility.yul\":2763:2840   */\n      0x4e487b7100000000000000000000000000000000000000000000000000000000\n        /* \"#utility.yul\":2760:2761   */\n      0x00\n        /* \"#utility.yul\":2753:2841   */\n      mstore\n        /* \"#utility.yul\":2860:2864   */\n      0x41\n        /* \"#utility.yul\":2857:2858   */\n      0x04\n        /* \"#utility.yul\":2850:2865   */\n      mstore\n        /* \"#utility.yul\":2884:2888   */\n      0x24\n        /* \"#utility.yul\":2881:2882   */\n      0x00\n        /* \"#utility.yul\":2874:2889   */\n      revert\n        /* \"#utility.yul\":2901:3182   */\n    tag_136:\n        /* \"#utility.yul\":2984:3011   */\n      tag_189\n        /* \"#utility.yul\":3006:3010   */\n      dup3\n        /* \"#utility.yul\":2984:3011   */\n      tag_134\n      jump\t// in\n    tag_189:\n        /* \"#utility.yul\":2976:2982   */\n      dup2\n        /* \"#utility.yul\":2972:3012   */\n      add\n        /* \"#utility.yul\":3114:3120   */\n      dup2\n        /* \"#utility.yul\":3102:3112   */\n      dup2\n        /* \"#utility.yul\":3099:3121   */\n      lt\n        /* \"#utility.yul\":3078:3096   */\n      0xffffffffffffffff\n        /* \"#utility.yul\":3066:3076   */\n      dup3\n        /* \"#utility.yul\":3063:3097   */\n      gt\n        /* \"#utility.yul\":3060:3122   */\n      or\n        /* \"#utility.yul\":3057:3145   */\n      iszero\n      tag_190\n      jumpi\n        /* \"#utility.yul\":3125:3143   */\n      tag_191\n      tag_135\n      jump\t// in\n    tag_191:\n        /* \"#utility.yul\":3057:3145   */\n    tag_190:\n        /* \"#utility.yul\":3165:3175   */\n      dup1\n        /* \"#utility.yul\":3161:3163   */\n      0x40\n        /* \"#utility.yul\":3154:3176   */\n      mstore\n        /* \"#utility.yul\":2944:3182   */\n      pop\n        /* \"#utility.yul\":2901:3182   */\n      pop\n      pop\n      jump\t// out\n        /* \"#utility.yul\":3188:3317   */\n    tag_137:\n        /* \"#utility.yul\":3222:3228   */\n      0x00\n        /* \"#utility.yul\":3249:3269   */\n      tag_193\n      tag_124\n      jump\t// in\n    tag_193:\n        /* \"#utility.yul\":3239:3269   */\n      swap1\n      pop\n        /* \"#utility.yul\":3278:3311   */\n      tag_194\n        /* \"#utility.yul\":3306:3310   */\n      dup3\n        /* \"#utility.yul\":3298:3304   */\n      dup3\n        /* \"#utility.yul\":3278:3311   */\n      tag_136\n      jump\t// in\n    tag_194:\n        /* \"#utility.yul\":3188:3317   */\n      swap2\n      swap1\n      pop\n      jump\t// out\n        /* \"#utility.yul\":3323:3631   */\n    tag_138:\n        /* \"#utility.yul\":3385:3389   */\n      0x00\n        /* \"#utility.yul\":3475:3493   */\n      0xffffffffffffffff\n        /* \"#utility.yul\":3467:3473   */\n      dup3\n        /* \"#utility.yul\":3464:3494   */\n      gt\n        /* \"#utility.yul\":3461:3517   */\n      iszero\n      tag_196\n      jumpi\n        /* \"#utility.yul\":3497:3515   */\n      tag_197\n      tag_135\n      jump\t// in\n    tag_197:\n        /* \"#utility.yul\":3461:3517   */\n    tag_196:\n        /* \"#utility.yul\":3535:3564   */\n      tag_198\n        /* \"#utility.yul\":3557:3563   */\n      dup3\n        /* \"#utility.yul\":3535:3564   */\n      tag_134\n      jump\t// in\n    tag_198:\n        /* \"#utility.yul\":3527:3564   */\n      swap1\n      pop\n        /* \"#utility.yul\":3619:3623   */\n      0x20\n        /* \"#utility.yul\":3613:3617   */\n      dup2\n        /* \"#utility.yul\":3609:3624   */\n      add\n        /* \"#utility.yul\":3601:3624   */\n      swap1\n      pop\n        /* \"#utility.yul\":3323:3631   */\n      swap2\n      swap1\n      pop\n      jump\t// out\n        /* \"#utility.yul\":3637:3791   */\n    tag_139:\n        /* \"#utility.yul\":3721:3727   */\n      dup3\n        /* \"#utility.yul\":3716:3719   */\n      dup2\n        /* \"#utility.yul\":3711:3714   */\n      dup4\n        /* \"#utility.yul\":3698:3728   */\n      calldatacopy\n        /* \"#utility.yul\":3783:3784   */\n      0x00\n        /* \"#utility.yul\":3774:3780   */\n      dup4\n        /* \"#utility.yul\":3769:3772   */\n      dup4\n        /* \"#utility.yul\":3765:3781   */\n      add\n        /* \"#utility.yul\":3758:3785   */\n      mstore\n        /* \"#utility.yul\":3637:3791   */\n      pop\n      pop\n      pop\n      jump\t// out\n        /* \"#utility.yul\":3797:4209   */\n    tag_140:\n        /* \"#utility.yul\":3875:3880   */\n      0x00\n        /* \"#utility.yul\":3900:3966   */\n      tag_201\n        /* \"#utility.yul\":3916:3965   */\n      tag_202\n        /* \"#utility.yul\":3958:3964   */\n      dup5\n        /* \"#utility.yul\":3916:3965   */\n      tag_138\n      jump\t// in\n    tag_202:\n        /* \"#utility.yul\":3900:3966   */\n      tag_137\n      jump\t// in\n    tag_201:\n        /* \"#utility.yul\":3891:3966   */\n      swap1\n      pop\n        /* \"#utility.yul\":3989:3995   */\n      dup3\n        /* \"#utility.yul\":3982:3987   */\n      dup2\n        /* \"#utility.yul\":3975:3996   */\n      mstore\n        /* \"#utility.yul\":4027:4031   */\n      0x20\n        /* \"#utility.yul\":4020:4025   */\n      dup2\n        /* \"#utility.yul\":4016:4032   */\n      add\n        /* \"#utility.yul\":4065:4068   */\n      dup5\n        /* \"#utility.yul\":4056:4062   */\n      dup5\n        /* \"#utility.yul\":4051:4054   */\n      dup5\n        /* \"#utility.yul\":4047:4063   */\n      add\n        /* \"#utility.yul\":4044:4069   */\n      gt\n        /* \"#utility.yul\":4041:4153   */\n      iszero\n      tag_203\n      jumpi\n        /* \"#utility.yul\":4072:4151   */\n      tag_204\n      tag_133\n      jump\t// in\n    tag_204:\n        /* \"#utility.yul\":4041:4153   */\n    tag_203:\n        /* \"#utility.yul\":4162:4203   */\n      tag_205\n        /* \"#utility.yul\":4196:4202   */\n      dup5\n        /* \"#utility.yul\":4191:4194   */\n      dup3\n        /* \"#utility.yul\":4186:4189   */\n      dup6\n        /* \"#utility.yul\":4162:4203   */\n      tag_139\n      jump\t// in\n    tag_205:\n        /* \"#utility.yul\":3881:4209   */\n      pop\n        /* \"#utility.yul\":3797:4209   */\n      swap4\n      swap3\n      pop\n      pop\n      pop\n      jump\t// out\n        /* \"#utility.yul\":4229:4569   */\n    tag_141:\n        /* \"#utility.yul\":4285:4290   */\n      0x00\n        /* \"#utility.yul\":4334:4337   */\n      dup3\n        /* \"#utility.yul\":4327:4331   */\n      0x1f\n        /* \"#utility.yul\":4319:4325   */\n      dup4\n        /* \"#utility.yul\":4315:4332   */\n      add\n        /* \"#utility.yul\":4311:4338   */\n      slt\n        /* \"#utility.yul\":4301:4423   */\n      tag_207\n      jumpi\n        /* \"#utility.yul\":4342:4421   */\n      tag_208\n      tag_127\n      jump\t// in\n    tag_208:\n        /* \"#utility.yul\":4301:4423   */\n    tag_207:\n        /* \"#utility.yul\":4459:4465   */\n      dup2\n        /* \"#utility.yul\":4446:4466   */\n      calldataload\n        /* \"#utility.yul\":4484:4563   */\n      tag_209\n        /* \"#utility.yul\":4559:4562   */\n      dup5\n        /* \"#utility.yul\":4551:4557   */\n      dup3\n        /* \"#utility.yul\":4544:4548   */\n      0x20\n        /* \"#utility.yul\":4536:4542   */\n      dup7\n        /* \"#utility.yul\":4532:4549   */\n      add\n        /* \"#utility.yul\":4484:4563   */\n      tag_140\n      jump\t// in\n    tag_209:\n        /* \"#utility.yul\":4475:4563   */\n      swap2\n      pop\n        /* \"#utility.yul\":4291:4569   */\n      pop\n        /* \"#utility.yul\":4229:4569   */\n      swap3\n      swap2\n      pop\n      pop\n      jump\t// out\n        /* \"#utility.yul\":4575:5720   */\n    tag_25:\n        /* \"#utility.yul\":4683:4689   */\n      0x00\n        /* \"#utility.yul\":4691:4697   */\n      dup1\n        /* \"#utility.yul\":4699:4705   */\n      0x00\n        /* \"#utility.yul\":4707:4713   */\n      dup1\n        /* \"#utility.yul\":4715:4721   */\n      0x00\n        /* \"#utility.yul\":4764:4767   */\n      0x80\n        /* \"#utility.yul\":4752:4761   */\n      dup7\n        /* \"#utility.yul\":4743:4750   */\n      dup9\n        /* \"#utility.yul\":4739:4762   */\n      sub\n        /* \"#utility.yul\":4735:4768   */\n      slt\n        /* \"#utility.yul\":4732:4852   */\n      iszero\n      tag_211\n      jumpi\n        /* \"#utility.yul\":4771:4850   */\n      tag_212\n      tag_125\n      jump\t// in\n    tag_212:\n        /* \"#utility.yul\":4732:4852   */\n    tag_211:\n        /* \"#utility.yul\":4919:4920   */\n      0x00\n        /* \"#utility.yul\":4908:4917   */\n      dup7\n        /* \"#utility.yul\":4904:4921   */\n      add\n        /* \"#utility.yul\":4891:4922   */\n      calldataload\n        /* \"#utility.yul\":4949:4967   */\n      0xffffffffffffffff\n        /* \"#utility.yul\":4941:4947   */\n      dup2\n        /* \"#utility.yul\":4938:4968   */\n      gt\n        /* \"#utility.yul\":4935:5052   */\n      iszero\n      tag_213\n      jumpi\n        /* \"#utility.yul\":4971:5050   */\n      tag_214\n      tag_126\n      jump\t// in\n    tag_214:\n        /* \"#utility.yul\":4935:5052   */\n    tag_213:\n        /* \"#utility.yul\":5084:5149   */\n      tag_215\n        /* \"#utility.yul\":5141:5148   */\n      dup9\n        /* \"#utility.yul\":5132:5138   */\n      dup3\n        /* \"#utility.yul\":5121:5130   */\n      dup10\n        /* \"#utility.yul\":5117:5139   */\n      add\n        /* \"#utility.yul\":5084:5149   */\n      tag_130\n      jump\t// in\n    tag_215:\n        /* \"#utility.yul\":5066:5149   */\n      swap6\n      pop\n      swap6\n      pop\n        /* \"#utility.yul\":4862:5159   */\n      pop\n        /* \"#utility.yul\":5198:5200   */\n      0x20\n        /* \"#utility.yul\":5224:5277   */\n      tag_216\n        /* \"#utility.yul\":5269:5276   */\n      dup9\n        /* \"#utility.yul\":5260:5266   */\n      dup3\n        /* \"#utility.yul\":5249:5258   */\n      dup10\n        /* \"#utility.yul\":5245:5267   */\n      add\n        /* \"#utility.yul\":5224:5277   */\n      tag_132\n      jump\t// in\n    tag_216:\n        /* \"#utility.yul\":5214:5277   */\n      swap4\n      pop\n        /* \"#utility.yul\":5169:5287   */\n      pop\n        /* \"#utility.yul\":5326:5328   */\n      0x40\n        /* \"#utility.yul\":5352:5405   */\n      tag_217\n        /* \"#utility.yul\":5397:5404   */\n      dup9\n        /* \"#utility.yul\":5388:5394   */\n      dup3\n        /* \"#utility.yul\":5377:5386   */\n      dup10\n        /* \"#utility.yul\":5373:5395   */\n      add\n        /* \"#utility.yul\":5352:5405   */\n      tag_132\n      jump\t// in\n    tag_217:\n        /* \"#utility.yul\":5342:5405   */\n      swap3\n      pop\n        /* \"#utility.yul\":5297:5415   */\n      pop\n        /* \"#utility.yul\":5482:5484   */\n      0x60\n        /* \"#utility.yul\":5471:5480   */\n      dup7\n        /* \"#utility.yul\":5467:5485   */\n      add\n        /* \"#utility.yul\":5454:5486   */\n      calldataload\n        /* \"#utility.yul\":5513:5531   */\n      0xffffffffffffffff\n        /* \"#utility.yul\":5505:5511   */\n      dup2\n        /* \"#utility.yul\":5502:5532   */\n      gt\n        /* \"#utility.yul\":5499:5616   */\n      iszero\n      tag_218\n      jumpi\n        /* \"#utility.yul\":5535:5614   */\n      tag_219\n      tag_126\n      jump\t// in\n    tag_219:\n        /* \"#utility.yul\":5499:5616   */\n    tag_218:\n        /* \"#utility.yul\":5640:5703   */\n      tag_220\n        /* \"#utility.yul\":5695:5702   */\n      dup9\n        /* \"#utility.yul\":5686:5692   */\n      dup3\n        /* \"#utility.yul\":5675:5684   */\n      dup10\n        /* \"#utility.yul\":5671:5693   */\n      add\n        /* \"#utility.yul\":5640:5703   */\n      tag_141\n      jump\t// in\n    tag_220:\n        /* \"#utility.yul\":5630:5703   */\n      swap2\n      pop\n        /* \"#utility.yul\":5425:5713   */\n      pop\n        /* \"#utility.yul\":4575:5720   */\n      swap3\n      swap6\n      pop\n      swap3\n      swap6\n      swap1\n      swap4\n      pop\n      jump\t// out\n        /* \"#utility.yul\":5726:5834   */\n    tag_142:\n        /* \"#utility.yul\":5803:5827   */\n      tag_222\n        /* \"#utility.yul\":5821:5826   */\n      dup2\n        /* \"#utility.yul\":5803:5827   */\n      tag_120\n      jump\t// in\n    tag_222:\n        /* \"#utility.yul\":5798:5801   */\n      dup3\n        /* \"#utility.yul\":5791:5828   */\n      mstore\n        /* \"#utility.yul\":5726:5834   */\n      pop\n      pop\n      jump\t// out\n        /* \"#utility.yul\":5840:5939   */\n    tag_143:\n        /* \"#utility.yul\":5892:5898   */\n      0x00\n        /* \"#utility.yul\":5926:5931   */\n      dup2\n        /* \"#utility.yul\":5920:5932   */\n      mload\n        /* \"#utility.yul\":5910:5932   */\n      swap1\n      pop\n        /* \"#utility.yul\":5840:5939   */\n      swap2\n      swap1\n      pop\n      jump\t// out\n        /* \"#utility.yul\":5945:6104   */\n    tag_144:\n        /* \"#utility.yul\":6019:6030   */\n      0x00\n        /* \"#utility.yul\":6053:6059   */\n      dup3\n        /* \"#utility.yul\":6048:6051   */\n      dup3\n        /* \"#utility.yul\":6041:6060   */\n      mstore\n        /* \"#utility.yul\":6093:6097   */\n      0x20\n        /* \"#utility.yul\":6088:6091   */\n      dup3\n        /* \"#utility.yul\":6084:6098   */\n      add\n        /* \"#utility.yul\":6069:6098   */\n      swap1\n      pop\n        /* \"#utility.yul\":5945:6104   */\n      swap3\n      swap2\n      pop\n      pop\n      jump\t// out\n        /* \"#utility.yul\":6110:6417   */\n    tag_145:\n        /* \"#utility.yul\":6178:6179   */\n      0x00\n        /* \"#utility.yul\":6188:6301   */\n    tag_226:\n        /* \"#utility.yul\":6202:6208   */\n      dup4\n        /* \"#utility.yul\":6199:6200   */\n      dup2\n        /* \"#utility.yul\":6196:6209   */\n      lt\n        /* \"#utility.yul\":6188:6301   */\n      iszero\n      tag_228\n      jumpi\n        /* \"#utility.yul\":6287:6288   */\n      dup1\n        /* \"#utility.yul\":6282:6285   */\n      dup3\n        /* \"#utility.yul\":6278:6289   */\n      add\n        /* \"#utility.yul\":6272:6290   */\n      mload\n        /* \"#utility.yul\":6268:6269   */\n      dup2\n        /* \"#utility.yul\":6263:6266   */\n      dup5\n        /* \"#utility.yul\":6259:6270   */\n      add\n        /* \"#utility.yul\":6252:6291   */\n      mstore\n        /* \"#utility.yul\":6224:6226   */\n      0x20\n        /* \"#utility.yul\":6221:6222   */\n      dup2\n        /* \"#utility.yul\":6217:6227   */\n      add\n        /* \"#utility.yul\":6212:6227   */\n      swap1\n      pop\n        /* \"#utility.yul\":6188:6301   */\n      jump(tag_226)\n    tag_228:\n        /* \"#utility.yul\":6319:6325   */\n      dup4\n        /* \"#utility.yul\":6316:6317   */\n      dup2\n        /* \"#utility.yul\":6313:6326   */\n      gt\n        /* \"#utility.yul\":6310:6411   */\n      iszero\n      tag_229\n      jumpi\n        /* \"#utility.yul\":6399:6400   */\n      0x00\n        /* \"#utility.yul\":6390:6396   */\n      dup5\n        /* \"#utility.yul\":6385:6388   */\n      dup5\n        /* \"#utility.yul\":6381:6397   */\n      add\n        /* \"#utility.yul\":6374:6401   */\n      mstore\n        /* \"#utility.yul\":6310:6411   */\n    tag_229:\n        /* \"#utility.yul\":6159:6417   */\n      pop\n        /* \"#utility.yul\":6110:6417   */\n      pop\n      pop\n      pop\n      jump\t// out\n        /* \"#utility.yul\":6423:6767   */\n    tag_146:\n        /* \"#utility.yul\":6501:6504   */\n      0x00\n        /* \"#utility.yul\":6529:6568   */\n      tag_231\n        /* \"#utility.yul\":6562:6567   */\n      dup3\n        /* \"#utility.yul\":6529:6568   */\n      tag_143\n      jump\t// in\n    tag_231:\n        /* \"#utility.yul\":6584:6645   */\n      tag_232\n        /* \"#utility.yul\":6638:6644   */\n      dup2\n        /* \"#utility.yul\":6633:6636   */\n      dup6\n        /* \"#utility.yul\":6584:6645   */\n      tag_144\n      jump\t// in\n    tag_232:\n        /* \"#utility.yul\":6577:6645   */\n      swap4\n      pop\n        /* \"#utility.yul\":6654:6706   */\n      tag_233\n        /* \"#utility.yul\":6699:6705   */\n      dup2\n        /* \"#utility.yul\":6694:6697   */\n      dup6\n        /* \"#utility.yul\":6687:6691   */\n      0x20\n        /* \"#utility.yul\":6680:6685   */\n      dup7\n        /* \"#utility.yul\":6676:6692   */\n      add\n        /* \"#utility.yul\":6654:6706   */\n      tag_145\n      jump\t// in\n    tag_233:\n        /* \"#utility.yul\":6731:6760   */\n      tag_234\n        /* \"#utility.yul\":6753:6759   */\n      dup2\n        /* \"#utility.yul\":6731:6760   */\n      tag_134\n      jump\t// in\n    tag_234:\n        /* \"#utility.yul\":6726:6729   */\n      dup5\n        /* \"#utility.yul\":6722:6761   */\n      add\n        /* \"#utility.yul\":6715:6761   */\n      swap2\n      pop\n        /* \"#utility.yul\":6505:6767   */\n      pop\n        /* \"#utility.yul\":6423:6767   */\n      swap3\n      swap2\n      pop\n      pop\n      jump\t// out\n        /* \"#utility.yul\":6839:7869   */\n    tag_147:\n        /* \"#utility.yul\":6952:6955   */\n      0x00\n        /* \"#utility.yul\":6988:6992   */\n      0x80\n        /* \"#utility.yul\":6983:6986   */\n      dup4\n        /* \"#utility.yul\":6979:6993   */\n      add\n        /* \"#utility.yul\":7085:7089   */\n      0x00\n        /* \"#utility.yul\":7078:7083   */\n      dup4\n        /* \"#utility.yul\":7074:7090   */\n      add\n        /* \"#utility.yul\":7068:7091   */\n      mload\n        /* \"#utility.yul\":7104:7167   */\n      tag_236\n        /* \"#utility.yul\":7161:7165   */\n      0x00\n        /* \"#utility.yul\":7156:7159   */\n      dup7\n        /* \"#utility.yul\":7152:7166   */\n      add\n        /* \"#utility.yul\":7138:7150   */\n      dup3\n        /* \"#utility.yul\":7104:7167   */\n      tag_142\n      jump\t// in\n    tag_236:\n        /* \"#utility.yul\":7003:7177   */\n      pop\n        /* \"#utility.yul\":7259:7263   */\n      0x20\n        /* \"#utility.yul\":7252:7257   */\n      dup4\n        /* \"#utility.yul\":7248:7264   */\n      add\n        /* \"#utility.yul\":7242:7265   */\n      mload\n        /* \"#utility.yul\":7312:7315   */\n      dup5\n        /* \"#utility.yul\":7306:7310   */\n      dup3\n        /* \"#utility.yul\":7302:7316   */\n      sub\n        /* \"#utility.yul\":7295:7299   */\n      0x20\n        /* \"#utility.yul\":7290:7293   */\n      dup7\n        /* \"#utility.yul\":7286:7300   */\n      add\n        /* \"#utility.yul\":7279:7317   */\n      mstore\n        /* \"#utility.yul\":7338:7411   */\n      tag_237\n        /* \"#utility.yul\":7406:7410   */\n      dup3\n        /* \"#utility.yul\":7392:7404   */\n      dup3\n        /* \"#utility.yul\":7338:7411   */\n      tag_146\n      jump\t// in\n    tag_237:\n        /* \"#utility.yul\":7330:7411   */\n      swap2\n      pop\n        /* \"#utility.yul\":7187:7422   */\n      pop\n        /* \"#utility.yul\":7503:7507   */\n      0x40\n        /* \"#utility.yul\":7496:7501   */\n      dup4\n        /* \"#utility.yul\":7492:7508   */\n      add\n        /* \"#utility.yul\":7486:7509   */\n      mload\n        /* \"#utility.yul\":7522:7585   */\n      tag_238\n        /* \"#utility.yul\":7579:7583   */\n      0x40\n        /* \"#utility.yul\":7574:7577   */\n      dup7\n        /* \"#utility.yul\":7570:7584   */\n      add\n        /* \"#utility.yul\":7556:7568   */\n      dup3\n        /* \"#utility.yul\":7522:7585   */\n      tag_142\n      jump\t// in\n    tag_238:\n        /* \"#utility.yul\":7432:7595   */\n      pop\n        /* \"#utility.yul\":7679:7683   */\n      0x60\n        /* \"#utility.yul\":7672:7677   */\n      dup4\n        /* \"#utility.yul\":7668:7684   */\n      add\n        /* \"#utility.yul\":7662:7685   */\n      mload\n        /* \"#utility.yul\":7732:7735   */\n      dup5\n        /* \"#utility.yul\":7726:7730   */\n      dup3\n        /* \"#utility.yul\":7722:7736   */\n      sub\n        /* \"#utility.yul\":7715:7719   */\n      0x60\n        /* \"#utility.yul\":7710:7713   */\n      dup7\n        /* \"#utility.yul\":7706:7720   */\n      add\n        /* \"#utility.yul\":7699:7737   */\n      mstore\n        /* \"#utility.yul\":7758:7831   */\n      tag_239\n        /* \"#utility.yul\":7826:7830   */\n      dup3\n        /* \"#utility.yul\":7812:7824   */\n      dup3\n        /* \"#utility.yul\":7758:7831   */\n      tag_146\n      jump\t// in\n    tag_239:\n        /* \"#utility.yul\":7750:7831   */\n      swap2\n      pop\n        /* \"#utility.yul\":7605:7842   */\n      pop\n        /* \"#utility.yul\":7859:7863   */\n      dup1\n        /* \"#utility.yul\":7852:7863   */\n      swap2\n      pop\n        /* \"#utility.yul\":6957:7869   */\n      pop\n        /* \"#utility.yul\":6839:7869   */\n      swap3\n      swap2\n      pop\n      pop\n      jump\t// out\n        /* \"#utility.yul\":7875:8236   */\n    tag_28:\n        /* \"#utility.yul\":8012:8016   */\n      0x00\n        /* \"#utility.yul\":8050:8052   */\n      0x20\n        /* \"#utility.yul\":8039:8048   */\n      dup3\n        /* \"#utility.yul\":8035:8053   */\n      add\n        /* \"#utility.yul\":8027:8053   */\n      swap1\n      pop\n        /* \"#utility.yul\":8099:8108   */\n      dup2\n        /* \"#utility.yul\":8093:8097   */\n      dup2\n        /* \"#utility.yul\":8089:8109   */\n      sub\n        /* \"#utility.yul\":8085:8086   */\n      0x00\n        /* \"#utility.yul\":8074:8083   */\n      dup4\n        /* \"#utility.yul\":8070:8087   */\n      add\n        /* \"#utility.yul\":8063:8110   */\n      mstore\n        /* \"#utility.yul\":8127:8229   */\n      tag_241\n        /* \"#utility.yul\":8224:8228   */\n      dup2\n        /* \"#utility.yul\":8215:8221   */\n      dup5\n        /* \"#utility.yul\":8127:8229   */\n      tag_147\n      jump\t// in\n    tag_241:\n        /* \"#utility.yul\":8119:8229   */\n      swap1\n      pop\n        /* \"#utility.yul\":7875:8236   */\n      swap3\n      swap2\n      pop\n      pop\n      jump\t// out\n        /* \"#utility.yul\":8242:8771   */\n    tag_31:\n        /* \"#utility.yul\":8313:8319   */\n      0x00\n        /* \"#utility.yul\":8321:8327   */\n      dup1\n        /* \"#utility.yul\":8370:8372   */\n      0x20\n        /* \"#utility.yul\":8358:8367   */\n      dup4\n        /* \"#utility.yul\":8349:8356   */\n      dup6\n        /* \"#utility.yul\":8345:8368   */\n      sub\n        /* \"#utility.yul\":8341:8373   */\n      slt\n        /* \"#utility.yul\":8338:8457   */\n      iszero\n      tag_243\n      jumpi\n        /* \"#utility.yul\":8376:8455   */\n      tag_244\n      tag_125\n      jump\t// in\n    tag_244:\n        /* \"#utility.yul\":8338:8457   */\n    tag_243:\n        /* \"#utility.yul\":8524:8525   */\n      0x00\n        /* \"#utility.yul\":8513:8522   */\n      dup4\n        /* \"#utility.yul\":8509:8526   */\n      add\n        /* \"#utility.yul\":8496:8527   */\n      calldataload\n        /* \"#utility.yul\":8554:8572   */\n      0xffffffffffffffff\n        /* \"#utility.yul\":8546:8552   */\n      dup2\n        /* \"#utility.yul\":8543:8573   */\n      gt\n        /* \"#utility.yul\":8540:8657   */\n      iszero\n      tag_245\n      jumpi\n        /* \"#utility.yul\":8576:8655   */\n      tag_246\n      tag_126\n      jump\t// in\n    tag_246:\n        /* \"#utility.yul\":8540:8657   */\n    tag_245:\n        /* \"#utility.yul\":8689:8754   */\n      tag_247\n        /* \"#utility.yul\":8746:8753   */\n      dup6\n        /* \"#utility.yul\":8737:8743   */\n      dup3\n        /* \"#utility.yul\":8726:8735   */\n      dup7\n        /* \"#utility.yul\":8722:8744   */\n      add\n        /* \"#utility.yul\":8689:8754   */\n      tag_130\n      jump\t// in\n    tag_247:\n        /* \"#utility.yul\":8671:8754   */\n      swap3\n      pop\n      swap3\n      pop\n        /* \"#utility.yul\":8467:8764   */\n      pop\n        /* \"#utility.yul\":8242:8771   */\n      swap3\n      pop\n      swap3\n      swap1\n      pop\n      jump\t// out\n        /* \"#utility.yul\":8777:8894   */\n    tag_148:\n        /* \"#utility.yul\":8886:8887   */\n      0x00\n        /* \"#utility.yul\":8883:8884   */\n      dup1\n        /* \"#utility.yul\":8876:8888   */\n      revert\n        /* \"#utility.yul\":8900:9017   */\n    tag_149:\n        /* \"#utility.yul\":9009:9010   */\n      0x00\n        /* \"#utility.yul\":9006:9007   */\n      dup1\n        /* \"#utility.yul\":8999:9011   */\n      revert\n        /* \"#utility.yul\":9058:10302   */\n    tag_150:\n        /* \"#utility.yul\":9129:9134   */\n      0x00\n        /* \"#utility.yul\":9173:9177   */\n      0x80\n        /* \"#utility.yul\":9161:9170   */\n      dup3\n        /* \"#utility.yul\":9156:9159   */\n      dup5\n        /* \"#utility.yul\":9152:9171   */\n      sub\n        /* \"#utility.yul\":9148:9178   */\n      slt\n        /* \"#utility.yul\":9145:9262   */\n      iszero\n      tag_251\n      jumpi\n        /* \"#utility.yul\":9181:9260   */\n      tag_252\n      tag_148\n      jump\t// in\n    tag_252:\n        /* \"#utility.yul\":9145:9262   */\n    tag_251:\n        /* \"#utility.yul\":9280:9301   */\n      tag_253\n        /* \"#utility.yul\":9296:9300   */\n      0x80\n        /* \"#utility.yul\":9280:9301   */\n      tag_137\n      jump\t// in\n    tag_253:\n        /* \"#utility.yul\":9271:9301   */\n      swap1\n      pop\n        /* \"#utility.yul\":9370:9371   */\n      0x00\n        /* \"#utility.yul\":9410:9459   */\n      tag_254\n        /* \"#utility.yul\":9455:9458   */\n      dup5\n        /* \"#utility.yul\":9446:9452   */\n      dup3\n        /* \"#utility.yul\":9435:9444   */\n      dup6\n        /* \"#utility.yul\":9431:9453   */\n      add\n        /* \"#utility.yul\":9410:9459   */\n      tag_132\n      jump\t// in\n    tag_254:\n        /* \"#utility.yul\":9403:9407   */\n      0x00\n        /* \"#utility.yul\":9396:9401   */\n      dup4\n        /* \"#utility.yul\":9392:9408   */\n      add\n        /* \"#utility.yul\":9385:9460   */\n      mstore\n        /* \"#utility.yul\":9311:9471   */\n      pop\n        /* \"#utility.yul\":9558:9560   */\n      0x20\n        /* \"#utility.yul\":9547:9556   */\n      dup3\n        /* \"#utility.yul\":9543:9561   */\n      add\n        /* \"#utility.yul\":9530:9562   */\n      calldataload\n        /* \"#utility.yul\":9589:9607   */\n      0xffffffffffffffff\n        /* \"#utility.yul\":9581:9587   */\n      dup2\n        /* \"#utility.yul\":9578:9608   */\n      gt\n        /* \"#utility.yul\":9575:9692   */\n      iszero\n      tag_255\n      jumpi\n        /* \"#utility.yul\":9611:9690   */\n      tag_256\n      tag_149\n      jump\t// in\n    tag_256:\n        /* \"#utility.yul\":9575:9692   */\n    tag_255:\n        /* \"#utility.yul\":9731:9790   */\n      tag_257\n        /* \"#utility.yul\":9786:9789   */\n      dup5\n        /* \"#utility.yul\":9777:9783   */\n      dup3\n        /* \"#utility.yul\":9766:9775   */\n      dup6\n        /* \"#utility.yul\":9762:9784   */\n      add\n        /* \"#utility.yul\":9731:9790   */\n      tag_141\n      jump\t// in\n    tag_257:\n        /* \"#utility.yul\":9724:9728   */\n      0x20\n        /* \"#utility.yul\":9717:9722   */\n      dup4\n        /* \"#utility.yul\":9713:9729   */\n      add\n        /* \"#utility.yul\":9706:9791   */\n      mstore\n        /* \"#utility.yul\":9481:9802   */\n      pop\n        /* \"#utility.yul\":9860:9862   */\n      0x40\n        /* \"#utility.yul\":9901:9950   */\n      tag_258\n        /* \"#utility.yul\":9946:9949   */\n      dup5\n        /* \"#utility.yul\":9937:9943   */\n      dup3\n        /* \"#utility.yul\":9926:9935   */\n      dup6\n        /* \"#utility.yul\":9922:9944   */\n      add\n        /* \"#utility.yul\":9901:9950   */\n      tag_132\n      jump\t// in\n    tag_258:\n        /* \"#utility.yul\":9894:9898   */\n      0x40\n        /* \"#utility.yul\":9887:9892   */\n      dup4\n        /* \"#utility.yul\":9883:9899   */\n      add\n        /* \"#utility.yul\":9876:9951   */\n      mstore\n        /* \"#utility.yul\":9812:9962   */\n      pop\n        /* \"#utility.yul\":10051:10053   */\n      0x60\n        /* \"#utility.yul\":10040:10049   */\n      dup3\n        /* \"#utility.yul\":10036:10054   */\n      add\n        /* \"#utility.yul\":10023:10055   */\n      calldataload\n        /* \"#utility.yul\":10082:10100   */\n      0xffffffffffffffff\n        /* \"#utility.yul\":10074:10080   */\n      dup2\n        /* \"#utility.yul\":10071:10101   */\n      gt\n        /* \"#utility.yul\":10068:10185   */\n      iszero\n      tag_259\n      jumpi\n        /* \"#utility.yul\":10104:10183   */\n      tag_260\n      tag_149\n      jump\t// in\n    tag_260:\n        /* \"#utility.yul\":10068:10185   */\n    tag_259:\n        /* \"#utility.yul\":10224:10283   */\n      tag_261\n        /* \"#utility.yul\":10279:10282   */\n      dup5\n        /* \"#utility.yul\":10270:10276   */\n      dup3\n        /* \"#utility.yul\":10259:10268   */\n      dup6\n        /* \"#utility.yul\":10255:10277   */\n      add\n        /* \"#utility.yul\":10224:10283   */\n      tag_141\n      jump\t// in\n    tag_261:\n        /* \"#utility.yul\":10217:10221   */\n      0x60\n        /* \"#utility.yul\":10210:10215   */\n      dup4\n        /* \"#utility.yul\":10206:10222   */\n      add\n        /* \"#utility.yul\":10199:10284   */\n      mstore\n        /* \"#utility.yul\":9972:10295   */\n      pop\n        /* \"#utility.yul\":9058:10302   */\n      swap3\n      swap2\n      pop\n      pop\n      jump\t// out\n        /* \"#utility.yul\":10308:10841   */\n    tag_35:\n        /* \"#utility.yul\":10389:10395   */\n      0x00\n        /* \"#utility.yul\":10438:10440   */\n      0x20\n        /* \"#utility.yul\":10426:10435   */\n      dup3\n        /* \"#utility.yul\":10417:10424   */\n      dup5\n        /* \"#utility.yul\":10413:10436   */\n      sub\n        /* \"#utility.yul\":10409:10441   */\n      slt\n        /* \"#utility.yul\":10406:10525   */\n      iszero\n      tag_263\n      jumpi\n        /* \"#utility.yul\":10444:10523   */\n      tag_264\n      tag_125\n      jump\t// in\n    tag_264:\n        /* \"#utility.yul\":10406:10525   */\n    tag_263:\n        /* \"#utility.yul\":10592:10593   */\n      0x00\n        /* \"#utility.yul\":10581:10590   */\n      dup3\n        /* \"#utility.yul\":10577:10594   */\n      add\n        /* \"#utility.yul\":10564:10595   */\n      calldataload\n        /* \"#utility.yul\":10622:10640   */\n      0xffffffffffffffff\n        /* \"#utility.yul\":10614:10620   */\n      dup2\n        /* \"#utility.yul\":10611:10641   */\n      gt\n        /* \"#utility.yul\":10608:10725   */\n      iszero\n      tag_265\n      jumpi\n        /* \"#utility.yul\":10644:10723   */\n      tag_266\n      tag_126\n      jump\t// in\n    tag_266:\n        /* \"#utility.yul\":10608:10725   */\n    tag_265:\n        /* \"#utility.yul\":10749:10824   */\n      tag_267\n        /* \"#utility.yul\":10816:10823   */\n      dup5\n        /* \"#utility.yul\":10807:10813   */\n      dup3\n        /* \"#utility.yul\":10796:10805   */\n      dup6\n        /* \"#utility.yul\":10792:10814   */\n      add\n        /* \"#utility.yul\":10749:10824   */\n      tag_150\n      jump\t// in\n    tag_267:\n        /* \"#utility.yul\":10739:10824   */\n      swap2\n      pop\n        /* \"#utility.yul\":10535:10834   */\n      pop\n        /* \"#utility.yul\":10308:10841   */\n      swap3\n      swap2\n      pop\n      pop\n      jump\t// out\n        /* \"#utility.yul\":10847:11176   */\n    tag_40:\n        /* \"#utility.yul\":10906:10912   */\n      0x00\n        /* \"#utility.yul\":10955:10957   */\n      0x20\n        /* \"#utility.yul\":10943:10952   */\n      dup3\n        /* \"#utility.yul\":10934:10941   */\n      dup5\n        /* \"#utility.yul\":10930:10953   */\n      sub\n        /* \"#utility.yul\":10926:10958   */\n      slt\n        /* \"#utility.yul\":10923:11042   */\n      iszero\n      tag_269\n      jumpi\n        /* \"#utility.yul\":10961:11040   */\n      tag_270\n      tag_125\n      jump\t// in\n    tag_270:\n        /* \"#utility.yul\":10923:11042   */\n    tag_269:\n        /* \"#utility.yul\":11081:11082   */\n      0x00\n        /* \"#utility.yul\":11106:11159   */\n      tag_271\n        /* \"#utility.yul\":11151:11158   */\n      dup5\n        /* \"#utility.yul\":11142:11148   */\n      dup3\n        /* \"#utility.yul\":11131:11140   */\n      dup6\n        /* \"#utility.yul\":11127:11149   */\n      add\n        /* \"#utility.yul\":11106:11159   */\n      tag_132\n      jump\t// in\n    tag_271:\n        /* \"#utility.yul\":11096:11159   */\n      swap2\n      pop\n        /* \"#utility.yul\":11052:11169   */\n      pop\n        /* \"#utility.yul\":10847:11176   */\n      swap3\n      swap2\n      pop\n      pop\n      jump\t// out\n        /* \"#utility.yul\":11182:11691   */\n    tag_44:\n        /* \"#utility.yul\":11251:11257   */\n      0x00\n        /* \"#utility.yul\":11300:11302   */\n      0x20\n        /* \"#utility.yul\":11288:11297   */\n      dup3\n        /* \"#utility.yul\":11279:11286   */\n      dup5\n        /* \"#utility.yul\":11275:11298   */\n      sub\n        /* \"#utility.yul\":11271:11303   */\n      slt\n        /* \"#utility.yul\":11268:11387   */\n      iszero\n      tag_273\n      jumpi\n        /* \"#utility.yul\":11306:11385   */\n      tag_274\n      tag_125\n      jump\t// in\n    tag_274:\n        /* \"#utility.yul\":11268:11387   */\n    tag_273:\n        /* \"#utility.yul\":11454:11455   */\n      0x00\n        /* \"#utility.yul\":11443:11452   */\n      dup3\n        /* \"#utility.yul\":11439:11456   */\n      add\n        /* \"#utility.yul\":11426:11457   */\n      calldataload\n        /* \"#utility.yul\":11484:11502   */\n      0xffffffffffffffff\n        /* \"#utility.yul\":11476:11482   */\n      dup2\n        /* \"#utility.yul\":11473:11503   */\n      gt\n        /* \"#utility.yul\":11470:11587   */\n      iszero\n      tag_275\n      jumpi\n        /* \"#utility.yul\":11506:11585   */\n      tag_276\n      tag_126\n      jump\t// in\n    tag_276:\n        /* \"#utility.yul\":11470:11587   */\n    tag_275:\n        /* \"#utility.yul\":11611:11674   */\n      tag_277\n        /* \"#utility.yul\":11666:11673   */\n      dup5\n        /* \"#utility.yul\":11657:11663   */\n      dup3\n        /* \"#utility.yul\":11646:11655   */\n      dup6\n        /* \"#utility.yul\":11642:11664   */\n      add\n        /* \"#utility.yul\":11611:11674   */\n      tag_141\n      jump\t// in\n    tag_277:\n        /* \"#utility.yul\":11601:11674   */\n      swap2\n      pop\n        /* \"#utility.yul\":11397:11684   */\n      pop\n        /* \"#utility.yul\":11182:11691   */\n      swap3\n      swap2\n      pop\n      pop\n      jump\t// out\n        /* \"#utility.yul\":11697:11866   */\n    tag_151:\n        /* \"#utility.yul\":11781:11792   */\n      0x00\n        /* \"#utility.yul\":11815:11821   */\n      dup3\n        /* \"#utility.yul\":11810:11813   */\n      dup3\n        /* \"#utility.yul\":11803:11822   */\n      mstore\n        /* \"#utility.yul\":11855:11859   */\n      0x20\n        /* \"#utility.yul\":11850:11853   */\n      dup3\n        /* \"#utility.yul\":11846:11860   */\n      add\n        /* \"#utility.yul\":11831:11860   */\n      swap1\n      pop\n        /* \"#utility.yul\":11697:11866   */\n      swap3\n      swap2\n      pop\n      pop\n      jump\t// out\n        /* \"#utility.yul\":11872:12236   */\n    tag_152:\n        /* \"#utility.yul\":11960:11963   */\n      0x00\n        /* \"#utility.yul\":11988:12027   */\n      tag_280\n        /* \"#utility.yul\":12021:12026   */\n      dup3\n        /* \"#utility.yul\":11988:12027   */\n      tag_143\n      jump\t// in\n    tag_280:\n        /* \"#utility.yul\":12043:12114   */\n      tag_281\n        /* \"#utility.yul\":12107:12113   */\n      dup2\n        /* \"#utility.yul\":12102:12105   */\n      dup6\n        /* \"#utility.yul\":12043:12114   */\n      tag_151\n      jump\t// in\n    tag_281:\n        /* \"#utility.yul\":12036:12114   */\n      swap4\n      pop\n        /* \"#utility.yul\":12123:12175   */\n      tag_282\n        /* \"#utility.yul\":12168:12174   */\n      dup2\n        /* \"#utility.yul\":12163:12166   */\n      dup6\n        /* \"#utility.yul\":12156:12160   */\n      0x20\n        /* \"#utility.yul\":12149:12154   */\n      dup7\n        /* \"#utility.yul\":12145:12161   */\n      add\n        /* \"#utility.yul\":12123:12175   */\n      tag_145\n      jump\t// in\n    tag_282:\n        /* \"#utility.yul\":12200:12229   */\n      tag_283\n        /* \"#utility.yul\":12222:12228   */\n      dup2\n        /* \"#utility.yul\":12200:12229   */\n      tag_134\n      jump\t// in\n    tag_283:\n        /* \"#utility.yul\":12195:12198   */\n      dup5\n        /* \"#utility.yul\":12191:12230   */\n      add\n        /* \"#utility.yul\":12184:12230   */\n      swap2\n      pop\n        /* \"#utility.yul\":11964:12236   */\n      pop\n        /* \"#utility.yul\":11872:12236   */\n      swap3\n      swap2\n      pop\n      pop\n      jump\t// out\n        /* \"#utility.yul\":12242:12977   */\n    tag_55:\n        /* \"#utility.yul\":12459:12463   */\n      0x00\n        /* \"#utility.yul\":12497:12500   */\n      0x80\n        /* \"#utility.yul\":12486:12495   */\n      dup3\n        /* \"#utility.yul\":12482:12501   */\n      add\n        /* \"#utility.yul\":12474:12501   */\n      swap1\n      pop\n        /* \"#utility.yul\":12511:12582   */\n      tag_285\n        /* \"#utility.yul\":12579:12580   */\n      0x00\n        /* \"#utility.yul\":12568:12577   */\n      dup4\n        /* \"#utility.yul\":12564:12581   */\n      add\n        /* \"#utility.yul\":12555:12561   */\n      dup8\n        /* \"#utility.yul\":12511:12582   */\n      tag_121\n      jump\t// in\n    tag_285:\n        /* \"#utility.yul\":12629:12638   */\n      dup2\n        /* \"#utility.yul\":12623:12627   */\n      dup2\n        /* \"#utility.yul\":12619:12639   */\n      sub\n        /* \"#utility.yul\":12614:12616   */\n      0x20\n        /* \"#utility.yul\":12603:12612   */\n      dup4\n        /* \"#utility.yul\":12599:12617   */\n      add\n        /* \"#utility.yul\":12592:12640   */\n      mstore\n        /* \"#utility.yul\":12657:12735   */\n      tag_286\n        /* \"#utility.yul\":12730:12734   */\n      dup2\n        /* \"#utility.yul\":12721:12727   */\n      dup7\n        /* \"#utility.yul\":12657:12735   */\n      tag_152\n      jump\t// in\n    tag_286:\n        /* \"#utility.yul\":12649:12735   */\n      swap1\n      pop\n        /* \"#utility.yul\":12745:12817   */\n      tag_287\n        /* \"#utility.yul\":12813:12815   */\n      0x40\n        /* \"#utility.yul\":12802:12811   */\n      dup4\n        /* \"#utility.yul\":12798:12816   */\n      add\n        /* \"#utility.yul\":12789:12795   */\n      dup6\n        /* \"#utility.yul\":12745:12817   */\n      tag_121\n      jump\t// in\n    tag_287:\n        /* \"#utility.yul\":12864:12873   */\n      dup2\n        /* \"#utility.yul\":12858:12862   */\n      dup2\n        /* \"#utility.yul\":12854:12874   */\n      sub\n        /* \"#utility.yul\":12849:12851   */\n      0x60\n        /* \"#utility.yul\":12838:12847   */\n      dup4\n        /* \"#utility.yul\":12834:12852   */\n      add\n        /* \"#utility.yul\":12827:12875   */\n      mstore\n        /* \"#utility.yul\":12892:12970   */\n      tag_288\n        /* \"#utility.yul\":12965:12969   */\n      dup2\n        /* \"#utility.yul\":12956:12962   */\n      dup5\n        /* \"#utility.yul\":12892:12970   */\n      tag_152\n      jump\t// in\n    tag_288:\n        /* \"#utility.yul\":12884:12970   */\n      swap1\n      pop\n        /* \"#utility.yul\":12242:12977   */\n      swap6\n      swap5\n      pop\n      pop\n      pop\n      pop\n      pop\n      jump\t// out\n        /* \"#utility.yul\":12983:13131   */\n    tag_153:\n        /* \"#utility.yul\":13085:13096   */\n      0x00\n        /* \"#utility.yul\":13122:13125   */\n      dup2\n        /* \"#utility.yul\":13107:13125   */\n      swap1\n      pop\n        /* \"#utility.yul\":12983:13131   */\n      swap3\n      swap2\n      pop\n      pop\n      jump\t// out\n        /* \"#utility.yul\":13161:13478   */\n    tag_154:\n        /* \"#utility.yul\":13277:13280   */\n      0x00\n        /* \"#utility.yul\":13298:13387   */\n      tag_291\n        /* \"#utility.yul\":13380:13386   */\n      dup4\n        /* \"#utility.yul\":13375:13378   */\n      dup6\n        /* \"#utility.yul\":13298:13387   */\n      tag_153\n      jump\t// in\n    tag_291:\n        /* \"#utility.yul\":13291:13387   */\n      swap4\n      pop\n        /* \"#utility.yul\":13397:13440   */\n      tag_292\n        /* \"#utility.yul\":13433:13439   */\n      dup4\n        /* \"#utility.yul\":13428:13431   */\n      dup6\n        /* \"#utility.yul\":13421:13426   */\n      dup5\n        /* \"#utility.yul\":13397:13440   */\n      tag_139\n      jump\t// in\n    tag_292:\n        /* \"#utility.yul\":13465:13471   */\n      dup3\n        /* \"#utility.yul\":13460:13463   */\n      dup5\n        /* \"#utility.yul\":13456:13472   */\n      add\n        /* \"#utility.yul\":13449:13472   */\n      swap1\n      pop\n        /* \"#utility.yul\":13161:13478   */\n      swap4\n      swap3\n      pop\n      pop\n      pop\n      jump\t// out\n        /* \"#utility.yul\":13484:13779   */\n    tag_71:\n        /* \"#utility.yul\":13626:13629   */\n      0x00\n        /* \"#utility.yul\":13648:13753   */\n      tag_294\n        /* \"#utility.yul\":13749:13752   */\n      dup3\n        /* \"#utility.yul\":13740:13746   */\n      dup5\n        /* \"#utility.yul\":13732:13738   */\n      dup7\n        /* \"#utility.yul\":13648:13753   */\n      tag_154\n      jump\t// in\n    tag_294:\n        /* \"#utility.yul\":13641:13753   */\n      swap2\n      pop\n        /* \"#utility.yul\":13770:13773   */\n      dup2\n        /* \"#utility.yul\":13763:13773   */\n      swap1\n      pop\n        /* \"#utility.yul\":13484:13779   */\n      swap4\n      swap3\n      pop\n      pop\n      pop\n      jump\t// out\n        /* \"#utility.yul\":13785:13965   */\n    tag_77:\n        /* \"#utility.yul\":13833:13910   */\n      0x4e487b7100000000000000000000000000000000000000000000000000000000\n        /* \"#utility.yul\":13830:13831   */\n      0x00\n        /* \"#utility.yul\":13823:13911   */\n      mstore\n        /* \"#utility.yul\":13930:13934   */\n      0x31\n        /* \"#utility.yul\":13927:13928   */\n      0x04\n        /* \"#utility.yul\":13920:13935   */\n      mstore\n        /* \"#utility.yul\":13954:13958   */\n      0x24\n        /* \"#utility.yul\":13951:13952   */\n      0x00\n        /* \"#utility.yul\":13944:13959   */\n      revert\n        /* \"#utility.yul\":13971:14151   */\n    tag_155:\n        /* \"#utility.yul\":14019:14096   */\n      0x4e487b7100000000000000000000000000000000000000000000000000000000\n        /* \"#utility.yul\":14016:14017   */\n      0x00\n        /* \"#utility.yul\":14009:14097   */\n      mstore\n        /* \"#utility.yul\":14116:14120   */\n      0x22\n        /* \"#utility.yul\":14113:14114   */\n      0x04\n        /* \"#utility.yul\":14106:14121   */\n      mstore\n        /* \"#utility.yul\":14140:14144   */\n      0x24\n        /* \"#utility.yul\":14137:14138   */\n      0x00\n        /* \"#utility.yul\":14130:14145   */\n      revert\n        /* \"#utility.yul\":14157:14477   */\n    tag_94:\n        /* \"#utility.yul\":14201:14207   */\n      0x00\n        /* \"#utility.yul\":14238:14239   */\n      0x02\n        /* \"#utility.yul\":14232:14236   */\n      dup3\n        /* \"#utility.yul\":14228:14240   */\n      div\n        /* \"#utility.yul\":14218:14240   */\n      swap1\n      pop\n        /* \"#utility.yul\":14285:14286   */\n      0x01\n        /* \"#utility.yul\":14279:14283   */\n      dup3\n        /* \"#utility.yul\":14275:14287   */\n      and\n        /* \"#utility.yul\":14306:14324   */\n      dup1\n        /* \"#utility.yul\":14296:14377   */\n      tag_298\n      jumpi\n        /* \"#utility.yul\":14362:14366   */\n      0x7f\n        /* \"#utility.yul\":14354:14360   */\n      dup3\n        /* \"#utility.yul\":14350:14367   */\n      and\n        /* \"#utility.yul\":14340:14367   */\n      swap2\n      pop\n        /* \"#utility.yul\":14296:14377   */\n    tag_298:\n        /* \"#utility.yul\":14424:14426   */\n      0x20\n        /* \"#utility.yul\":14416:14422   */\n      dup3\n        /* \"#utility.yul\":14413:14427   */\n      lt\n        /* \"#utility.yul\":14393:14411   */\n      dup2\n        /* \"#utility.yul\":14390:14428   */\n      eq\n        /* \"#utility.yul\":14387:14471   */\n      iszero\n      tag_299\n      jumpi\n        /* \"#utility.yul\":14443:14461   */\n      tag_300\n      tag_155\n      jump\t// in\n    tag_300:\n        /* \"#utility.yul\":14387:14471   */\n    tag_299:\n        /* \"#utility.yul\":14208:14477   */\n      pop\n        /* \"#utility.yul\":14157:14477   */\n      swap2\n      swap1\n      pop\n      jump\t// out\n\n    auxdata: 0xa26469706673582212207f6105294f1f2142b74f55045aa4f1deea4a1dd7947740d3b8924ff2dfa8e30464736f6c63430008080033\n}\n",
				"bytecode": {
					"linkReferences": {},
					"object": "60806040527f6161610000000000000000000000000000000000000000000000000000000000600160006101000a81548162ffffff021916908360e81c021790555034801561004d57600080fd5b506110348061005d6000396000f3fe608060405234801561001057600080fd5b50600436106100a95760003560e01c80636057361d116100715780636057361d146101665780638bab8dd51461018257806390c3ee4d146101b25780639e7a13ad146101e2578063a3823eaa14610215578063c43fab3814610233576100a9565b80632e64cec1146100ae57806331d0e130146100cc57806339d2112c146100ea5780634a6385591461011a5780635dee30e614610136575b600080fd5b6100b661024f565b6040516100c391906108a4565b60405180910390f35b6100d4610258565b6040516100e191906108fa565b60405180910390f35b61010460048036038101906100ff9190610afb565b61026b565b6040516101119190610ca0565b60405180910390f35b610134600480360381019061012f9190610cc2565b61047b565b005b610150600480360381019061014b9190610dc9565b610522565b60405161015d9190610ca0565b60405180910390f35b610180600480360381019061017b9190610e12565b6105ae565b005b61019c60048036038101906101979190610e3f565b6105c1565b6040516101a991906108a4565b60405180910390f35b6101cc60048036038101906101c79190610e3f565b6105ef565b6040516101d991906108a4565b60405180910390f35b6101fc60048036038101906101f79190610e12565b61061d565b60405161020c9493929190610ed2565b60405180910390f35b61021d61076d565b60405161022a91906108a4565b60405180910390f35b61024d60048036038101906102489190610e12565b610776565b005b60008054905090565b600160009054906101000a900460e81b81565b610273610780565b6003604051806080016040528086815260200188888080601f016020809104026020016040519081016040528093929190818152602001838380828437600081840152601f19601f8201169050808301925050505050505081526020018581526020018481525090806001815401808255809150506001900390600052602060002090600402016000909190919091506000820151816000015560208201518160010190805190602001906103299291906107a8565b506040820151816002015560608201518160030190805190602001906103509291906107a8565b5050508360048787604051610366929190610f55565b908152602001604051809103902081905550826005878760405161038b929190610f55565b90815260200160405180910390208190555061040a604051806080016040528086815260200188888080601f016020809104026020016040519081016040528093929190818152602001838380828437600081840152601f19601f82011690508083019250505050505050815260200185815260200184815250610522565b50604051806080016040528085815260200187878080601f016020809104026020016040519081016040528093929190818152602001838380828437600081840152601f19601f82011690508083019250505050505050815260200184815260200183815250905095945050505050565b600380548061048d5761048c610f6e565b5b60019003818190600052602060002090600402016000808201600090556001820160006104ba919061082e565b60028201600090556003820160006104d2919061082e565b50509055600582826040516104e8929190610f55565b9081526020016040518091039020600090556004828260405161050c929190610f55565b9081526020016040518091039020600090555050565b61052a610780565b600382908060018154018082558091505060019003906000526020600020906004020160009091909190915060008201518160000155602082015181600101908051906020019061057c9291906107a8565b506040820151816002015560608201518160030190805190602001906105a39291906107a8565b505050819050919050565b806000819055506105bd61076d565b5050565b6004818051602081018201805184825260208301602085012081835280955050505050506000915090505481565b6005818051602081018201805184825260208301602085012081835280955050505050506000915090505481565b6003818154811061062d57600080fd5b906000526020600020906004020160009150905080600001549080600101805461065690610fcc565b80601f016020809104026020016040519081016040528092919081815260200182805461068290610fcc565b80156106cf5780601f106106a4576101008083540402835291602001916106cf565b820191906000526020600020905b8154815290600101906020018083116106b257829003601f168201915b5050505050908060020154908060030180546106ea90610fcc565b80601f016020809104026020016040519081016040528092919081815260200182805461071690610fcc565b80156107635780601f1061073857610100808354040283529160200191610763565b820191906000526020600020905b81548152906001019060200180831161074657829003601f168201915b5050505050905084565b60006002905090565b8060028190555050565b6040518060800160405280600081526020016060815260200160008152602001606081525090565b8280546107b490610fcc565b90600052602060002090601f0160209004810192826107d6576000855561081d565b82601f106107ef57805160ff191683800117855561081d565b8280016001018555821561081d579182015b8281111561081c578251825591602001919060010190610801565b5b50905061082a919061086e565b5090565b50805461083a90610fcc565b6000825580601f1061084c575061086b565b601f01602090049060005260206000209081019061086a919061086e565b5b50565b5b8082111561088757600081600090555060010161086f565b5090565b6000819050919050565b61089e8161088b565b82525050565b60006020820190506108b96000830184610895565b92915050565b60007fffffff000000000000000000000000000000000000000000000000000000000082169050919050565b6108f4816108bf565b82525050565b600060208201905061090f60008301846108eb565b92915050565b6000604051905090565b600080fd5b600080fd5b600080fd5b600080fd5b600080fd5b60008083601f84011261094e5761094d610929565b5b8235905067ffffffffffffffff81111561096b5761096a61092e565b5b60208301915083600182028301111561098757610986610933565b5b9250929050565b6109978161088b565b81146109a257600080fd5b50565b6000813590506109b48161098e565b92915050565b600080fd5b6000601f19601f8301169050919050565b7f4e487b7100000000000000000000000000000000000000000000000000000000600052604160045260246000fd5b610a08826109bf565b810181811067ffffffffffffffff82111715610a2757610a266109d0565b5b80604052505050565b6000610a3a610915565b9050610a4682826109ff565b919050565b600067ffffffffffffffff821115610a6657610a656109d0565b5b610a6f826109bf565b9050602081019050919050565b82818337600083830152505050565b6000610a9e610a9984610a4b565b610a30565b905082815260208101848484011115610aba57610ab96109ba565b5b610ac5848285610a7c565b509392505050565b600082601f830112610ae257610ae1610929565b5b8135610af2848260208601610a8b565b91505092915050565b600080600080600060808688031215610b1757610b1661091f565b5b600086013567ffffffffffffffff811115610b3557610b34610924565b5b610b4188828901610938565b95509550506020610b54888289016109a5565b9350506040610b65888289016109a5565b925050606086013567ffffffffffffffff811115610b8657610b85610924565b5b610b9288828901610acd565b9150509295509295909350565b610ba88161088b565b82525050565b600081519050919050565b600082825260208201905092915050565b60005b83811015610be8578082015181840152602081019050610bcd565b83811115610bf7576000848401525b50505050565b6000610c0882610bae565b610c128185610bb9565b9350610c22818560208601610bca565b610c2b816109bf565b840191505092915050565b6000608083016000830151610c4e6000860182610b9f565b5060208301518482036020860152610c668282610bfd565b9150506040830151610c7b6040860182610b9f565b5060608301518482036060860152610c938282610bfd565b9150508091505092915050565b60006020820190508181036000830152610cba8184610c36565b905092915050565b60008060208385031215610cd957610cd861091f565b5b600083013567ffffffffffffffff811115610cf757610cf6610924565b5b610d0385828601610938565b92509250509250929050565b600080fd5b600080fd5b600060808284031215610d2f57610d2e610d0f565b5b610d396080610a30565b90506000610d49848285016109a5565b600083015250602082013567ffffffffffffffff811115610d6d57610d6c610d14565b5b610d7984828501610acd565b6020830152506040610d8d848285016109a5565b604083015250606082013567ffffffffffffffff811115610db157610db0610d14565b5b610dbd84828501610acd565b60608301525092915050565b600060208284031215610ddf57610dde61091f565b5b600082013567ffffffffffffffff811115610dfd57610dfc610924565b5b610e0984828501610d19565b91505092915050565b600060208284031215610e2857610e2761091f565b5b6000610e36848285016109a5565b91505092915050565b600060208284031215610e5557610e5461091f565b5b600082013567ffffffffffffffff811115610e7357610e72610924565b5b610e7f84828501610acd565b91505092915050565b600082825260208201905092915050565b6000610ea482610bae565b610eae8185610e88565b9350610ebe818560208601610bca565b610ec7816109bf565b840191505092915050565b6000608082019050610ee76000830187610895565b8181036020830152610ef98186610e99565b9050610f086040830185610895565b8181036060830152610f1a8184610e99565b905095945050505050565b600081905092915050565b6000610f3c8385610f25565b9350610f49838584610a7c565b82840190509392505050565b6000610f62828486610f30565b91508190509392505050565b7f4e487b7100000000000000000000000000000000000000000000000000000000600052603160045260246000fd5b7f4e487b7100000000000000000000000000000000000000000000000000000000600052602260045260246000fd5b60006002820490506001821680610fe457607f821691505b60208210811415610ff857610ff7610f9d565b5b5091905056fea26469706673582212207f6105294f1f2142b74f55045aa4f1deea4a1dd7947740d3b8924ff2dfa8e30464736f6c63430008080033",
					"opcodes": "PUSH1 0x80 PUSH1 0x40 MSTORE PUSH32 0x6161610000000000000000000000000000000000000000000000000000000000 PUSH1 0x1 PUSH1 0x0 PUSH2 0x100 EXP DUP2 SLOAD DUP2 PUSH3 0xFFFFFF MUL NOT AND SWAP1 DUP4 PUSH1 0xE8 SHR MUL OR SWAP1 SSTORE POP CALLVALUE DUP1 ISZERO PUSH2 0x4D JUMPI PUSH1 0x0 DUP1 REVERT JUMPDEST POP PUSH2 0x1034 DUP1 PUSH2 0x5D PUSH1 0x0 CODECOPY PUSH1 0x0 RETURN INVALID PUSH1 0x80 PUSH1 0x40 MSTORE CALLVALUE DUP1 ISZERO PUSH2 0x10 JUMPI PUSH1 0x0 DUP1 REVERT JUMPDEST POP PUSH1 0x4 CALLDATASIZE LT PUSH2 0xA9 JUMPI PUSH1 0x0 CALLDATALOAD PUSH1 0xE0 SHR DUP1 PUSH4 0x6057361D GT PUSH2 0x71 JUMPI DUP1 PUSH4 0x6057361D EQ PUSH2 0x166 JUMPI DUP1 PUSH4 0x8BAB8DD5 EQ PUSH2 0x182 JUMPI DUP1 PUSH4 0x90C3EE4D EQ PUSH2 0x1B2 JUMPI DUP1 PUSH4 0x9E7A13AD EQ PUSH2 0x1E2 JUMPI DUP1 PUSH4 0xA3823EAA EQ PUSH2 0x215 JUMPI DUP1 PUSH4 0xC43FAB38 EQ PUSH2 0x233 JUMPI PUSH2 0xA9 JUMP JUMPDEST DUP1 PUSH4 0x2E64CEC1 EQ PUSH2 0xAE JUMPI DUP1 PUSH4 0x31D0E130 EQ PUSH2 0xCC JUMPI DUP1 PUSH4 0x39D2112C EQ PUSH2 0xEA JUMPI DUP1 PUSH4 0x4A638559 EQ PUSH2 0x11A JUMPI DUP1 PUSH4 0x5DEE30E6 EQ PUSH2 0x136 JUMPI JUMPDEST PUSH1 0x0 DUP1 REVERT JUMPDEST PUSH2 0xB6 PUSH2 0x24F JUMP JUMPDEST PUSH1 0x40 MLOAD PUSH2 0xC3 SWAP2 SWAP1 PUSH2 0x8A4 JUMP JUMPDEST PUSH1 0x40 MLOAD DUP1 SWAP2 SUB SWAP1 RETURN JUMPDEST PUSH2 0xD4 PUSH2 0x258 JUMP JUMPDEST PUSH1 0x40 MLOAD PUSH2 0xE1 SWAP2 SWAP1 PUSH2 0x8FA JUMP JUMPDEST PUSH1 0x40 MLOAD DUP1 SWAP2 SUB SWAP1 RETURN JUMPDEST PUSH2 0x104 PUSH1 0x4 DUP1 CALLDATASIZE SUB DUP2 ADD SWAP1 PUSH2 0xFF SWAP2 SWAP1 PUSH2 0xAFB JUMP JUMPDEST PUSH2 0x26B JUMP JUMPDEST PUSH1 0x40 MLOAD PUSH2 0x111 SWAP2 SWAP1 PUSH2 0xCA0 JUMP JUMPDEST PUSH1 0x40 MLOAD DUP1 SWAP2 SUB SWAP1 RETURN JUMPDEST PUSH2 0x134 PUSH1 0x4 DUP1 CALLDATASIZE SUB DUP2 ADD SWAP1 PUSH2 0x12F SWAP2 SWAP1 PUSH2 0xCC2 JUMP JUMPDEST PUSH2 0x47B JUMP JUMPDEST STOP JUMPDEST PUSH2 0x150 PUSH1 0x4 DUP1 CALLDATASIZE SUB DUP2 ADD SWAP1 PUSH2 0x14B SWAP2 SWAP1 PUSH2 0xDC9 JUMP JUMPDEST PUSH2 0x522 JUMP JUMPDEST PUSH1 0x40 MLOAD PUSH2 0x15D SWAP2 SWAP1 PUSH2 0xCA0 JUMP JUMPDEST PUSH1 0x40 MLOAD DUP1 SWAP2 SUB SWAP1 RETURN JUMPDEST PUSH2 0x180 PUSH1 0x4 DUP1 CALLDATASIZE SUB DUP2 ADD SWAP1 PUSH2 0x17B SWAP2 SWAP1 PUSH2 0xE12 JUMP JUMPDEST PUSH2 0x5AE JUMP JUMPDEST STOP JUMPDEST PUSH2 0x19C PUSH1 0x4 DUP1 CALLDATASIZE SUB DUP2 ADD SWAP1 PUSH2 0x197 SWAP2 SWAP1 PUSH2 0xE3F JUMP JUMPDEST PUSH2 0x5C1 JUMP JUMPDEST PUSH1 0x40 MLOAD PUSH2 0x1A9 SWAP2 SWAP1 PUSH2 0x8A4 JUMP JUMPDEST PUSH1 0x40 MLOAD DUP1 SWAP2 SUB SWAP1 RETURN JUMPDEST PUSH2 0x1CC PUSH1 0x4 DUP1 CALLDATASIZE SUB DUP2 ADD SWAP1 PUSH2 0x1C7 SWAP2 SWAP1 PUSH2 0xE3F JUMP JUMPDEST PUSH2 0x5EF JUMP JUMPDEST PUSH1 0x40 MLOAD PUSH2 0x1D9 SWAP2 SWAP1 PUSH2 0x8A4 JUMP JUMPDEST PUSH1 0x40 MLOAD DUP1 SWAP2 SUB SWAP1 RETURN JUMPDEST PUSH2 0x1FC PUSH1 0x4 DUP1 CALLDATASIZE SUB DUP2 ADD SWAP1 PUSH2 0x1F7 SWAP2 SWAP1 PUSH2 0xE12 JUMP JUMPDEST PUSH2 0x61D JUMP JUMPDEST PUSH1 0x40 MLOAD PUSH2 0x20C SWAP5 SWAP4 SWAP3 SWAP2 SWAP1 PUSH2 0xED2 JUMP JUMPDEST PUSH1 0x40 MLOAD DUP1 SWAP2 SUB SWAP1 RETURN JUMPDEST PUSH2 0x21D PUSH2 0x76D JUMP JUMPDEST PUSH1 0x40 MLOAD PUSH2 0x22A SWAP2 SWAP1 PUSH2 0x8A4 JUMP JUMPDEST PUSH1 0x40 MLOAD DUP1 SWAP2 SUB SWAP1 RETURN JUMPDEST PUSH2 0x24D PUSH1 0x4 DUP1 CALLDATASIZE SUB DUP2 ADD SWAP1 PUSH2 0x248 SWAP2 SWAP1 PUSH2 0xE12 JUMP JUMPDEST PUSH2 0x776 JUMP JUMPDEST STOP JUMPDEST PUSH1 0x0 DUP1 SLOAD SWAP1 POP SWAP1 JUMP JUMPDEST PUSH1 0x1 PUSH1 0x0 SWAP1 SLOAD SWAP1 PUSH2 0x100 EXP SWAP1 DIV PUSH1 0xE8 SHL DUP2 JUMP JUMPDEST PUSH2 0x273 PUSH2 0x780 JUMP JUMPDEST PUSH1 0x3 PUSH1 0x40 MLOAD DUP1 PUSH1 0x80 ADD PUSH1 0x40 MSTORE DUP1 DUP7 DUP2 MSTORE PUSH1 0x20 ADD DUP9 DUP9 DUP1 DUP1 PUSH1 0x1F ADD PUSH1 0x20 DUP1 SWAP2 DIV MUL PUSH1 0x20 ADD PUSH1 0x40 MLOAD SWAP1 DUP2 ADD PUSH1 0x40 MSTORE DUP1 SWAP4 SWAP3 SWAP2 SWAP1 DUP2 DUP2 MSTORE PUSH1 0x20 ADD DUP4 DUP4 DUP1 DUP3 DUP5 CALLDATACOPY PUSH1 0x0 DUP2 DUP5 ADD MSTORE PUSH1 0x1F NOT PUSH1 0x1F DUP3 ADD AND SWAP1 POP DUP1 DUP4 ADD SWAP3 POP POP POP POP POP POP POP DUP2 MSTORE PUSH1 0x20 ADD DUP6 DUP2 MSTORE PUSH1 0x20 ADD DUP5 DUP2 MSTORE POP SWAP1 DUP1 PUSH1 0x1 DUP2 SLOAD ADD DUP1 DUP3 SSTORE DUP1 SWAP2 POP POP PUSH1 0x1 SWAP1 SUB SWAP1 PUSH1 0x0 MSTORE PUSH1 0x20 PUSH1 0x0 KECCAK256 SWAP1 PUSH1 0x4 MUL ADD PUSH1 0x0 SWAP1 SWAP2 SWAP1 SWAP2 SWAP1 SWAP2 POP PUSH1 0x0 DUP3 ADD MLOAD DUP2 PUSH1 0x0 ADD SSTORE PUSH1 0x20 DUP3 ADD MLOAD DUP2 PUSH1 0x1 ADD SWAP1 DUP1 MLOAD SWAP1 PUSH1 0x20 ADD SWAP1 PUSH2 0x329 SWAP3 SWAP2 SWAP1 PUSH2 0x7A8 JUMP JUMPDEST POP PUSH1 0x40 DUP3 ADD MLOAD DUP2 PUSH1 0x2 ADD SSTORE PUSH1 0x60 DUP3 ADD MLOAD DUP2 PUSH1 0x3 ADD SWAP1 DUP1 MLOAD SWAP1 PUSH1 0x20 ADD SWAP1 PUSH2 0x350 SWAP3 SWAP2 SWAP1 PUSH2 0x7A8 JUMP JUMPDEST POP POP POP DUP4 PUSH1 0x4 DUP8 DUP8 PUSH1 0x40 MLOAD PUSH2 0x366 SWAP3 SWAP2 SWAP1 PUSH2 0xF55 JUMP JUMPDEST SWAP1 DUP2 MSTORE PUSH1 0x20 ADD PUSH1 0x40 MLOAD DUP1 SWAP2 SUB SWAP1 KECCAK256 DUP2 SWAP1 SSTORE POP DUP3 PUSH1 0x5 DUP8 DUP8 PUSH1 0x40 MLOAD PUSH2 0x38B SWAP3 SWAP2 SWAP1 PUSH2 0xF55 JUMP JUMPDEST SWAP1 DUP2 MSTORE PUSH1 0x20 ADD PUSH1 0x40 MLOAD DUP1 SWAP2 SUB SWAP1 KECCAK256 DUP2 SWAP1 SSTORE POP PUSH2 0x40A PUSH1 0x40 MLOAD DUP1 PUSH1 0x80 ADD PUSH1 0x40 MSTORE DUP1 DUP7 DUP2 MSTORE PUSH1 0x20 ADD DUP9 DUP9 DUP1 DUP1 PUSH1 0x1F ADD PUSH1 0x20 DUP1 SWAP2 DIV MUL PUSH1 0x20 ADD PUSH1 0x40 MLOAD SWAP1 DUP2 ADD PUSH1 0x40 MSTORE DUP1 SWAP4 SWAP3 SWAP2 SWAP1 DUP2 DUP2 MSTORE PUSH1 0x20 ADD DUP4 DUP4 DUP1 DUP3 DUP5 CALLDATACOPY PUSH1 0x0 DUP2 DUP5 ADD MSTORE PUSH1 0x1F NOT PUSH1 0x1F DUP3 ADD AND SWAP1 POP DUP1 DUP4 ADD SWAP3 POP POP POP POP POP POP POP DUP2 MSTORE PUSH1 0x20 ADD DUP6 DUP2 MSTORE PUSH1 0x20 ADD DUP5 DUP2 MSTORE POP PUSH2 0x522 JUMP JUMPDEST POP PUSH1 0x40 MLOAD DUP1 PUSH1 0x80 ADD PUSH1 0x40 MSTORE DUP1 DUP6 DUP2 MSTORE PUSH1 0x20 ADD DUP8 DUP8 DUP1 DUP1 PUSH1 0x1F ADD PUSH1 0x20 DUP1 SWAP2 DIV MUL PUSH1 0x20 ADD PUSH1 0x40 MLOAD SWAP1 DUP2 ADD PUSH1 0x40 MSTORE DUP1 SWAP4 SWAP3 SWAP2 SWAP1 DUP2 DUP2 MSTORE PUSH1 0x20 ADD DUP4 DUP4 DUP1 DUP3 DUP5 CALLDATACOPY PUSH1 0x0 DUP2 DUP5 ADD MSTORE PUSH1 0x1F NOT PUSH1 0x1F DUP3 ADD AND SWAP1 POP DUP1 DUP4 ADD SWAP3 POP POP POP POP POP POP POP DUP2 MSTORE PUSH1 0x20 ADD DUP5 DUP2 MSTORE PUSH1 0x20 ADD DUP4 DUP2 MSTORE POP SWAP1 POP SWAP6 SWAP5 POP POP POP POP POP JUMP JUMPDEST PUSH1 0x3 DUP1 SLOAD DUP1 PUSH2 0x48D JUMPI PUSH2 0x48C PUSH2 0xF6E JUMP JUMPDEST JUMPDEST PUSH1 0x1 SWAP1 SUB DUP2 DUP2 SWAP1 PUSH1 0x0 MSTORE PUSH1 0x20 PUSH1 0x0 KECCAK256 SWAP1 PUSH1 0x4 MUL ADD PUSH1 0x0 DUP1 DUP3 ADD PUSH1 0x0 SWAP1 SSTORE PUSH1 0x1 DUP3 ADD PUSH1 0x0 PUSH2 0x4BA SWAP2 SWAP1 PUSH2 0x82E JUMP JUMPDEST PUSH1 0x2 DUP3 ADD PUSH1 0x0 SWAP1 SSTORE PUSH1 0x3 DUP3 ADD PUSH1 0x0 PUSH2 0x4D2 SWAP2 SWAP1 PUSH2 0x82E JUMP JUMPDEST POP POP SWAP1 SSTORE PUSH1 0x5 DUP3 DUP3 PUSH1 0x40 MLOAD PUSH2 0x4E8 SWAP3 SWAP2 SWAP1 PUSH2 0xF55 JUMP JUMPDEST SWAP1 DUP2 MSTORE PUSH1 0x20 ADD PUSH1 0x40 MLOAD DUP1 SWAP2 SUB SWAP1 KECCAK256 PUSH1 0x0 SWAP1 SSTORE PUSH1 0x4 DUP3 DUP3 PUSH1 0x40 MLOAD PUSH2 0x50C SWAP3 SWAP2 SWAP1 PUSH2 0xF55 JUMP JUMPDEST SWAP1 DUP2 MSTORE PUSH1 0x20 ADD PUSH1 0x40 MLOAD DUP1 SWAP2 SUB SWAP1 KECCAK256 PUSH1 0x0 SWAP1 SSTORE POP POP JUMP JUMPDEST PUSH2 0x52A PUSH2 0x780 JUMP JUMPDEST PUSH1 0x3 DUP3 SWAP1 DUP1 PUSH1 0x1 DUP2 SLOAD ADD DUP1 DUP3 SSTORE DUP1 SWAP2 POP POP PUSH1 0x1 SWAP1 SUB SWAP1 PUSH1 0x0 MSTORE PUSH1 0x20 PUSH1 0x0 KECCAK256 SWAP1 PUSH1 0x4 MUL ADD PUSH1 0x0 SWAP1 SWAP2 SWAP1 SWAP2 SWAP1 SWAP2 POP PUSH1 0x0 DUP3 ADD MLOAD DUP2 PUSH1 0x0 ADD SSTORE PUSH1 0x20 DUP3 ADD MLOAD DUP2 PUSH1 0x1 ADD SWAP1 DUP1 MLOAD SWAP1 PUSH1 0x20 ADD SWAP1 PUSH2 0x57C SWAP3 SWAP2 SWAP1 PUSH2 0x7A8 JUMP JUMPDEST POP PUSH1 0x40 DUP3 ADD MLOAD DUP2 PUSH1 0x2 ADD SSTORE PUSH1 0x60 DUP3 ADD MLOAD DUP2 PUSH1 0x3 ADD SWAP1 DUP1 MLOAD SWAP1 PUSH1 0x20 ADD SWAP1 PUSH2 0x5A3 SWAP3 SWAP2 SWAP1 PUSH2 0x7A8 JUMP JUMPDEST POP POP POP DUP2 SWAP1 POP SWAP2 SWAP1 POP JUMP JUMPDEST DUP1 PUSH1 0x0 DUP2 SWAP1 SSTORE POP PUSH2 0x5BD PUSH2 0x76D JUMP JUMPDEST POP POP JUMP JUMPDEST PUSH1 0x4 DUP2 DUP1 MLOAD PUSH1 0x20 DUP2 ADD DUP3 ADD DUP1 MLOAD DUP5 DUP3 MSTORE PUSH1 0x20 DUP4 ADD PUSH1 0x20 DUP6 ADD KECCAK256 DUP2 DUP4 MSTORE DUP1 SWAP6 POP POP POP POP POP POP PUSH1 0x0 SWAP2 POP SWAP1 POP SLOAD DUP2 JUMP JUMPDEST PUSH1 0x5 DUP2 DUP1 MLOAD PUSH1 0x20 DUP2 ADD DUP3 ADD DUP1 MLOAD DUP5 DUP3 MSTORE PUSH1 0x20 DUP4 ADD PUSH1 0x20 DUP6 ADD KECCAK256 DUP2 DUP4 MSTORE DUP1 SWAP6 POP POP POP POP POP POP PUSH1 0x0 SWAP2 POP SWAP1 POP SLOAD DUP2 JUMP JUMPDEST PUSH1 0x3 DUP2 DUP2 SLOAD DUP2 LT PUSH2 0x62D JUMPI PUSH1 0x0 DUP1 REVERT JUMPDEST SWAP1 PUSH1 0x0 MSTORE PUSH1 0x20 PUSH1 0x0 KECCAK256 SWAP1 PUSH1 0x4 MUL ADD PUSH1 0x0 SWAP2 POP SWAP1 POP DUP1 PUSH1 0x0 ADD SLOAD SWAP1 DUP1 PUSH1 0x1 ADD DUP1 SLOAD PUSH2 0x656 SWAP1 PUSH2 0xFCC JUMP JUMPDEST DUP1 PUSH1 0x1F ADD PUSH1 0x20 DUP1 SWAP2 DIV MUL PUSH1 0x20 ADD PUSH1 0x40 MLOAD SWAP1 DUP2 ADD PUSH1 0x40 MSTORE DUP1 SWAP3 SWAP2 SWAP1 DUP2 DUP2 MSTORE PUSH1 0x20 ADD DUP3 DUP1 SLOAD PUSH2 0x682 SWAP1 PUSH2 0xFCC JUMP JUMPDEST DUP1 ISZERO PUSH2 0x6CF JUMPI DUP1 PUSH1 0x1F LT PUSH2 0x6A4 JUMPI PUSH2 0x100 DUP1 DUP4 SLOAD DIV MUL DUP4 MSTORE SWAP2 PUSH1 0x20 ADD SWAP2 PUSH2 0x6CF JUMP JUMPDEST DUP3 ADD SWAP2 SWAP1 PUSH1 0x0 MSTORE PUSH1 0x20 PUSH1 0x0 KECCAK256 SWAP1 JUMPDEST DUP2 SLOAD DUP2 MSTORE SWAP1 PUSH1 0x1 ADD SWAP1 PUSH1 0x20 ADD DUP1 DUP4 GT PUSH2 0x6B2 JUMPI DUP3 SWAP1 SUB PUSH1 0x1F AND DUP3 ADD SWAP2 JUMPDEST POP POP POP POP POP SWAP1 DUP1 PUSH1 0x2 ADD SLOAD SWAP1 DUP1 PUSH1 0x3 ADD DUP1 SLOAD PUSH2 0x6EA SWAP1 PUSH2 0xFCC JUMP JUMPDEST DUP1 PUSH1 0x1F ADD PUSH1 0x20 DUP1 SWAP2 DIV MUL PUSH1 0x20 ADD PUSH1 0x40 MLOAD SWAP1 DUP2 ADD PUSH1 0x40 MSTORE DUP1 SWAP3 SWAP2 SWAP1 DUP2 DUP2 MSTORE PUSH1 0x20 ADD DUP3 DUP1 SLOAD PUSH2 0x716 SWAP1 PUSH2 0xFCC JUMP JUMPDEST DUP1 ISZERO PUSH2 0x763 JUMPI DUP1 PUSH1 0x1F LT PUSH2 0x738 JUMPI PUSH2 0x100 DUP1 DUP4 SLOAD DIV MUL DUP4 MSTORE SWAP2 PUSH1 0x20 ADD SWAP2 PUSH2 0x763 JUMP JUMPDEST DUP3 ADD SWAP2 SWAP1 PUSH1 0x0 MSTORE PUSH1 0x20 PUSH1 0x0 KECCAK256 SWAP1 JUMPDEST DUP2 SLOAD DUP2 MSTORE SWAP1 PUSH1 0x1 ADD SWAP1 PUSH1 0x20 ADD DUP1 DUP4 GT PUSH2 0x746 JUMPI DUP3 SWAP1 SUB PUSH1 0x1F AND DUP3 ADD SWAP2 JUMPDEST POP POP POP POP POP SWAP1 POP DUP5 JUMP JUMPDEST PUSH1 0x0 PUSH1 0x2 SWAP1 POP SWAP1 JUMP JUMPDEST DUP1 PUSH1 0x2 DUP2 SWAP1 SSTORE POP POP JUMP JUMPDEST PUSH1 0x40 MLOAD DUP1 PUSH1 0x80 ADD PUSH1 0x40 MSTORE DUP1 PUSH1 0x0 DUP2 MSTORE PUSH1 0x20 ADD PUSH1 0x60 DUP2 MSTORE PUSH1 0x20 ADD PUSH1 0x0 DUP2 MSTORE PUSH1 0x20 ADD PUSH1 0x60 DUP2 MSTORE POP SWAP1 JUMP JUMPDEST DUP3 DUP1 SLOAD PUSH2 0x7B4 SWAP1 PUSH2 0xFCC JUMP JUMPDEST SWAP1 PUSH1 0x0 MSTORE PUSH1 0x20 PUSH1 0x0 KECCAK256 SWAP1 PUSH1 0x1F ADD PUSH1 0x20 SWAP1 DIV DUP2 ADD SWAP3 DUP3 PUSH2 0x7D6 JUMPI PUSH1 0x0 DUP6 SSTORE PUSH2 0x81D JUMP JUMPDEST DUP3 PUSH1 0x1F LT PUSH2 0x7EF JUMPI DUP1 MLOAD PUSH1 0xFF NOT AND DUP4 DUP1 ADD OR DUP6 SSTORE PUSH2 0x81D JUMP JUMPDEST DUP3 DUP1 ADD PUSH1 0x1 ADD DUP6 SSTORE DUP3 ISZERO PUSH2 0x81D JUMPI SWAP2 DUP3 ADD JUMPDEST DUP3 DUP2 GT ISZERO PUSH2 0x81C JUMPI DUP3 MLOAD DUP3 SSTORE SWAP2 PUSH1 0x20 ADD SWAP2 SWAP1 PUSH1 0x1 ADD SWAP1 PUSH2 0x801 JUMP JUMPDEST JUMPDEST POP SWAP1 POP PUSH2 0x82A SWAP2 SWAP1 PUSH2 0x86E JUMP JUMPDEST POP SWAP1 JUMP JUMPDEST POP DUP1 SLOAD PUSH2 0x83A SWAP1 PUSH2 0xFCC JUMP JUMPDEST PUSH1 0x0 DUP3 SSTORE DUP1 PUSH1 0x1F LT PUSH2 0x84C JUMPI POP PUSH2 0x86B JUMP JUMPDEST PUSH1 0x1F ADD PUSH1 0x20 SWAP1 DIV SWAP1 PUSH1 0x0 MSTORE PUSH1 0x20 PUSH1 0x0 KECCAK256 SWAP1 DUP2 ADD SWAP1 PUSH2 0x86A SWAP2 SWAP1 PUSH2 0x86E JUMP JUMPDEST JUMPDEST POP JUMP JUMPDEST JUMPDEST DUP1 DUP3 GT ISZERO PUSH2 0x887 JUMPI PUSH1 0x0 DUP2 PUSH1 0x0 SWAP1 SSTORE POP PUSH1 0x1 ADD PUSH2 0x86F JUMP JUMPDEST POP SWAP1 JUMP JUMPDEST PUSH1 0x0 DUP2 SWAP1 POP SWAP2 SWAP1 POP JUMP JUMPDEST PUSH2 0x89E DUP2 PUSH2 0x88B JUMP JUMPDEST DUP3 MSTORE POP POP JUMP JUMPDEST PUSH1 0x0 PUSH1 0x20 DUP3 ADD SWAP1 POP PUSH2 0x8B9 PUSH1 0x0 DUP4 ADD DUP5 PUSH2 0x895 JUMP JUMPDEST SWAP3 SWAP2 POP POP JUMP JUMPDEST PUSH1 0x0 PUSH32 0xFFFFFF0000000000000000000000000000000000000000000000000000000000 DUP3 AND SWAP1 POP SWAP2 SWAP1 POP JUMP JUMPDEST PUSH2 0x8F4 DUP2 PUSH2 0x8BF JUMP JUMPDEST DUP3 MSTORE POP POP JUMP JUMPDEST PUSH1 0x0 PUSH1 0x20 DUP3 ADD SWAP1 POP PUSH2 0x90F PUSH1 0x0 DUP4 ADD DUP5 PUSH2 0x8EB JUMP JUMPDEST SWAP3 SWAP2 POP POP JUMP JUMPDEST PUSH1 0x0 PUSH1 0x40 MLOAD SWAP1 POP SWAP1 JUMP JUMPDEST PUSH1 0x0 DUP1 REVERT JUMPDEST PUSH1 0x0 DUP1 REVERT JUMPDEST PUSH1 0x0 DUP1 REVERT JUMPDEST PUSH1 0x0 DUP1 REVERT JUMPDEST PUSH1 0x0 DUP1 REVERT JUMPDEST PUSH1 0x0 DUP1 DUP4 PUSH1 0x1F DUP5 ADD SLT PUSH2 0x94E JUMPI PUSH2 0x94D PUSH2 0x929 JUMP JUMPDEST JUMPDEST DUP3 CALLDATALOAD SWAP1 POP PUSH8 0xFFFFFFFFFFFFFFFF DUP2 GT ISZERO PUSH2 0x96B JUMPI PUSH2 0x96A PUSH2 0x92E JUMP JUMPDEST JUMPDEST PUSH1 0x20 DUP4 ADD SWAP2 POP DUP4 PUSH1 0x1 DUP3 MUL DUP4 ADD GT ISZERO PUSH2 0x987 JUMPI PUSH2 0x986 PUSH2 0x933 JUMP JUMPDEST JUMPDEST SWAP3 POP SWAP3 SWAP1 POP JUMP JUMPDEST PUSH2 0x997 DUP2 PUSH2 0x88B JUMP JUMPDEST DUP2 EQ PUSH2 0x9A2 JUMPI PUSH1 0x0 DUP1 REVERT JUMPDEST POP JUMP JUMPDEST PUSH1 0x0 DUP2 CALLDATALOAD SWAP1 POP PUSH2 0x9B4 DUP2 PUSH2 0x98E JUMP JUMPDEST SWAP3 SWAP2 POP POP JUMP JUMPDEST PUSH1 0x0 DUP1 REVERT JUMPDEST PUSH1 0x0 PUSH1 0x1F NOT PUSH1 0x1F DUP4 ADD AND SWAP1 POP SWAP2 SWAP1 POP JUMP JUMPDEST PUSH32 0x4E487B7100000000000000000000000000000000000000000000000000000000 PUSH1 0x0 MSTORE PUSH1 0x41 PUSH1 0x4 MSTORE PUSH1 0x24 PUSH1 0x0 REVERT JUMPDEST PUSH2 0xA08 DUP3 PUSH2 0x9BF JUMP JUMPDEST DUP2 ADD DUP2 DUP2 LT PUSH8 0xFFFFFFFFFFFFFFFF DUP3 GT OR ISZERO PUSH2 0xA27 JUMPI PUSH2 0xA26 PUSH2 0x9D0 JUMP JUMPDEST JUMPDEST DUP1 PUSH1 0x40 MSTORE POP POP POP JUMP JUMPDEST PUSH1 0x0 PUSH2 0xA3A PUSH2 0x915 JUMP JUMPDEST SWAP1 POP PUSH2 0xA46 DUP3 DUP3 PUSH2 0x9FF JUMP JUMPDEST SWAP2 SWAP1 POP JUMP JUMPDEST PUSH1 0x0 PUSH8 0xFFFFFFFFFFFFFFFF DUP3 GT ISZERO PUSH2 0xA66 JUMPI PUSH2 0xA65 PUSH2 0x9D0 JUMP JUMPDEST JUMPDEST PUSH2 0xA6F DUP3 PUSH2 0x9BF JUMP JUMPDEST SWAP1 POP PUSH1 0x20 DUP2 ADD SWAP1 POP SWAP2 SWAP1 POP JUMP JUMPDEST DUP3 DUP2 DUP4 CALLDATACOPY PUSH1 0x0 DUP4 DUP4 ADD MSTORE POP POP POP JUMP JUMPDEST PUSH1 0x0 PUSH2 0xA9E PUSH2 0xA99 DUP5 PUSH2 0xA4B JUMP JUMPDEST PUSH2 0xA30 JUMP JUMPDEST SWAP1 POP DUP3 DUP2 MSTORE PUSH1 0x20 DUP2 ADD DUP5 DUP5 DUP5 ADD GT ISZERO PUSH2 0xABA JUMPI PUSH2 0xAB9 PUSH2 0x9BA JUMP JUMPDEST JUMPDEST PUSH2 0xAC5 DUP5 DUP3 DUP6 PUSH2 0xA7C JUMP JUMPDEST POP SWAP4 SWAP3 POP POP POP JUMP JUMPDEST PUSH1 0x0 DUP3 PUSH1 0x1F DUP4 ADD SLT PUSH2 0xAE2 JUMPI PUSH2 0xAE1 PUSH2 0x929 JUMP JUMPDEST JUMPDEST DUP2 CALLDATALOAD PUSH2 0xAF2 DUP5 DUP3 PUSH1 0x20 DUP7 ADD PUSH2 0xA8B JUMP JUMPDEST SWAP2 POP POP SWAP3 SWAP2 POP POP JUMP JUMPDEST PUSH1 0x0 DUP1 PUSH1 0x0 DUP1 PUSH1 0x0 PUSH1 0x80 DUP7 DUP9 SUB SLT ISZERO PUSH2 0xB17 JUMPI PUSH2 0xB16 PUSH2 0x91F JUMP JUMPDEST JUMPDEST PUSH1 0x0 DUP7 ADD CALLDATALOAD PUSH8 0xFFFFFFFFFFFFFFFF DUP2 GT ISZERO PUSH2 0xB35 JUMPI PUSH2 0xB34 PUSH2 0x924 JUMP JUMPDEST JUMPDEST PUSH2 0xB41 DUP9 DUP3 DUP10 ADD PUSH2 0x938 JUMP JUMPDEST SWAP6 POP SWAP6 POP POP PUSH1 0x20 PUSH2 0xB54 DUP9 DUP3 DUP10 ADD PUSH2 0x9A5 JUMP JUMPDEST SWAP4 POP POP PUSH1 0x40 PUSH2 0xB65 DUP9 DUP3 DUP10 ADD PUSH2 0x9A5 JUMP JUMPDEST SWAP3 POP POP PUSH1 0x60 DUP7 ADD CALLDATALOAD PUSH8 0xFFFFFFFFFFFFFFFF DUP2 GT ISZERO PUSH2 0xB86 JUMPI PUSH2 0xB85 PUSH2 0x924 JUMP JUMPDEST JUMPDEST PUSH2 0xB92 DUP9 DUP3 DUP10 ADD PUSH2 0xACD JUMP JUMPDEST SWAP2 POP POP SWAP3 SWAP6 POP SWAP3 SWAP6 SWAP1 SWAP4 POP JUMP JUMPDEST PUSH2 0xBA8 DUP2 PUSH2 0x88B JUMP JUMPDEST DUP3 MSTORE POP POP JUMP JUMPDEST PUSH1 0x0 DUP2 MLOAD SWAP1 POP SWAP2 SWAP1 POP JUMP JUMPDEST PUSH1 0x0 DUP3 DUP3 MSTORE PUSH1 0x20 DUP3 ADD SWAP1 POP SWAP3 SWAP2 POP POP JUMP JUMPDEST PUSH1 0x0 JUMPDEST DUP4 DUP2 LT ISZERO PUSH2 0xBE8 JUMPI DUP1 DUP3 ADD MLOAD DUP2 DUP5 ADD MSTORE PUSH1 0x20 DUP2 ADD SWAP1 POP PUSH2 0xBCD JUMP JUMPDEST DUP4 DUP2 GT ISZERO PUSH2 0xBF7 JUMPI PUSH1 0x0 DUP5 DUP5 ADD MSTORE JUMPDEST POP POP POP POP JUMP JUMPDEST PUSH1 0x0 PUSH2 0xC08 DUP3 PUSH2 0xBAE JUMP JUMPDEST PUSH2 0xC12 DUP2 DUP6 PUSH2 0xBB9 JUMP JUMPDEST SWAP4 POP PUSH2 0xC22 DUP2 DUP6 PUSH1 0x20 DUP7 ADD PUSH2 0xBCA JUMP JUMPDEST PUSH2 0xC2B DUP2 PUSH2 0x9BF JUMP JUMPDEST DUP5 ADD SWAP2 POP POP SWAP3 SWAP2 POP POP JUMP JUMPDEST PUSH1 0x0 PUSH1 0x80 DUP4 ADD PUSH1 0x0 DUP4 ADD MLOAD PUSH2 0xC4E PUSH1 0x0 DUP7 ADD DUP3 PUSH2 0xB9F JUMP JUMPDEST POP PUSH1 0x20 DUP4 ADD MLOAD DUP5 DUP3 SUB PUSH1 0x20 DUP7 ADD MSTORE PUSH2 0xC66 DUP3 DUP3 PUSH2 0xBFD JUMP JUMPDEST SWAP2 POP POP PUSH1 0x40 DUP4 ADD MLOAD PUSH2 0xC7B PUSH1 0x40 DUP7 ADD DUP3 PUSH2 0xB9F JUMP JUMPDEST POP PUSH1 0x60 DUP4 ADD MLOAD DUP5 DUP3 SUB PUSH1 0x60 DUP7 ADD MSTORE PUSH2 0xC93 DUP3 DUP3 PUSH2 0xBFD JUMP JUMPDEST SWAP2 POP POP DUP1 SWAP2 POP POP SWAP3 SWAP2 POP POP JUMP JUMPDEST PUSH1 0x0 PUSH1 0x20 DUP3 ADD SWAP1 POP DUP2 DUP2 SUB PUSH1 0x0 DUP4 ADD MSTORE PUSH2 0xCBA DUP2 DUP5 PUSH2 0xC36 JUMP JUMPDEST SWAP1 POP SWAP3 SWAP2 POP POP JUMP JUMPDEST PUSH1 0x0 DUP1 PUSH1 0x20 DUP4 DUP6 SUB SLT ISZERO PUSH2 0xCD9 JUMPI PUSH2 0xCD8 PUSH2 0x91F JUMP JUMPDEST JUMPDEST PUSH1 0x0 DUP4 ADD CALLDATALOAD PUSH8 0xFFFFFFFFFFFFFFFF DUP2 GT ISZERO PUSH2 0xCF7 JUMPI PUSH2 0xCF6 PUSH2 0x924 JUMP JUMPDEST JUMPDEST PUSH2 0xD03 DUP6 DUP3 DUP7 ADD PUSH2 0x938 JUMP JUMPDEST SWAP3 POP SWAP3 POP POP SWAP3 POP SWAP3 SWAP1 POP JUMP JUMPDEST PUSH1 0x0 DUP1 REVERT JUMPDEST PUSH1 0x0 DUP1 REVERT JUMPDEST PUSH1 0x0 PUSH1 0x80 DUP3 DUP5 SUB SLT ISZERO PUSH2 0xD2F JUMPI PUSH2 0xD2E PUSH2 0xD0F JUMP JUMPDEST JUMPDEST PUSH2 0xD39 PUSH1 0x80 PUSH2 0xA30 JUMP JUMPDEST SWAP1 POP PUSH1 0x0 PUSH2 0xD49 DUP5 DUP3 DUP6 ADD PUSH2 0x9A5 JUMP JUMPDEST PUSH1 0x0 DUP4 ADD MSTORE POP PUSH1 0x20 DUP3 ADD CALLDATALOAD PUSH8 0xFFFFFFFFFFFFFFFF DUP2 GT ISZERO PUSH2 0xD6D JUMPI PUSH2 0xD6C PUSH2 0xD14 JUMP JUMPDEST JUMPDEST PUSH2 0xD79 DUP5 DUP3 DUP6 ADD PUSH2 0xACD JUMP JUMPDEST PUSH1 0x20 DUP4 ADD MSTORE POP PUSH1 0x40 PUSH2 0xD8D DUP5 DUP3 DUP6 ADD PUSH2 0x9A5 JUMP JUMPDEST PUSH1 0x40 DUP4 ADD MSTORE POP PUSH1 0x60 DUP3 ADD CALLDATALOAD PUSH8 0xFFFFFFFFFFFFFFFF DUP2 GT ISZERO PUSH2 0xDB1 JUMPI PUSH2 0xDB0 PUSH2 0xD14 JUMP JUMPDEST JUMPDEST PUSH2 0xDBD DUP5 DUP3 DUP6 ADD PUSH2 0xACD JUMP JUMPDEST PUSH1 0x60 DUP4 ADD MSTORE POP SWAP3 SWAP2 POP POP JUMP JUMPDEST PUSH1 0x0 PUSH1 0x20 DUP3 DUP5 SUB SLT ISZERO PUSH2 0xDDF JUMPI PUSH2 0xDDE PUSH2 0x91F JUMP JUMPDEST JUMPDEST PUSH1 0x0 DUP3 ADD CALLDATALOAD PUSH8 0xFFFFFFFFFFFFFFFF DUP2 GT ISZERO PUSH2 0xDFD JUMPI PUSH2 0xDFC PUSH2 0x924 JUMP JUMPDEST JUMPDEST PUSH2 0xE09 DUP5 DUP3 DUP6 ADD PUSH2 0xD19 JUMP JUMPDEST SWAP2 POP POP SWAP3 SWAP2 POP POP JUMP JUMPDEST PUSH1 0x0 PUSH1 0x20 DUP3 DUP5 SUB SLT ISZERO PUSH2 0xE28 JUMPI PUSH2 0xE27 PUSH2 0x91F JUMP JUMPDEST JUMPDEST PUSH1 0x0 PUSH2 0xE36 DUP5 DUP3 DUP6 ADD PUSH2 0x9A5 JUMP JUMPDEST SWAP2 POP POP SWAP3 SWAP2 POP POP JUMP JUMPDEST PUSH1 0x0 PUSH1 0x20 DUP3 DUP5 SUB SLT ISZERO PUSH2 0xE55 JUMPI PUSH2 0xE54 PUSH2 0x91F JUMP JUMPDEST JUMPDEST PUSH1 0x0 DUP3 ADD CALLDATALOAD PUSH8 0xFFFFFFFFFFFFFFFF DUP2 GT ISZERO PUSH2 0xE73 JUMPI PUSH2 0xE72 PUSH2 0x924 JUMP JUMPDEST JUMPDEST PUSH2 0xE7F DUP5 DUP3 DUP6 ADD PUSH2 0xACD JUMP JUMPDEST SWAP2 POP POP SWAP3 SWAP2 POP POP JUMP JUMPDEST PUSH1 0x0 DUP3 DUP3 MSTORE PUSH1 0x20 DUP3 ADD SWAP1 POP SWAP3 SWAP2 POP POP JUMP JUMPDEST PUSH1 0x0 PUSH2 0xEA4 DUP3 PUSH2 0xBAE JUMP JUMPDEST PUSH2 0xEAE DUP2 DUP6 PUSH2 0xE88 JUMP JUMPDEST SWAP4 POP PUSH2 0xEBE DUP2 DUP6 PUSH1 0x20 DUP7 ADD PUSH2 0xBCA JUMP JUMPDEST PUSH2 0xEC7 DUP2 PUSH2 0x9BF JUMP JUMPDEST DUP5 ADD SWAP2 POP POP SWAP3 SWAP2 POP POP JUMP JUMPDEST PUSH1 0x0 PUSH1 0x80 DUP3 ADD SWAP1 POP PUSH2 0xEE7 PUSH1 0x0 DUP4 ADD DUP8 PUSH2 0x895 JUMP JUMPDEST DUP2 DUP2 SUB PUSH1 0x20 DUP4 ADD MSTORE PUSH2 0xEF9 DUP2 DUP7 PUSH2 0xE99 JUMP JUMPDEST SWAP1 POP PUSH2 0xF08 PUSH1 0x40 DUP4 ADD DUP6 PUSH2 0x895 JUMP JUMPDEST DUP2 DUP2 SUB PUSH1 0x60 DUP4 ADD MSTORE PUSH2 0xF1A DUP2 DUP5 PUSH2 0xE99 JUMP JUMPDEST SWAP1 POP SWAP6 SWAP5 POP POP POP POP POP JUMP JUMPDEST PUSH1 0x0 DUP2 SWAP1 POP SWAP3 SWAP2 POP POP JUMP JUMPDEST PUSH1 0x0 PUSH2 0xF3C DUP4 DUP6 PUSH2 0xF25 JUMP JUMPDEST SWAP4 POP PUSH2 0xF49 DUP4 DUP6 DUP5 PUSH2 0xA7C JUMP JUMPDEST DUP3 DUP5 ADD SWAP1 POP SWAP4 SWAP3 POP POP POP JUMP JUMPDEST PUSH1 0x0 PUSH2 0xF62 DUP3 DUP5 DUP7 PUSH2 0xF30 JUMP JUMPDEST SWAP2 POP DUP2 SWAP1 POP SWAP4 SWAP3 POP POP POP JUMP JUMPDEST PUSH32 0x4E487B7100000000000000000000000000000000000000000000000000000000 PUSH1 0x0 MSTORE PUSH1 0x31 PUSH1 0x4 MSTORE PUSH1 0x24 PUSH1 0x0 REVERT JUMPDEST PUSH32 0x4E487B7100000000000000000000000000000000000000000000000000000000 PUSH1 0x0 MSTORE PUSH1 0x22 PUSH1 0x4 MSTORE PUSH1 0x24 PUSH1 0x0 REVERT JUMPDEST PUSH1 0x0 PUSH1 0x2 DUP3 DIV SWAP1 POP PUSH1 0x1 DUP3 AND DUP1 PUSH2 0xFE4 JUMPI PUSH1 0x7F DUP3 AND SWAP2 POP JUMPDEST PUSH1 0x20 DUP3 LT DUP2 EQ ISZERO PUSH2 0xFF8 JUMPI PUSH2 0xFF7 PUSH2 0xF9D JUMP JUMPDEST JUMPDEST POP SWAP2 SWAP1 POP JUMP INVALID LOG2 PUSH5 0x6970667358 0x22 SLT KECCAK256 PUSH32 0x6105294F1F2142B74F55045AA4F1DEEA4A1DD7947740D3B8924FF2DFA8E30464 PUSH20 0x6F6C634300080800330000000000000000000000 "
				},
				"gasEstimates": {
					"creation": {
						"codeDepositCost": "829600",
						"executionCost": "25131",
						"totalCost": "854731"
					},
					"external": {
						"addPerson(string,uint256,uint256,string)": "infinite",
						"addPersonOjbect((uint256,string,uint256,string))": "infinite",
						"nameToAge(string)": "infinite",
						"nameToFavoriteNumber(string)": "infinite",
						"people(uint256)": "infinite",
						"removePerson(string)": "infinite",
						"retrieve()": "2438",
						"retrieveAge()": "425",
						"store(uint256)": "22560",
						"storeAge(uint256)": "22630",
						"testbye()": "2494"
					}
				},
				"methodIdentifiers": {
					"addPerson(string,uint256,uint256,string)": "39d2112c",
					"addPersonOjbect((uint256,string,uint256,string))": "5dee30e6",
					"nameToAge(string)": "90c3ee4d",
					"nameToFavoriteNumber(string)": "8bab8dd5",
					"people(uint256)": "9e7a13ad",
					"removePerson(string)": "4a638559",
					"retrieve()": "2e64cec1",
					"retrieveAge()": "a3823eaa",
					"store(uint256)": "6057361d",
					"storeAge(uint256)": "c43fab38",
					"testbye()": "31d0e130"
				}
			},
			"storageLayout": {
				"storage": [
					{
						"astId": 3,
						"contract": "SimpleStorage/SimpleStorage-modify.sol:SimpleStorage",
						"label": "favoriteNumber",
						"offset": 0,
						"slot": "0",
						"type": "t_uint256"
					},
					{
						"astId": 6,
						"contract": "SimpleStorage/SimpleStorage-modify.sol:SimpleStorage",
						"label": "testbye",
						"offset": 0,
						"slot": "1",
						"type": "t_bytes3"
					},
					{
						"astId": 8,
						"contract": "SimpleStorage/SimpleStorage-modify.sol:SimpleStorage",
						"label": "age",
						"offset": 0,
						"slot": "2",
						"type": "t_uint256"
					},
					{
						"astId": 21,
						"contract": "SimpleStorage/SimpleStorage-modify.sol:SimpleStorage",
						"label": "people",
						"offset": 0,
						"slot": "3",
						"type": "t_array(t_struct(People)17_storage)dyn_storage"
					},
					{
						"astId": 25,
						"contract": "SimpleStorage/SimpleStorage-modify.sol:SimpleStorage",
						"label": "nameToFavoriteNumber",
						"offset": 0,
						"slot": "4",
						"type": "t_mapping(t_string_memory_ptr,t_uint256)"
					},
					{
						"astId": 29,
						"contract": "SimpleStorage/SimpleStorage-modify.sol:SimpleStorage",
						"label": "nameToAge",
						"offset": 0,
						"slot": "5",
						"type": "t_mapping(t_string_memory_ptr,t_uint256)"
					}
				],
				"types": {
					"t_array(t_struct(People)17_storage)dyn_storage": {
						"base": "t_struct(People)17_storage",
						"encoding": "dynamic_array",
						"label": "struct SimpleStorage.People[]",
						"numberOfBytes": "32"
					},
					"t_bytes3": {
						"encoding": "inplace",
						"label": "bytes3",
						"numberOfBytes": "3"
					},
					"t_mapping(t_string_memory_ptr,t_uint256)": {
						"encoding": "mapping",
						"key": "t_string_memory_ptr",
						"label": "mapping(string => uint256)",
						"numberOfBytes": "32",
						"value": "t_uint256"
					},
					"t_string_memory_ptr": {
						"encoding": "bytes",
						"label": "string",
						"numberOfBytes": "32"
					},
					"t_string_storage": {
						"encoding": "bytes",
						"label": "string",
						"numberOfBytes": "32"
					},
					"t_struct(People)17_storage": {
						"encoding": "inplace",
						"label": "struct SimpleStorage.People",
						"members": [
							{
								"astId": 10,
								"contract": "SimpleStorage/SimpleStorage-modify.sol:SimpleStorage",
								"label": "favoriteNumber",
								"offset": 0,
								"slot": "0",
								"type": "t_uint256"
							},
							{
								"astId": 12,
								"contract": "SimpleStorage/SimpleStorage-modify.sol:SimpleStorage",
								"label": "name",
								"offset": 0,
								"slot": "1",
								"type": "t_string_storage"
							},
							{
								"astId": 14,
								"contract": "SimpleStorage/SimpleStorage-modify.sol:SimpleStorage",
								"label": "age",
								"offset": 0,
								"slot": "2",
								"type": "t_uint256"
							},
							{
								"astId": 16,
								"contract": "SimpleStorage/SimpleStorage-modify.sol:SimpleStorage",
								"label": "gender",
								"offset": 0,
								"slot": "3",
								"type": "t_string_storage"
							}
						],
						"numberOfBytes": "128"
					},
					"t_uint256": {
						"encoding": "inplace",
						"label": "uint256",
						"numberOfBytes": "32"
					}
				}
			},
			"userdoc": {
				"kind": "user",
				"methods": {},
				"version": 1
			}
		}
	}
}