{
	"zkfun/verifier.sol": {
		"Verifier": {
			"abi": [
				{
					"inputs": [
						{
							"components": [
								{
									"components": [
										{
											"internalType": "uint256",
											"name": "X",
											"type": "uint256"
										},
										{
											"internalType": "uint256",
											"name": "Y",
											"type": "uint256"
										}
									],
									"internalType": "struct Pairing.G1Point",
									"name": "a",
									"type": "tuple"
								},
								{
									"components": [
										{
											"internalType": "uint256[2]",
											"name": "X",
											"type": "uint256[2]"
										},
										{
											"internalType": "uint256[2]",
											"name": "Y",
											"type": "uint256[2]"
										}
									],
									"internalType": "struct Pairing.G2Point",
									"name": "b",
									"type": "tuple"
								},
								{
									"components": [
										{
											"internalType": "uint256",
											"name": "X",
											"type": "uint256"
										},
										{
											"internalType": "uint256",
											"name": "Y",
											"type": "uint256"
										}
									],
									"internalType": "struct Pairing.G1Point",
									"name": "c",
									"type": "tuple"
								}
							],
							"internalType": "struct Verifier.Proof",
							"name": "proof",
							"type": "tuple"
						}
					],
					"name": "verifyTx",
					"outputs": [
						{
							"internalType": "bool",
							"name": "r",
							"type": "bool"
						}
					],
					"stateMutability": "view",
					"type": "function"
				}
			],
			"devdoc": {
				"kind": "dev",
				"methods": {},
				"version": 1
			},
			"evm": {
				"assembly": "    /* \"zkfun/verifier.sol\":6266:9384  contract Verifier {... */\n  mstore(0x40, 0x80)\n  callvalue\n  dup1\n  iszero\n  tag_1\n  jumpi\n  0x00\n  dup1\n  revert\ntag_1:\n  pop\n  dataSize(sub_0)\n  dup1\n  dataOffset(sub_0)\n  0x00\n  codecopy\n  0x00\n  return\nstop\n\nsub_0: assembly {\n        /* \"zkfun/verifier.sol\":6266:9384  contract Verifier {... */\n      mstore(0x40, 0x80)\n      callvalue\n      dup1\n      iszero\n      tag_1\n      jumpi\n      0x00\n      dup1\n      revert\n    tag_1:\n      pop\n      jumpi(tag_2, lt(calldatasize, 0x04))\n      shr(0xe0, calldataload(0x00))\n      dup1\n      0xf6af0311\n      eq\n      tag_3\n      jumpi\n    tag_2:\n      0x00\n      dup1\n      revert\n        /* \"zkfun/verifier.sol\":9101:9382  function verifyTx(... */\n    tag_3:\n      tag_4\n      0x04\n      dup1\n      calldatasize\n      sub\n      dup2\n      add\n      swap1\n      tag_5\n      swap2\n      swap1\n      tag_6\n      jump\t// in\n    tag_5:\n      tag_7\n      jump\t// in\n    tag_4:\n      mload(0x40)\n      tag_8\n      swap2\n      swap1\n      tag_9\n      jump\t// in\n    tag_8:\n      mload(0x40)\n      dup1\n      swap2\n      sub\n      swap1\n      return\n    tag_7:\n        /* \"zkfun/verifier.sol\":9182:9188  bool r */\n      0x00\n        /* \"zkfun/verifier.sol\":9200:9225  uint[] memory inputValues */\n      dup1\n        /* \"zkfun/verifier.sol\":9239:9240  0 */\n      0x00\n        /* \"zkfun/verifier.sol\":9228:9241  new uint[](0) */\n      0xffffffffffffffff\n      dup2\n      gt\n      iszero\n      tag_11\n      jumpi\n      tag_12\n      tag_13\n      jump\t// in\n    tag_12:\n    tag_11:\n      mload(0x40)\n      swap1\n      dup1\n      dup3\n      mstore\n      dup1\n      0x20\n      mul\n      0x20\n      add\n      dup3\n      add\n      0x40\n      mstore\n      dup1\n      iszero\n      tag_14\n      jumpi\n      dup2\n      0x20\n      add\n      0x20\n      dup3\n      mul\n      dup1\n      calldatasize\n      dup4\n      calldatacopy\n      dup1\n      dup3\n      add\n      swap2\n      pop\n      pop\n      swap1\n      pop\n    tag_14:\n      pop\n        /* \"zkfun/verifier.sol\":9200:9241  uint[] memory inputValues = new uint[](0) */\n      swap1\n      pop\n        /* \"zkfun/verifier.sol\":9294:9295  0 */\n      0x00\n        /* \"zkfun/verifier.sol\":9264:9290  verify(inputValues, proof) */\n      tag_15\n        /* \"zkfun/verifier.sol\":9271:9282  inputValues */\n      dup3\n        /* \"zkfun/verifier.sol\":9284:9289  proof */\n      dup6\n        /* \"zkfun/verifier.sol\":9264:9270  verify */\n      tag_16\n        /* \"zkfun/verifier.sol\":9264:9290  verify(inputValues, proof) */\n      jump\t// in\n    tag_15:\n        /* \"zkfun/verifier.sol\":9264:9295  verify(inputValues, proof) == 0 */\n      eq\n        /* \"zkfun/verifier.sol\":9260:9376  if (verify(inputValues, proof) == 0) {... */\n      iszero\n      tag_17\n      jumpi\n        /* \"zkfun/verifier.sol\":9318:9322  true */\n      0x01\n        /* \"zkfun/verifier.sol\":9311:9322  return true */\n      swap2\n      pop\n      pop\n      jump(tag_10)\n        /* \"zkfun/verifier.sol\":9260:9376  if (verify(inputValues, proof) == 0) {... */\n    tag_17:\n        /* \"zkfun/verifier.sol\":9360:9365  false */\n      0x00\n        /* \"zkfun/verifier.sol\":9353:9365  return false */\n      swap2\n      pop\n      pop\n        /* \"zkfun/verifier.sol\":9101:9382  function verifyTx(... */\n    tag_10:\n      swap2\n      swap1\n      pop\n      jump\t// out\n        /* \"zkfun/verifier.sol\":8175:9096  function verify(uint[] memory input, Proof memory proof) internal view returns (uint) {... */\n    tag_16:\n        /* \"zkfun/verifier.sol\":8255:8259  uint */\n      0x00\n        /* \"zkfun/verifier.sol\":8271:8297  uint256 snark_scalar_field */\n      dup1\n        /* \"zkfun/verifier.sol\":8300:8377  21888242871839275222246405745257275088548364400416034343698204186575808495617 */\n      0x30644e72e131a029b85045b68181585d2833e84879b9709143e1f593f0000001\n        /* \"zkfun/verifier.sol\":8271:8377  uint256 snark_scalar_field = 21888242871839275222246405745257275088548364400416034343698204186575808495617 */\n      swap1\n      pop\n        /* \"zkfun/verifier.sol\":8387:8409  VerifyingKey memory vk */\n      0x00\n        /* \"zkfun/verifier.sol\":8412:8426  verifyingKey() */\n      tag_20\n        /* \"zkfun/verifier.sol\":8412:8424  verifyingKey */\n      tag_21\n        /* \"zkfun/verifier.sol\":8412:8426  verifyingKey() */\n      jump\t// in\n    tag_20:\n        /* \"zkfun/verifier.sol\":8387:8426  VerifyingKey memory vk = verifyingKey() */\n      swap1\n      pop\n        /* \"zkfun/verifier.sol\":8464:8466  vk */\n      dup1\n        /* \"zkfun/verifier.sol\":8464:8476  vk.gamma_abc */\n      0x80\n      add\n      mload\n        /* \"zkfun/verifier.sol\":8464:8483  vk.gamma_abc.length */\n      mload\n        /* \"zkfun/verifier.sol\":8459:8460  1 */\n      0x01\n        /* \"zkfun/verifier.sol\":8444:8449  input */\n      dup7\n        /* \"zkfun/verifier.sol\":8444:8456  input.length */\n      mload\n        /* \"zkfun/verifier.sol\":8444:8460  input.length + 1 */\n      tag_22\n      swap2\n      swap1\n      tag_23\n      jump\t// in\n    tag_22:\n        /* \"zkfun/verifier.sol\":8444:8483  input.length + 1 == vk.gamma_abc.length */\n      eq\n        /* \"zkfun/verifier.sol\":8436:8484  require(input.length + 1 == vk.gamma_abc.length) */\n      tag_24\n      jumpi\n      0x00\n      dup1\n      revert\n    tag_24:\n        /* \"zkfun/verifier.sol\":8541:8568  Pairing.G1Point memory vk_x */\n      0x00\n        /* \"zkfun/verifier.sol\":8571:8592  Pairing.G1Point(0, 0) */\n      mload(0x40)\n      dup1\n      0x40\n      add\n      0x40\n      mstore\n      dup1\n        /* \"zkfun/verifier.sol\":8587:8588  0 */\n      0x00\n        /* \"zkfun/verifier.sol\":8571:8592  Pairing.G1Point(0, 0) */\n      dup2\n      mstore\n      0x20\n      add\n        /* \"zkfun/verifier.sol\":8590:8591  0 */\n      0x00\n        /* \"zkfun/verifier.sol\":8571:8592  Pairing.G1Point(0, 0) */\n      dup2\n      mstore\n      pop\n        /* \"zkfun/verifier.sol\":8541:8592  Pairing.G1Point memory vk_x = Pairing.G1Point(0, 0) */\n      swap1\n      pop\n        /* \"zkfun/verifier.sol\":8607:8613  uint i */\n      0x00\n        /* \"zkfun/verifier.sol\":8602:8799  for (uint i = 0; i < input.length; i++) {... */\n    tag_25:\n        /* \"zkfun/verifier.sol\":8623:8628  input */\n      dup7\n        /* \"zkfun/verifier.sol\":8623:8635  input.length */\n      mload\n        /* \"zkfun/verifier.sol\":8619:8620  i */\n      dup2\n        /* \"zkfun/verifier.sol\":8619:8635  i < input.length */\n      lt\n        /* \"zkfun/verifier.sol\":8602:8799  for (uint i = 0; i < input.length; i++) {... */\n      iszero\n      tag_26\n      jumpi\n        /* \"zkfun/verifier.sol\":8675:8693  snark_scalar_field */\n      dup4\n        /* \"zkfun/verifier.sol\":8664:8669  input */\n      dup8\n        /* \"zkfun/verifier.sol\":8670:8671  i */\n      dup3\n        /* \"zkfun/verifier.sol\":8664:8672  input[i] */\n      dup2\n      mload\n      dup2\n      lt\n      tag_28\n      jumpi\n      tag_29\n      tag_30\n      jump\t// in\n    tag_29:\n    tag_28:\n      0x20\n      mul\n      0x20\n      add\n      add\n      mload\n        /* \"zkfun/verifier.sol\":8664:8693  input[i] < snark_scalar_field */\n      lt\n        /* \"zkfun/verifier.sol\":8656:8694  require(input[i] < snark_scalar_field) */\n      tag_31\n      jumpi\n      0x00\n      dup1\n      revert\n    tag_31:\n        /* \"zkfun/verifier.sol\":8715:8788  Pairing.addition(vk_x, Pairing.scalar_mul(vk.gamma_abc[i + 1], input[i])) */\n      tag_32\n        /* \"zkfun/verifier.sol\":8732:8736  vk_x */\n      dup3\n        /* \"zkfun/verifier.sol\":8738:8787  Pairing.scalar_mul(vk.gamma_abc[i + 1], input[i]) */\n      tag_33\n        /* \"zkfun/verifier.sol\":8757:8759  vk */\n      dup6\n        /* \"zkfun/verifier.sol\":8757:8769  vk.gamma_abc */\n      0x80\n      add\n      mload\n        /* \"zkfun/verifier.sol\":8774:8775  1 */\n      0x01\n        /* \"zkfun/verifier.sol\":8770:8771  i */\n      dup6\n        /* \"zkfun/verifier.sol\":8770:8775  i + 1 */\n      tag_34\n      swap2\n      swap1\n      tag_23\n      jump\t// in\n    tag_34:\n        /* \"zkfun/verifier.sol\":8757:8776  vk.gamma_abc[i + 1] */\n      dup2\n      mload\n      dup2\n      lt\n      tag_35\n      jumpi\n      tag_36\n      tag_30\n      jump\t// in\n    tag_36:\n    tag_35:\n      0x20\n      mul\n      0x20\n      add\n      add\n      mload\n        /* \"zkfun/verifier.sol\":8778:8783  input */\n      dup11\n        /* \"zkfun/verifier.sol\":8784:8785  i */\n      dup6\n        /* \"zkfun/verifier.sol\":8778:8786  input[i] */\n      dup2\n      mload\n      dup2\n      lt\n      tag_37\n      jumpi\n      tag_38\n      tag_30\n      jump\t// in\n    tag_38:\n    tag_37:\n      0x20\n      mul\n      0x20\n      add\n      add\n      mload\n        /* \"zkfun/verifier.sol\":8738:8756  Pairing.scalar_mul */\n      tag_39\n        /* \"zkfun/verifier.sol\":8738:8787  Pairing.scalar_mul(vk.gamma_abc[i + 1], input[i]) */\n      jump\t// in\n    tag_33:\n        /* \"zkfun/verifier.sol\":8715:8731  Pairing.addition */\n      tag_40\n        /* \"zkfun/verifier.sol\":8715:8788  Pairing.addition(vk_x, Pairing.scalar_mul(vk.gamma_abc[i + 1], input[i])) */\n      jump\t// in\n    tag_32:\n        /* \"zkfun/verifier.sol\":8708:8788  vk_x = Pairing.addition(vk_x, Pairing.scalar_mul(vk.gamma_abc[i + 1], input[i])) */\n      swap2\n      pop\n        /* \"zkfun/verifier.sol\":8637:8640  i++ */\n      dup1\n      dup1\n      tag_41\n      swap1\n      tag_42\n      jump\t// in\n    tag_41:\n      swap2\n      pop\n      pop\n        /* \"zkfun/verifier.sol\":8602:8799  for (uint i = 0; i < input.length; i++) {... */\n      jump(tag_25)\n    tag_26:\n      pop\n        /* \"zkfun/verifier.sol\":8815:8854  Pairing.addition(vk_x, vk.gamma_abc[0]) */\n      tag_43\n        /* \"zkfun/verifier.sol\":8832:8836  vk_x */\n      dup2\n        /* \"zkfun/verifier.sol\":8838:8840  vk */\n      dup4\n        /* \"zkfun/verifier.sol\":8838:8850  vk.gamma_abc */\n      0x80\n      add\n      mload\n        /* \"zkfun/verifier.sol\":8851:8852  0 */\n      0x00\n        /* \"zkfun/verifier.sol\":8838:8853  vk.gamma_abc[0] */\n      dup2\n      mload\n      dup2\n      lt\n      tag_44\n      jumpi\n      tag_45\n      tag_30\n      jump\t// in\n    tag_45:\n    tag_44:\n      0x20\n      mul\n      0x20\n      add\n      add\n      mload\n        /* \"zkfun/verifier.sol\":8815:8831  Pairing.addition */\n      tag_40\n        /* \"zkfun/verifier.sol\":8815:8854  Pairing.addition(vk_x, vk.gamma_abc[0]) */\n      jump\t// in\n    tag_43:\n        /* \"zkfun/verifier.sol\":8808:8854  vk_x = Pairing.addition(vk_x, vk.gamma_abc[0]) */\n      swap1\n      pop\n        /* \"zkfun/verifier.sol\":8868:9061  Pairing.pairingProd4(... */\n      tag_46\n        /* \"zkfun/verifier.sol\":8903:8908  proof */\n      dup6\n        /* \"zkfun/verifier.sol\":8903:8910  proof.a */\n      0x00\n      add\n      mload\n        /* \"zkfun/verifier.sol\":8912:8917  proof */\n      dup7\n        /* \"zkfun/verifier.sol\":8912:8919  proof.b */\n      0x20\n      add\n      mload\n        /* \"zkfun/verifier.sol\":8934:8954  Pairing.negate(vk_x) */\n      tag_47\n        /* \"zkfun/verifier.sol\":8949:8953  vk_x */\n      dup5\n        /* \"zkfun/verifier.sol\":8934:8948  Pairing.negate */\n      tag_48\n        /* \"zkfun/verifier.sol\":8934:8954  Pairing.negate(vk_x) */\n      jump\t// in\n    tag_47:\n        /* \"zkfun/verifier.sol\":8956:8958  vk */\n      dup6\n        /* \"zkfun/verifier.sol\":8956:8964  vk.gamma */\n      0x40\n      add\n      mload\n        /* \"zkfun/verifier.sol\":8979:9002  Pairing.negate(proof.c) */\n      tag_49\n        /* \"zkfun/verifier.sol\":8994:8999  proof */\n      dup11\n        /* \"zkfun/verifier.sol\":8994:9001  proof.c */\n      0x40\n      add\n      mload\n        /* \"zkfun/verifier.sol\":8979:8993  Pairing.negate */\n      tag_48\n        /* \"zkfun/verifier.sol\":8979:9002  Pairing.negate(proof.c) */\n      jump\t// in\n    tag_49:\n        /* \"zkfun/verifier.sol\":9004:9006  vk */\n      dup8\n        /* \"zkfun/verifier.sol\":9004:9012  vk.delta */\n      0x60\n      add\n      mload\n        /* \"zkfun/verifier.sol\":9027:9051  Pairing.negate(vk.alpha) */\n      tag_50\n        /* \"zkfun/verifier.sol\":9042:9044  vk */\n      dup10\n        /* \"zkfun/verifier.sol\":9042:9050  vk.alpha */\n      0x00\n      add\n      mload\n        /* \"zkfun/verifier.sol\":9027:9041  Pairing.negate */\n      tag_48\n        /* \"zkfun/verifier.sol\":9027:9051  Pairing.negate(vk.alpha) */\n      jump\t// in\n    tag_50:\n        /* \"zkfun/verifier.sol\":9053:9055  vk */\n      dup10\n        /* \"zkfun/verifier.sol\":9053:9060  vk.beta */\n      0x20\n      add\n      mload\n        /* \"zkfun/verifier.sol\":8868:8888  Pairing.pairingProd4 */\n      tag_51\n        /* \"zkfun/verifier.sol\":8868:9061  Pairing.pairingProd4(... */\n      jump\t// in\n    tag_46:\n        /* \"zkfun/verifier.sol\":8864:9071  if(!Pairing.pairingProd4(... */\n      tag_52\n      jumpi\n        /* \"zkfun/verifier.sol\":9070:9071  1 */\n      0x01\n        /* \"zkfun/verifier.sol\":9063:9071  return 1 */\n      swap4\n      pop\n      pop\n      pop\n      pop\n      jump(tag_19)\n        /* \"zkfun/verifier.sol\":8864:9071  if(!Pairing.pairingProd4(... */\n    tag_52:\n        /* \"zkfun/verifier.sol\":9088:9089  0 */\n      0x00\n        /* \"zkfun/verifier.sol\":9081:9089  return 0 */\n      swap4\n      pop\n      pop\n      pop\n      pop\n        /* \"zkfun/verifier.sol\":8175:9096  function verify(uint[] memory input, Proof memory proof) internal view returns (uint) {... */\n    tag_19:\n      swap3\n      swap2\n      pop\n      pop\n      jump\t// out\n        /* \"zkfun/verifier.sol\":6613:8170  function verifyingKey() pure internal returns (VerifyingKey memory vk) {... */\n    tag_21:\n        /* \"zkfun/verifier.sol\":6660:6682  VerifyingKey memory vk */\n      tag_53\n      tag_54\n      jump\t// in\n    tag_53:\n        /* \"zkfun/verifier.sol\":6705:6874  Pairing.G1Point(uint256(0x1fdedc4d74a6c545d0175532cd4564b545f4fba889dd16b77367f06ec7faeaf5), uint256(0x21b9827f906c4099d33e386ca2ad769eaa48ba95893f7968ad6feb138d7e56a0)) */\n      mload(0x40)\n      dup1\n      0x40\n      add\n      0x40\n      mstore\n      dup1\n        /* \"zkfun/verifier.sol\":6729:6795  0x1fdedc4d74a6c545d0175532cd4564b545f4fba889dd16b77367f06ec7faeaf5 */\n      0x1fdedc4d74a6c545d0175532cd4564b545f4fba889dd16b77367f06ec7faeaf5\n        /* \"zkfun/verifier.sol\":6705:6874  Pairing.G1Point(uint256(0x1fdedc4d74a6c545d0175532cd4564b545f4fba889dd16b77367f06ec7faeaf5), uint256(0x21b9827f906c4099d33e386ca2ad769eaa48ba95893f7968ad6feb138d7e56a0)) */\n      dup2\n      mstore\n      0x20\n      add\n        /* \"zkfun/verifier.sol\":6806:6872  0x21b9827f906c4099d33e386ca2ad769eaa48ba95893f7968ad6feb138d7e56a0 */\n      0x21b9827f906c4099d33e386ca2ad769eaa48ba95893f7968ad6feb138d7e56a0\n        /* \"zkfun/verifier.sol\":6705:6874  Pairing.G1Point(uint256(0x1fdedc4d74a6c545d0175532cd4564b545f4fba889dd16b77367f06ec7faeaf5), uint256(0x21b9827f906c4099d33e386ca2ad769eaa48ba95893f7968ad6feb138d7e56a0)) */\n      dup2\n      mstore\n      pop\n        /* \"zkfun/verifier.sol\":6694:6696  vk */\n      dup2\n        /* \"zkfun/verifier.sol\":6694:6702  vk.alpha */\n      0x00\n      add\n        /* \"zkfun/verifier.sol\":6694:6874  vk.alpha = Pairing.G1Point(uint256(0x1fdedc4d74a6c545d0175532cd4564b545f4fba889dd16b77367f06ec7faeaf5), uint256(0x21b9827f906c4099d33e386ca2ad769eaa48ba95893f7968ad6feb138d7e56a0)) */\n      dup2\n      swap1\n      mstore\n      pop\n        /* \"zkfun/verifier.sol\":6894:7221  Pairing.G2Point([uint256(0x20f3703be75050503099249ab5a4fe9bdc92af5c1124c314e5eb6e8e7f0580ab), uint256(0x12fc620bc73d8ee6d0c37bfd35d801e34bf0192513d48d46e6e8a4fd099cef36)], [uint256(0x2e4a53adf3bf125ab99cdbd3279555158c881dbb45f3f84a3573aa7c658d97f2), uint256(0x1c668dc18277710d3b4e4b76195b193043cf0bfcd5e379c9253d272ec0aa7630)]) */\n      mload(0x40)\n      dup1\n      0x40\n      add\n      0x40\n      mstore\n      dup1\n      mload(0x40)\n      dup1\n      0x40\n      add\n      0x40\n      mstore\n      dup1\n        /* \"zkfun/verifier.sol\":6919:6985  0x20f3703be75050503099249ab5a4fe9bdc92af5c1124c314e5eb6e8e7f0580ab */\n      0x20f3703be75050503099249ab5a4fe9bdc92af5c1124c314e5eb6e8e7f0580ab\n        /* \"zkfun/verifier.sol\":6894:7221  Pairing.G2Point([uint256(0x20f3703be75050503099249ab5a4fe9bdc92af5c1124c314e5eb6e8e7f0580ab), uint256(0x12fc620bc73d8ee6d0c37bfd35d801e34bf0192513d48d46e6e8a4fd099cef36)], [uint256(0x2e4a53adf3bf125ab99cdbd3279555158c881dbb45f3f84a3573aa7c658d97f2), uint256(0x1c668dc18277710d3b4e4b76195b193043cf0bfcd5e379c9253d272ec0aa7630)]) */\n      dup2\n      mstore\n      0x20\n      add\n        /* \"zkfun/verifier.sol\":6996:7062  0x12fc620bc73d8ee6d0c37bfd35d801e34bf0192513d48d46e6e8a4fd099cef36 */\n      0x12fc620bc73d8ee6d0c37bfd35d801e34bf0192513d48d46e6e8a4fd099cef36\n        /* \"zkfun/verifier.sol\":6894:7221  Pairing.G2Point([uint256(0x20f3703be75050503099249ab5a4fe9bdc92af5c1124c314e5eb6e8e7f0580ab), uint256(0x12fc620bc73d8ee6d0c37bfd35d801e34bf0192513d48d46e6e8a4fd099cef36)], [uint256(0x2e4a53adf3bf125ab99cdbd3279555158c881dbb45f3f84a3573aa7c658d97f2), uint256(0x1c668dc18277710d3b4e4b76195b193043cf0bfcd5e379c9253d272ec0aa7630)]) */\n      dup2\n      mstore\n      pop\n      dup2\n      mstore\n      0x20\n      add\n      mload(0x40)\n      dup1\n      0x40\n      add\n      0x40\n      mstore\n      dup1\n        /* \"zkfun/verifier.sol\":7075:7141  0x2e4a53adf3bf125ab99cdbd3279555158c881dbb45f3f84a3573aa7c658d97f2 */\n      0x2e4a53adf3bf125ab99cdbd3279555158c881dbb45f3f84a3573aa7c658d97f2\n        /* \"zkfun/verifier.sol\":6894:7221  Pairing.G2Point([uint256(0x20f3703be75050503099249ab5a4fe9bdc92af5c1124c314e5eb6e8e7f0580ab), uint256(0x12fc620bc73d8ee6d0c37bfd35d801e34bf0192513d48d46e6e8a4fd099cef36)], [uint256(0x2e4a53adf3bf125ab99cdbd3279555158c881dbb45f3f84a3573aa7c658d97f2), uint256(0x1c668dc18277710d3b4e4b76195b193043cf0bfcd5e379c9253d272ec0aa7630)]) */\n      dup2\n      mstore\n      0x20\n      add\n        /* \"zkfun/verifier.sol\":7152:7218  0x1c668dc18277710d3b4e4b76195b193043cf0bfcd5e379c9253d272ec0aa7630 */\n      0x1c668dc18277710d3b4e4b76195b193043cf0bfcd5e379c9253d272ec0aa7630\n        /* \"zkfun/verifier.sol\":6894:7221  Pairing.G2Point([uint256(0x20f3703be75050503099249ab5a4fe9bdc92af5c1124c314e5eb6e8e7f0580ab), uint256(0x12fc620bc73d8ee6d0c37bfd35d801e34bf0192513d48d46e6e8a4fd099cef36)], [uint256(0x2e4a53adf3bf125ab99cdbd3279555158c881dbb45f3f84a3573aa7c658d97f2), uint256(0x1c668dc18277710d3b4e4b76195b193043cf0bfcd5e379c9253d272ec0aa7630)]) */\n      dup2\n      mstore\n      pop\n      dup2\n      mstore\n      pop\n        /* \"zkfun/verifier.sol\":6884:6886  vk */\n      dup2\n        /* \"zkfun/verifier.sol\":6884:6891  vk.beta */\n      0x20\n      add\n        /* \"zkfun/verifier.sol\":6884:7221  vk.beta = Pairing.G2Point([uint256(0x20f3703be75050503099249ab5a4fe9bdc92af5c1124c314e5eb6e8e7f0580ab), uint256(0x12fc620bc73d8ee6d0c37bfd35d801e34bf0192513d48d46e6e8a4fd099cef36)], [uint256(0x2e4a53adf3bf125ab99cdbd3279555158c881dbb45f3f84a3573aa7c658d97f2), uint256(0x1c668dc18277710d3b4e4b76195b193043cf0bfcd5e379c9253d272ec0aa7630)]) */\n      dup2\n      swap1\n      mstore\n      pop\n        /* \"zkfun/verifier.sol\":7242:7569  Pairing.G2Point([uint256(0x2e99a3654469ee16c016fcade62f1e5f9d302cff6163303b15bd3fafddb43ae9), uint256(0x2d9f2ab023f35ad98afec5a8b75bb6990b9ccfd8bae336312163b154c143a0a6)], [uint256(0x0557f37b3dd57bfe24d1b19793969aef90c6e20e716470a4840c4aa66b3eb7dc), uint256(0x01dd44f774a60e52731e2f62a2223f33bbb2771a8853a923dfe9816a200b5928)]) */\n      mload(0x40)\n      dup1\n      0x40\n      add\n      0x40\n      mstore\n      dup1\n      mload(0x40)\n      dup1\n      0x40\n      add\n      0x40\n      mstore\n      dup1\n        /* \"zkfun/verifier.sol\":7267:7333  0x2e99a3654469ee16c016fcade62f1e5f9d302cff6163303b15bd3fafddb43ae9 */\n      0x2e99a3654469ee16c016fcade62f1e5f9d302cff6163303b15bd3fafddb43ae9\n        /* \"zkfun/verifier.sol\":7242:7569  Pairing.G2Point([uint256(0x2e99a3654469ee16c016fcade62f1e5f9d302cff6163303b15bd3fafddb43ae9), uint256(0x2d9f2ab023f35ad98afec5a8b75bb6990b9ccfd8bae336312163b154c143a0a6)], [uint256(0x0557f37b3dd57bfe24d1b19793969aef90c6e20e716470a4840c4aa66b3eb7dc), uint256(0x01dd44f774a60e52731e2f62a2223f33bbb2771a8853a923dfe9816a200b5928)]) */\n      dup2\n      mstore\n      0x20\n      add\n        /* \"zkfun/verifier.sol\":7344:7410  0x2d9f2ab023f35ad98afec5a8b75bb6990b9ccfd8bae336312163b154c143a0a6 */\n      0x2d9f2ab023f35ad98afec5a8b75bb6990b9ccfd8bae336312163b154c143a0a6\n        /* \"zkfun/verifier.sol\":7242:7569  Pairing.G2Point([uint256(0x2e99a3654469ee16c016fcade62f1e5f9d302cff6163303b15bd3fafddb43ae9), uint256(0x2d9f2ab023f35ad98afec5a8b75bb6990b9ccfd8bae336312163b154c143a0a6)], [uint256(0x0557f37b3dd57bfe24d1b19793969aef90c6e20e716470a4840c4aa66b3eb7dc), uint256(0x01dd44f774a60e52731e2f62a2223f33bbb2771a8853a923dfe9816a200b5928)]) */\n      dup2\n      mstore\n      pop\n      dup2\n      mstore\n      0x20\n      add\n      mload(0x40)\n      dup1\n      0x40\n      add\n      0x40\n      mstore\n      dup1\n        /* \"zkfun/verifier.sol\":7423:7489  0x0557f37b3dd57bfe24d1b19793969aef90c6e20e716470a4840c4aa66b3eb7dc */\n      0x0557f37b3dd57bfe24d1b19793969aef90c6e20e716470a4840c4aa66b3eb7dc\n        /* \"zkfun/verifier.sol\":7242:7569  Pairing.G2Point([uint256(0x2e99a3654469ee16c016fcade62f1e5f9d302cff6163303b15bd3fafddb43ae9), uint256(0x2d9f2ab023f35ad98afec5a8b75bb6990b9ccfd8bae336312163b154c143a0a6)], [uint256(0x0557f37b3dd57bfe24d1b19793969aef90c6e20e716470a4840c4aa66b3eb7dc), uint256(0x01dd44f774a60e52731e2f62a2223f33bbb2771a8853a923dfe9816a200b5928)]) */\n      dup2\n      mstore\n      0x20\n      add\n        /* \"zkfun/verifier.sol\":7500:7566  0x01dd44f774a60e52731e2f62a2223f33bbb2771a8853a923dfe9816a200b5928 */\n      0x01dd44f774a60e52731e2f62a2223f33bbb2771a8853a923dfe9816a200b5928\n        /* \"zkfun/verifier.sol\":7242:7569  Pairing.G2Point([uint256(0x2e99a3654469ee16c016fcade62f1e5f9d302cff6163303b15bd3fafddb43ae9), uint256(0x2d9f2ab023f35ad98afec5a8b75bb6990b9ccfd8bae336312163b154c143a0a6)], [uint256(0x0557f37b3dd57bfe24d1b19793969aef90c6e20e716470a4840c4aa66b3eb7dc), uint256(0x01dd44f774a60e52731e2f62a2223f33bbb2771a8853a923dfe9816a200b5928)]) */\n      dup2\n      mstore\n      pop\n      dup2\n      mstore\n      pop\n        /* \"zkfun/verifier.sol\":7231:7233  vk */\n      dup2\n        /* \"zkfun/verifier.sol\":7231:7239  vk.gamma */\n      0x40\n      add\n        /* \"zkfun/verifier.sol\":7231:7569  vk.gamma = Pairing.G2Point([uint256(0x2e99a3654469ee16c016fcade62f1e5f9d302cff6163303b15bd3fafddb43ae9), uint256(0x2d9f2ab023f35ad98afec5a8b75bb6990b9ccfd8bae336312163b154c143a0a6)], [uint256(0x0557f37b3dd57bfe24d1b19793969aef90c6e20e716470a4840c4aa66b3eb7dc), uint256(0x01dd44f774a60e52731e2f62a2223f33bbb2771a8853a923dfe9816a200b5928)]) */\n      dup2\n      swap1\n      mstore\n      pop\n        /* \"zkfun/verifier.sol\":7590:7917  Pairing.G2Point([uint256(0x0195662174889172211dd148d40b1693dcdc55965a46dfad6ce0b7fe82b0a63e), uint256(0x1d5ec1b5e38ebfeff940df7caf36f258a9fcb6091bf643084ad00f22d9121771)], [uint256(0x24c34c5d910ed5ca19527044658583eb2d55d563eec24ad73d2e1bca1c6d68df), uint256(0x2b3d4d65dfbf6921db931526703be5c65335b6dc3b70802cc7c736b51e0df043)]) */\n      mload(0x40)\n      dup1\n      0x40\n      add\n      0x40\n      mstore\n      dup1\n      mload(0x40)\n      dup1\n      0x40\n      add\n      0x40\n      mstore\n      dup1\n        /* \"zkfun/verifier.sol\":7615:7681  0x0195662174889172211dd148d40b1693dcdc55965a46dfad6ce0b7fe82b0a63e */\n      0x0195662174889172211dd148d40b1693dcdc55965a46dfad6ce0b7fe82b0a63e\n        /* \"zkfun/verifier.sol\":7590:7917  Pairing.G2Point([uint256(0x0195662174889172211dd148d40b1693dcdc55965a46dfad6ce0b7fe82b0a63e), uint256(0x1d5ec1b5e38ebfeff940df7caf36f258a9fcb6091bf643084ad00f22d9121771)], [uint256(0x24c34c5d910ed5ca19527044658583eb2d55d563eec24ad73d2e1bca1c6d68df), uint256(0x2b3d4d65dfbf6921db931526703be5c65335b6dc3b70802cc7c736b51e0df043)]) */\n      dup2\n      mstore\n      0x20\n      add\n        /* \"zkfun/verifier.sol\":7692:7758  0x1d5ec1b5e38ebfeff940df7caf36f258a9fcb6091bf643084ad00f22d9121771 */\n      0x1d5ec1b5e38ebfeff940df7caf36f258a9fcb6091bf643084ad00f22d9121771\n        /* \"zkfun/verifier.sol\":7590:7917  Pairing.G2Point([uint256(0x0195662174889172211dd148d40b1693dcdc55965a46dfad6ce0b7fe82b0a63e), uint256(0x1d5ec1b5e38ebfeff940df7caf36f258a9fcb6091bf643084ad00f22d9121771)], [uint256(0x24c34c5d910ed5ca19527044658583eb2d55d563eec24ad73d2e1bca1c6d68df), uint256(0x2b3d4d65dfbf6921db931526703be5c65335b6dc3b70802cc7c736b51e0df043)]) */\n      dup2\n      mstore\n      pop\n      dup2\n      mstore\n      0x20\n      add\n      mload(0x40)\n      dup1\n      0x40\n      add\n      0x40\n      mstore\n      dup1\n        /* \"zkfun/verifier.sol\":7771:7837  0x24c34c5d910ed5ca19527044658583eb2d55d563eec24ad73d2e1bca1c6d68df */\n      0x24c34c5d910ed5ca19527044658583eb2d55d563eec24ad73d2e1bca1c6d68df\n        /* \"zkfun/verifier.sol\":7590:7917  Pairing.G2Point([uint256(0x0195662174889172211dd148d40b1693dcdc55965a46dfad6ce0b7fe82b0a63e), uint256(0x1d5ec1b5e38ebfeff940df7caf36f258a9fcb6091bf643084ad00f22d9121771)], [uint256(0x24c34c5d910ed5ca19527044658583eb2d55d563eec24ad73d2e1bca1c6d68df), uint256(0x2b3d4d65dfbf6921db931526703be5c65335b6dc3b70802cc7c736b51e0df043)]) */\n      dup2\n      mstore\n      0x20\n      add\n        /* \"zkfun/verifier.sol\":7848:7914  0x2b3d4d65dfbf6921db931526703be5c65335b6dc3b70802cc7c736b51e0df043 */\n      0x2b3d4d65dfbf6921db931526703be5c65335b6dc3b70802cc7c736b51e0df043\n        /* \"zkfun/verifier.sol\":7590:7917  Pairing.G2Point([uint256(0x0195662174889172211dd148d40b1693dcdc55965a46dfad6ce0b7fe82b0a63e), uint256(0x1d5ec1b5e38ebfeff940df7caf36f258a9fcb6091bf643084ad00f22d9121771)], [uint256(0x24c34c5d910ed5ca19527044658583eb2d55d563eec24ad73d2e1bca1c6d68df), uint256(0x2b3d4d65dfbf6921db931526703be5c65335b6dc3b70802cc7c736b51e0df043)]) */\n      dup2\n      mstore\n      pop\n      dup2\n      mstore\n      pop\n        /* \"zkfun/verifier.sol\":7579:7581  vk */\n      dup2\n        /* \"zkfun/verifier.sol\":7579:7587  vk.delta */\n      0x60\n      add\n        /* \"zkfun/verifier.sol\":7579:7917  vk.delta = Pairing.G2Point([uint256(0x0195662174889172211dd148d40b1693dcdc55965a46dfad6ce0b7fe82b0a63e), uint256(0x1d5ec1b5e38ebfeff940df7caf36f258a9fcb6091bf643084ad00f22d9121771)], [uint256(0x24c34c5d910ed5ca19527044658583eb2d55d563eec24ad73d2e1bca1c6d68df), uint256(0x2b3d4d65dfbf6921db931526703be5c65335b6dc3b70802cc7c736b51e0df043)]) */\n      dup2\n      swap1\n      mstore\n      pop\n        /* \"zkfun/verifier.sol\":7964:7965  1 */\n      0x01\n        /* \"zkfun/verifier.sol\":7942:7966  new Pairing.G1Point[](1) */\n      0xffffffffffffffff\n      dup2\n      gt\n      iszero\n      tag_56\n      jumpi\n      tag_57\n      tag_13\n      jump\t// in\n    tag_57:\n    tag_56:\n      mload(0x40)\n      swap1\n      dup1\n      dup3\n      mstore\n      dup1\n      0x20\n      mul\n      0x20\n      add\n      dup3\n      add\n      0x40\n      mstore\n      dup1\n      iszero\n      tag_58\n      jumpi\n      dup2\n      0x20\n      add\n    tag_59:\n      tag_60\n      tag_61\n      jump\t// in\n    tag_60:\n      dup2\n      mstore\n      0x20\n      add\n      swap1\n      0x01\n      swap1\n      sub\n      swap1\n      dup2\n      tag_59\n      jumpi\n      swap1\n      pop\n    tag_58:\n      pop\n        /* \"zkfun/verifier.sol\":7927:7929  vk */\n      dup2\n        /* \"zkfun/verifier.sol\":7927:7939  vk.gamma_abc */\n      0x80\n      add\n        /* \"zkfun/verifier.sol\":7927:7966  vk.gamma_abc = new Pairing.G1Point[](1) */\n      dup2\n      swap1\n      mstore\n      pop\n        /* \"zkfun/verifier.sol\":7994:8163  Pairing.G1Point(uint256(0x012f2d9f7bac40de2e42c343af97c7ea513d9c2add1bf91dce58cf9215cb9d2d), uint256(0x1df5488f3315e1d47726d6fed303482be76a6a87e91aa70f7ece33df6733749f)) */\n      mload(0x40)\n      dup1\n      0x40\n      add\n      0x40\n      mstore\n      dup1\n        /* \"zkfun/verifier.sol\":8018:8084  0x012f2d9f7bac40de2e42c343af97c7ea513d9c2add1bf91dce58cf9215cb9d2d */\n      0x012f2d9f7bac40de2e42c343af97c7ea513d9c2add1bf91dce58cf9215cb9d2d\n        /* \"zkfun/verifier.sol\":7994:8163  Pairing.G1Point(uint256(0x012f2d9f7bac40de2e42c343af97c7ea513d9c2add1bf91dce58cf9215cb9d2d), uint256(0x1df5488f3315e1d47726d6fed303482be76a6a87e91aa70f7ece33df6733749f)) */\n      dup2\n      mstore\n      0x20\n      add\n        /* \"zkfun/verifier.sol\":8095:8161  0x1df5488f3315e1d47726d6fed303482be76a6a87e91aa70f7ece33df6733749f */\n      0x1df5488f3315e1d47726d6fed303482be76a6a87e91aa70f7ece33df6733749f\n        /* \"zkfun/verifier.sol\":7994:8163  Pairing.G1Point(uint256(0x012f2d9f7bac40de2e42c343af97c7ea513d9c2add1bf91dce58cf9215cb9d2d), uint256(0x1df5488f3315e1d47726d6fed303482be76a6a87e91aa70f7ece33df6733749f)) */\n      dup2\n      mstore\n      pop\n        /* \"zkfun/verifier.sol\":7976:7978  vk */\n      dup2\n        /* \"zkfun/verifier.sol\":7976:7988  vk.gamma_abc */\n      0x80\n      add\n      mload\n        /* \"zkfun/verifier.sol\":7989:7990  0 */\n      0x00\n        /* \"zkfun/verifier.sol\":7976:7991  vk.gamma_abc[0] */\n      dup2\n      mload\n      dup2\n      lt\n      tag_62\n      jumpi\n      tag_63\n      tag_30\n      jump\t// in\n    tag_63:\n    tag_62:\n      0x20\n      mul\n      0x20\n      add\n      add\n        /* \"zkfun/verifier.sol\":7976:8163  vk.gamma_abc[0] = Pairing.G1Point(uint256(0x012f2d9f7bac40de2e42c343af97c7ea513d9c2add1bf91dce58cf9215cb9d2d), uint256(0x1df5488f3315e1d47726d6fed303482be76a6a87e91aa70f7ece33df6733749f)) */\n      dup2\n      swap1\n      mstore\n      pop\n        /* \"zkfun/verifier.sol\":6613:8170  function verifyingKey() pure internal returns (VerifyingKey memory vk) {... */\n      swap1\n      jump\t// out\n        /* \"zkfun/verifier.sol\":3114:3568  function scalar_mul(G1Point memory p, uint s) internal view returns (G1Point memory r) {... */\n    tag_39:\n        /* \"zkfun/verifier.sol\":3183:3199  G1Point memory r */\n      tag_64\n      tag_61\n      jump\t// in\n    tag_64:\n        /* \"zkfun/verifier.sol\":3211:3231  uint[3] memory input */\n      tag_66\n      tag_67\n      jump\t// in\n    tag_66:\n        /* \"zkfun/verifier.sol\":3252:3253  p */\n      dup4\n        /* \"zkfun/verifier.sol\":3252:3255  p.X */\n      0x00\n      add\n      mload\n        /* \"zkfun/verifier.sol\":3241:3246  input */\n      dup2\n        /* \"zkfun/verifier.sol\":3247:3248  0 */\n      0x00\n        /* \"zkfun/verifier.sol\":3241:3249  input[0] */\n      0x03\n      dup2\n      lt\n      tag_68\n      jumpi\n      tag_69\n      tag_30\n      jump\t// in\n    tag_69:\n    tag_68:\n      0x20\n      mul\n      add\n        /* \"zkfun/verifier.sol\":3241:3255  input[0] = p.X */\n      dup2\n      dup2\n      mstore\n      pop\n      pop\n        /* \"zkfun/verifier.sol\":3276:3277  p */\n      dup4\n        /* \"zkfun/verifier.sol\":3276:3279  p.Y */\n      0x20\n      add\n      mload\n        /* \"zkfun/verifier.sol\":3265:3270  input */\n      dup2\n        /* \"zkfun/verifier.sol\":3271:3272  1 */\n      0x01\n        /* \"zkfun/verifier.sol\":3265:3273  input[1] */\n      0x03\n      dup2\n      lt\n      tag_70\n      jumpi\n      tag_71\n      tag_30\n      jump\t// in\n    tag_71:\n    tag_70:\n      0x20\n      mul\n      add\n        /* \"zkfun/verifier.sol\":3265:3279  input[1] = p.Y */\n      dup2\n      dup2\n      mstore\n      pop\n      pop\n        /* \"zkfun/verifier.sol\":3300:3301  s */\n      dup3\n        /* \"zkfun/verifier.sol\":3289:3294  input */\n      dup2\n        /* \"zkfun/verifier.sol\":3295:3296  2 */\n      0x02\n        /* \"zkfun/verifier.sol\":3289:3297  input[2] */\n      0x03\n      dup2\n      lt\n      tag_72\n      jumpi\n      tag_73\n      tag_30\n      jump\t// in\n    tag_73:\n    tag_72:\n      0x20\n      mul\n      add\n        /* \"zkfun/verifier.sol\":3289:3301  input[2] = s */\n      dup2\n      dup2\n      mstore\n      pop\n      pop\n        /* \"zkfun/verifier.sol\":3311:3323  bool success */\n      0x00\n        /* \"zkfun/verifier.sol\":3415:3419  0x60 */\n      0x60\n        /* \"zkfun/verifier.sol\":3412:3413  r */\n      dup4\n        /* \"zkfun/verifier.sol\":3406:3410  0x80 */\n      0x80\n        /* \"zkfun/verifier.sol\":3399:3404  input */\n      dup5\n        /* \"zkfun/verifier.sol\":3396:3397  7 */\n      0x07\n        /* \"zkfun/verifier.sol\":3389:3393  2000 */\n      0x07d0\n        /* \"zkfun/verifier.sol\":3382:3387  gas() */\n      gas\n        /* \"zkfun/verifier.sol\":3378:3394  sub(gas(), 2000) */\n      sub\n        /* \"zkfun/verifier.sol\":3367:3420  staticcall(sub(gas(), 2000), 7, input, 0x80, r, 0x60) */\n      staticcall\n        /* \"zkfun/verifier.sol\":3356:3420  success := staticcall(sub(gas(), 2000), 7, input, 0x80, r, 0x60) */\n      swap1\n      pop\n        /* \"zkfun/verifier.sol\":3497:3504  success */\n      dup1\n        /* \"zkfun/verifier.sol\":3510:3511  0 */\n      0x00\n        /* \"zkfun/verifier.sol\":3505:3525  case 0 { invalid() } */\n      dup2\n      eq\n      tag_75\n      jumpi\n        /* \"zkfun/verifier.sol\":3490:3525  switch success case 0 { invalid() } */\n      jump(tag_74)\n        /* \"zkfun/verifier.sol\":3505:3525  case 0 { invalid() } */\n    tag_75:\n        /* \"zkfun/verifier.sol\":3514:3523  invalid() */\n      invalid\n        /* \"zkfun/verifier.sol\":3490:3525  switch success case 0 { invalid() } */\n    tag_74:\n      pop\n        /* \"zkfun/verifier.sol\":3553:3560  success */\n      dup1\n        /* \"zkfun/verifier.sol\":3544:3561  require (success) */\n      tag_76\n      jumpi\n      0x00\n      dup1\n      revert\n    tag_76:\n        /* \"zkfun/verifier.sol\":3201:3568  {... */\n      pop\n      pop\n        /* \"zkfun/verifier.sol\":3114:3568  function scalar_mul(G1Point memory p, uint s) internal view returns (G1Point memory r) {... */\n      swap3\n      swap2\n      pop\n      pop\n      jump\t// out\n        /* \"zkfun/verifier.sol\":2464:2957  function addition(G1Point memory p1, G1Point memory p2) internal view returns (G1Point memory r) {... */\n    tag_40:\n        /* \"zkfun/verifier.sol\":2543:2559  G1Point memory r */\n      tag_77\n      tag_61\n      jump\t// in\n    tag_77:\n        /* \"zkfun/verifier.sol\":2571:2591  uint[4] memory input */\n      tag_79\n      tag_80\n      jump\t// in\n    tag_79:\n        /* \"zkfun/verifier.sol\":2612:2614  p1 */\n      dup4\n        /* \"zkfun/verifier.sol\":2612:2616  p1.X */\n      0x00\n      add\n      mload\n        /* \"zkfun/verifier.sol\":2601:2606  input */\n      dup2\n        /* \"zkfun/verifier.sol\":2607:2608  0 */\n      0x00\n        /* \"zkfun/verifier.sol\":2601:2609  input[0] */\n      0x04\n      dup2\n      lt\n      tag_81\n      jumpi\n      tag_82\n      tag_30\n      jump\t// in\n    tag_82:\n    tag_81:\n      0x20\n      mul\n      add\n        /* \"zkfun/verifier.sol\":2601:2616  input[0] = p1.X */\n      dup2\n      dup2\n      mstore\n      pop\n      pop\n        /* \"zkfun/verifier.sol\":2637:2639  p1 */\n      dup4\n        /* \"zkfun/verifier.sol\":2637:2641  p1.Y */\n      0x20\n      add\n      mload\n        /* \"zkfun/verifier.sol\":2626:2631  input */\n      dup2\n        /* \"zkfun/verifier.sol\":2632:2633  1 */\n      0x01\n        /* \"zkfun/verifier.sol\":2626:2634  input[1] */\n      0x04\n      dup2\n      lt\n      tag_83\n      jumpi\n      tag_84\n      tag_30\n      jump\t// in\n    tag_84:\n    tag_83:\n      0x20\n      mul\n      add\n        /* \"zkfun/verifier.sol\":2626:2641  input[1] = p1.Y */\n      dup2\n      dup2\n      mstore\n      pop\n      pop\n        /* \"zkfun/verifier.sol\":2662:2664  p2 */\n      dup3\n        /* \"zkfun/verifier.sol\":2662:2666  p2.X */\n      0x00\n      add\n      mload\n        /* \"zkfun/verifier.sol\":2651:2656  input */\n      dup2\n        /* \"zkfun/verifier.sol\":2657:2658  2 */\n      0x02\n        /* \"zkfun/verifier.sol\":2651:2659  input[2] */\n      0x04\n      dup2\n      lt\n      tag_85\n      jumpi\n      tag_86\n      tag_30\n      jump\t// in\n    tag_86:\n    tag_85:\n      0x20\n      mul\n      add\n        /* \"zkfun/verifier.sol\":2651:2666  input[2] = p2.X */\n      dup2\n      dup2\n      mstore\n      pop\n      pop\n        /* \"zkfun/verifier.sol\":2687:2689  p2 */\n      dup3\n        /* \"zkfun/verifier.sol\":2687:2691  p2.Y */\n      0x20\n      add\n      mload\n        /* \"zkfun/verifier.sol\":2676:2681  input */\n      dup2\n        /* \"zkfun/verifier.sol\":2682:2683  3 */\n      0x03\n        /* \"zkfun/verifier.sol\":2676:2684  input[3] */\n      0x04\n      dup2\n      lt\n      tag_87\n      jumpi\n      tag_88\n      tag_30\n      jump\t// in\n    tag_88:\n    tag_87:\n      0x20\n      mul\n      add\n        /* \"zkfun/verifier.sol\":2676:2691  input[3] = p2.Y */\n      dup2\n      dup2\n      mstore\n      pop\n      pop\n        /* \"zkfun/verifier.sol\":2701:2713  bool success */\n      0x00\n        /* \"zkfun/verifier.sol\":2805:2809  0x60 */\n      0x60\n        /* \"zkfun/verifier.sol\":2802:2803  r */\n      dup4\n        /* \"zkfun/verifier.sol\":2796:2800  0xc0 */\n      0xc0\n        /* \"zkfun/verifier.sol\":2789:2794  input */\n      dup5\n        /* \"zkfun/verifier.sol\":2786:2787  6 */\n      0x06\n        /* \"zkfun/verifier.sol\":2779:2783  2000 */\n      0x07d0\n        /* \"zkfun/verifier.sol\":2772:2777  gas() */\n      gas\n        /* \"zkfun/verifier.sol\":2768:2784  sub(gas(), 2000) */\n      sub\n        /* \"zkfun/verifier.sol\":2757:2810  staticcall(sub(gas(), 2000), 6, input, 0xc0, r, 0x60) */\n      staticcall\n        /* \"zkfun/verifier.sol\":2746:2810  success := staticcall(sub(gas(), 2000), 6, input, 0xc0, r, 0x60) */\n      swap1\n      pop\n        /* \"zkfun/verifier.sol\":2887:2894  success */\n      dup1\n        /* \"zkfun/verifier.sol\":2900:2901  0 */\n      0x00\n        /* \"zkfun/verifier.sol\":2895:2915  case 0 { invalid() } */\n      dup2\n      eq\n      tag_90\n      jumpi\n        /* \"zkfun/verifier.sol\":2880:2915  switch success case 0 { invalid() } */\n      jump(tag_89)\n        /* \"zkfun/verifier.sol\":2895:2915  case 0 { invalid() } */\n    tag_90:\n        /* \"zkfun/verifier.sol\":2904:2913  invalid() */\n      invalid\n        /* \"zkfun/verifier.sol\":2880:2915  switch success case 0 { invalid() } */\n    tag_89:\n      pop\n        /* \"zkfun/verifier.sol\":2942:2949  success */\n      dup1\n        /* \"zkfun/verifier.sol\":2934:2950  require(success) */\n      tag_91\n      jumpi\n      0x00\n      dup1\n      revert\n    tag_91:\n        /* \"zkfun/verifier.sol\":2561:2957  {... */\n      pop\n      pop\n        /* \"zkfun/verifier.sol\":2464:2957  function addition(G1Point memory p1, G1Point memory p2) internal view returns (G1Point memory r) {... */\n      swap3\n      swap2\n      pop\n      pop\n      jump\t// out\n        /* \"zkfun/verifier.sol\":2073:2413  function negate(G1Point memory p) pure internal returns (G1Point memory) {... */\n    tag_48:\n        /* \"zkfun/verifier.sol\":2130:2144  G1Point memory */\n      tag_92\n      tag_61\n      jump\t// in\n    tag_92:\n        /* \"zkfun/verifier.sol\":2208:2214  uint q */\n      0x00\n        /* \"zkfun/verifier.sol\":2217:2294  21888242871839275222246405745257275088696311157297823662689037894645226208583 */\n      0x30644e72e131a029b85045b68181585d97816a916871ca8d3c208c16d87cfd47\n        /* \"zkfun/verifier.sol\":2208:2294  uint q = 21888242871839275222246405745257275088696311157297823662689037894645226208583 */\n      swap1\n      pop\n        /* \"zkfun/verifier.sol\":2315:2316  0 */\n      0x00\n        /* \"zkfun/verifier.sol\":2308:2309  p */\n      dup4\n        /* \"zkfun/verifier.sol\":2308:2311  p.X */\n      0x00\n      add\n      mload\n        /* \"zkfun/verifier.sol\":2308:2316  p.X == 0 */\n      eq\n        /* \"zkfun/verifier.sol\":2308:2328  p.X == 0 && p.Y == 0 */\n      dup1\n      iszero\n      tag_94\n      jumpi\n      pop\n        /* \"zkfun/verifier.sol\":2327:2328  0 */\n      0x00\n        /* \"zkfun/verifier.sol\":2320:2321  p */\n      dup4\n        /* \"zkfun/verifier.sol\":2320:2323  p.Y */\n      0x20\n      add\n      mload\n        /* \"zkfun/verifier.sol\":2320:2328  p.Y == 0 */\n      eq\n        /* \"zkfun/verifier.sol\":2308:2328  p.X == 0 && p.Y == 0 */\n    tag_94:\n        /* \"zkfun/verifier.sol\":2304:2362  if (p.X == 0 && p.Y == 0)... */\n      iszero\n      tag_95\n      jumpi\n        /* \"zkfun/verifier.sol\":2349:2362  G1Point(0, 0) */\n      mload(0x40)\n      dup1\n      0x40\n      add\n      0x40\n      mstore\n      dup1\n        /* \"zkfun/verifier.sol\":2357:2358  0 */\n      0x00\n        /* \"zkfun/verifier.sol\":2349:2362  G1Point(0, 0) */\n      dup2\n      mstore\n      0x20\n      add\n        /* \"zkfun/verifier.sol\":2360:2361  0 */\n      0x00\n        /* \"zkfun/verifier.sol\":2349:2362  G1Point(0, 0) */\n      dup2\n      mstore\n      pop\n        /* \"zkfun/verifier.sol\":2342:2362  return G1Point(0, 0) */\n      swap2\n      pop\n      pop\n      jump(tag_93)\n        /* \"zkfun/verifier.sol\":2304:2362  if (p.X == 0 && p.Y == 0)... */\n    tag_95:\n        /* \"zkfun/verifier.sol\":2379:2406  G1Point(p.X, q - (p.Y % q)) */\n      mload(0x40)\n      dup1\n      0x40\n      add\n      0x40\n      mstore\n      dup1\n        /* \"zkfun/verifier.sol\":2387:2388  p */\n      dup5\n        /* \"zkfun/verifier.sol\":2387:2390  p.X */\n      0x00\n      add\n      mload\n        /* \"zkfun/verifier.sol\":2379:2406  G1Point(p.X, q - (p.Y % q)) */\n      dup2\n      mstore\n      0x20\n      add\n        /* \"zkfun/verifier.sol\":2403:2404  q */\n      dup3\n        /* \"zkfun/verifier.sol\":2397:2398  p */\n      dup6\n        /* \"zkfun/verifier.sol\":2397:2400  p.Y */\n      0x20\n      add\n      mload\n        /* \"zkfun/verifier.sol\":2397:2404  p.Y % q */\n      tag_96\n      swap2\n      swap1\n      tag_97\n      jump\t// in\n    tag_96:\n        /* \"zkfun/verifier.sol\":2392:2393  q */\n      dup4\n        /* \"zkfun/verifier.sol\":2392:2405  q - (p.Y % q) */\n      tag_98\n      swap2\n      swap1\n      tag_99\n      jump\t// in\n    tag_98:\n        /* \"zkfun/verifier.sol\":2379:2406  G1Point(p.X, q - (p.Y % q)) */\n      dup2\n      mstore\n      pop\n        /* \"zkfun/verifier.sol\":2372:2406  return G1Point(p.X, q - (p.Y % q)) */\n      swap2\n      pop\n      pop\n        /* \"zkfun/verifier.sol\":2073:2413  function negate(G1Point memory p) pure internal returns (G1Point memory) {... */\n    tag_93:\n      swap2\n      swap1\n      pop\n      jump\t// out\n        /* \"zkfun/verifier.sol\":5710:6262  function pairingProd4(... */\n    tag_51:\n        /* \"zkfun/verifier.sol\":5961:5965  bool */\n      0x00\n        /* \"zkfun/verifier.sol\":5977:5996  G1Point[] memory p1 */\n      dup1\n        /* \"zkfun/verifier.sol\":6013:6014  4 */\n      0x04\n        /* \"zkfun/verifier.sol\":5999:6015  new G1Point[](4) */\n      0xffffffffffffffff\n      dup2\n      gt\n      iszero\n      tag_101\n      jumpi\n      tag_102\n      tag_13\n      jump\t// in\n    tag_102:\n    tag_101:\n      mload(0x40)\n      swap1\n      dup1\n      dup3\n      mstore\n      dup1\n      0x20\n      mul\n      0x20\n      add\n      dup3\n      add\n      0x40\n      mstore\n      dup1\n      iszero\n      tag_103\n      jumpi\n      dup2\n      0x20\n      add\n    tag_104:\n      tag_105\n      tag_61\n      jump\t// in\n    tag_105:\n      dup2\n      mstore\n      0x20\n      add\n      swap1\n      0x01\n      swap1\n      sub\n      swap1\n      dup2\n      tag_104\n      jumpi\n      swap1\n      pop\n    tag_103:\n      pop\n        /* \"zkfun/verifier.sol\":5977:6015  G1Point[] memory p1 = new G1Point[](4) */\n      swap1\n      pop\n        /* \"zkfun/verifier.sol\":6025:6044  G2Point[] memory p2 */\n      0x00\n        /* \"zkfun/verifier.sol\":6061:6062  4 */\n      0x04\n        /* \"zkfun/verifier.sol\":6047:6063  new G2Point[](4) */\n      0xffffffffffffffff\n      dup2\n      gt\n      iszero\n      tag_106\n      jumpi\n      tag_107\n      tag_13\n      jump\t// in\n    tag_107:\n    tag_106:\n      mload(0x40)\n      swap1\n      dup1\n      dup3\n      mstore\n      dup1\n      0x20\n      mul\n      0x20\n      add\n      dup3\n      add\n      0x40\n      mstore\n      dup1\n      iszero\n      tag_108\n      jumpi\n      dup2\n      0x20\n      add\n    tag_109:\n      tag_110\n      tag_111\n      jump\t// in\n    tag_110:\n      dup2\n      mstore\n      0x20\n      add\n      swap1\n      0x01\n      swap1\n      sub\n      swap1\n      dup2\n      tag_109\n      jumpi\n      swap1\n      pop\n    tag_108:\n      pop\n        /* \"zkfun/verifier.sol\":6025:6063  G2Point[] memory p2 = new G2Point[](4) */\n      swap1\n      pop\n        /* \"zkfun/verifier.sol\":6081:6083  a1 */\n      dup11\n        /* \"zkfun/verifier.sol\":6073:6075  p1 */\n      dup3\n        /* \"zkfun/verifier.sol\":6076:6077  0 */\n      0x00\n        /* \"zkfun/verifier.sol\":6073:6078  p1[0] */\n      dup2\n      mload\n      dup2\n      lt\n      tag_112\n      jumpi\n      tag_113\n      tag_30\n      jump\t// in\n    tag_113:\n    tag_112:\n      0x20\n      mul\n      0x20\n      add\n      add\n        /* \"zkfun/verifier.sol\":6073:6083  p1[0] = a1 */\n      dup2\n      swap1\n      mstore\n      pop\n        /* \"zkfun/verifier.sol\":6101:6103  b1 */\n      dup9\n        /* \"zkfun/verifier.sol\":6093:6095  p1 */\n      dup3\n        /* \"zkfun/verifier.sol\":6096:6097  1 */\n      0x01\n        /* \"zkfun/verifier.sol\":6093:6098  p1[1] */\n      dup2\n      mload\n      dup2\n      lt\n      tag_114\n      jumpi\n      tag_115\n      tag_30\n      jump\t// in\n    tag_115:\n    tag_114:\n      0x20\n      mul\n      0x20\n      add\n      add\n        /* \"zkfun/verifier.sol\":6093:6103  p1[1] = b1 */\n      dup2\n      swap1\n      mstore\n      pop\n        /* \"zkfun/verifier.sol\":6121:6123  c1 */\n      dup7\n        /* \"zkfun/verifier.sol\":6113:6115  p1 */\n      dup3\n        /* \"zkfun/verifier.sol\":6116:6117  2 */\n      0x02\n        /* \"zkfun/verifier.sol\":6113:6118  p1[2] */\n      dup2\n      mload\n      dup2\n      lt\n      tag_116\n      jumpi\n      tag_117\n      tag_30\n      jump\t// in\n    tag_117:\n    tag_116:\n      0x20\n      mul\n      0x20\n      add\n      add\n        /* \"zkfun/verifier.sol\":6113:6123  p1[2] = c1 */\n      dup2\n      swap1\n      mstore\n      pop\n        /* \"zkfun/verifier.sol\":6141:6143  d1 */\n      dup5\n        /* \"zkfun/verifier.sol\":6133:6135  p1 */\n      dup3\n        /* \"zkfun/verifier.sol\":6136:6137  3 */\n      0x03\n        /* \"zkfun/verifier.sol\":6133:6138  p1[3] */\n      dup2\n      mload\n      dup2\n      lt\n      tag_118\n      jumpi\n      tag_119\n      tag_30\n      jump\t// in\n    tag_119:\n    tag_118:\n      0x20\n      mul\n      0x20\n      add\n      add\n        /* \"zkfun/verifier.sol\":6133:6143  p1[3] = d1 */\n      dup2\n      swap1\n      mstore\n      pop\n        /* \"zkfun/verifier.sol\":6161:6163  a2 */\n      dup10\n        /* \"zkfun/verifier.sol\":6153:6155  p2 */\n      dup2\n        /* \"zkfun/verifier.sol\":6156:6157  0 */\n      0x00\n        /* \"zkfun/verifier.sol\":6153:6158  p2[0] */\n      dup2\n      mload\n      dup2\n      lt\n      tag_120\n      jumpi\n      tag_121\n      tag_30\n      jump\t// in\n    tag_121:\n    tag_120:\n      0x20\n      mul\n      0x20\n      add\n      add\n        /* \"zkfun/verifier.sol\":6153:6163  p2[0] = a2 */\n      dup2\n      swap1\n      mstore\n      pop\n        /* \"zkfun/verifier.sol\":6181:6183  b2 */\n      dup8\n        /* \"zkfun/verifier.sol\":6173:6175  p2 */\n      dup2\n        /* \"zkfun/verifier.sol\":6176:6177  1 */\n      0x01\n        /* \"zkfun/verifier.sol\":6173:6178  p2[1] */\n      dup2\n      mload\n      dup2\n      lt\n      tag_122\n      jumpi\n      tag_123\n      tag_30\n      jump\t// in\n    tag_123:\n    tag_122:\n      0x20\n      mul\n      0x20\n      add\n      add\n        /* \"zkfun/verifier.sol\":6173:6183  p2[1] = b2 */\n      dup2\n      swap1\n      mstore\n      pop\n        /* \"zkfun/verifier.sol\":6201:6203  c2 */\n      dup6\n        /* \"zkfun/verifier.sol\":6193:6195  p2 */\n      dup2\n        /* \"zkfun/verifier.sol\":6196:6197  2 */\n      0x02\n        /* \"zkfun/verifier.sol\":6193:6198  p2[2] */\n      dup2\n      mload\n      dup2\n      lt\n      tag_124\n      jumpi\n      tag_125\n      tag_30\n      jump\t// in\n    tag_125:\n    tag_124:\n      0x20\n      mul\n      0x20\n      add\n      add\n        /* \"zkfun/verifier.sol\":6193:6203  p2[2] = c2 */\n      dup2\n      swap1\n      mstore\n      pop\n        /* \"zkfun/verifier.sol\":6221:6223  d2 */\n      dup4\n        /* \"zkfun/verifier.sol\":6213:6215  p2 */\n      dup2\n        /* \"zkfun/verifier.sol\":6216:6217  3 */\n      0x03\n        /* \"zkfun/verifier.sol\":6213:6218  p2[3] */\n      dup2\n      mload\n      dup2\n      lt\n      tag_126\n      jumpi\n      tag_127\n      tag_30\n      jump\t// in\n    tag_127:\n    tag_126:\n      0x20\n      mul\n      0x20\n      add\n      add\n        /* \"zkfun/verifier.sol\":6213:6223  p2[3] = d2 */\n      dup2\n      swap1\n      mstore\n      pop\n        /* \"zkfun/verifier.sol\":6240:6255  pairing(p1, p2) */\n      tag_128\n        /* \"zkfun/verifier.sol\":6248:6250  p1 */\n      dup3\n        /* \"zkfun/verifier.sol\":6252:6254  p2 */\n      dup3\n        /* \"zkfun/verifier.sol\":6240:6247  pairing */\n      tag_129\n        /* \"zkfun/verifier.sol\":6240:6255  pairing(p1, p2) */\n      jump\t// in\n    tag_128:\n        /* \"zkfun/verifier.sol\":6233:6255  return pairing(p1, p2) */\n      swap3\n      pop\n      pop\n      pop\n        /* \"zkfun/verifier.sol\":5710:6262  function pairingProd4(... */\n      swap9\n      swap8\n      pop\n      pop\n      pop\n      pop\n      pop\n      pop\n      pop\n      pop\n      jump\t// out\n        /* \"zkfun/verifier.sol\":3779:4702  function pairing(G1Point[] memory p1, G2Point[] memory p2) internal view returns (bool) {... */\n    tag_129:\n        /* \"zkfun/verifier.sol\":3861:3865  bool */\n      0x00\n        /* \"zkfun/verifier.sol\":3898:3900  p2 */\n      dup2\n        /* \"zkfun/verifier.sol\":3898:3907  p2.length */\n      mload\n        /* \"zkfun/verifier.sol\":3885:3887  p1 */\n      dup4\n        /* \"zkfun/verifier.sol\":3885:3894  p1.length */\n      mload\n        /* \"zkfun/verifier.sol\":3885:3907  p1.length == p2.length */\n      eq\n        /* \"zkfun/verifier.sol\":3877:3908  require(p1.length == p2.length) */\n      tag_131\n      jumpi\n      0x00\n      dup1\n      revert\n    tag_131:\n        /* \"zkfun/verifier.sol\":3918:3931  uint elements */\n      0x00\n        /* \"zkfun/verifier.sol\":3934:3936  p1 */\n      dup4\n        /* \"zkfun/verifier.sol\":3934:3943  p1.length */\n      mload\n        /* \"zkfun/verifier.sol\":3918:3943  uint elements = p1.length */\n      swap1\n      pop\n        /* \"zkfun/verifier.sol\":3953:3967  uint inputSize */\n      0x00\n        /* \"zkfun/verifier.sol\":3981:3982  6 */\n      0x06\n        /* \"zkfun/verifier.sol\":3970:3978  elements */\n      dup3\n        /* \"zkfun/verifier.sol\":3970:3982  elements * 6 */\n      tag_132\n      swap2\n      swap1\n      tag_133\n      jump\t// in\n    tag_132:\n        /* \"zkfun/verifier.sol\":3953:3982  uint inputSize = elements * 6 */\n      swap1\n      pop\n        /* \"zkfun/verifier.sol\":3992:4011  uint[] memory input */\n      0x00\n        /* \"zkfun/verifier.sol\":4025:4034  inputSize */\n      dup2\n        /* \"zkfun/verifier.sol\":4014:4035  new uint[](inputSize) */\n      0xffffffffffffffff\n      dup2\n      gt\n      iszero\n      tag_134\n      jumpi\n      tag_135\n      tag_13\n      jump\t// in\n    tag_135:\n    tag_134:\n      mload(0x40)\n      swap1\n      dup1\n      dup3\n      mstore\n      dup1\n      0x20\n      mul\n      0x20\n      add\n      dup3\n      add\n      0x40\n      mstore\n      dup1\n      iszero\n      tag_136\n      jumpi\n      dup2\n      0x20\n      add\n      0x20\n      dup3\n      mul\n      dup1\n      calldatasize\n      dup4\n      calldatacopy\n      dup1\n      dup3\n      add\n      swap2\n      pop\n      pop\n      swap1\n      pop\n    tag_136:\n      pop\n        /* \"zkfun/verifier.sol\":3992:4035  uint[] memory input = new uint[](inputSize) */\n      swap1\n      pop\n        /* \"zkfun/verifier.sol\":4050:4056  uint i */\n      0x00\n        /* \"zkfun/verifier.sol\":4045:4352  for (uint i = 0; i < elements; i++)... */\n    tag_137:\n        /* \"zkfun/verifier.sol\":4066:4074  elements */\n      dup4\n        /* \"zkfun/verifier.sol\":4062:4063  i */\n      dup2\n        /* \"zkfun/verifier.sol\":4062:4074  i < elements */\n      lt\n        /* \"zkfun/verifier.sol\":4045:4352  for (uint i = 0; i < elements; i++)... */\n      iszero\n      tag_138\n      jumpi\n        /* \"zkfun/verifier.sol\":4122:4124  p1 */\n      dup7\n        /* \"zkfun/verifier.sol\":4125:4126  i */\n      dup2\n        /* \"zkfun/verifier.sol\":4122:4127  p1[i] */\n      dup2\n      mload\n      dup2\n      lt\n      tag_140\n      jumpi\n      tag_141\n      tag_30\n      jump\t// in\n    tag_141:\n    tag_140:\n      0x20\n      mul\n      0x20\n      add\n      add\n      mload\n        /* \"zkfun/verifier.sol\":4122:4129  p1[i].X */\n      0x00\n      add\n      mload\n        /* \"zkfun/verifier.sol\":4103:4108  input */\n      dup3\n        /* \"zkfun/verifier.sol\":4117:4118  0 */\n      0x00\n        /* \"zkfun/verifier.sol\":4113:4114  6 */\n      0x06\n        /* \"zkfun/verifier.sol\":4109:4110  i */\n      dup5\n        /* \"zkfun/verifier.sol\":4109:4114  i * 6 */\n      tag_142\n      swap2\n      swap1\n      tag_133\n      jump\t// in\n    tag_142:\n        /* \"zkfun/verifier.sol\":4109:4118  i * 6 + 0 */\n      tag_143\n      swap2\n      swap1\n      tag_23\n      jump\t// in\n    tag_143:\n        /* \"zkfun/verifier.sol\":4103:4119  input[i * 6 + 0] */\n      dup2\n      mload\n      dup2\n      lt\n      tag_144\n      jumpi\n      tag_145\n      tag_30\n      jump\t// in\n    tag_145:\n    tag_144:\n      0x20\n      mul\n      0x20\n      add\n      add\n        /* \"zkfun/verifier.sol\":4103:4129  input[i * 6 + 0] = p1[i].X */\n      dup2\n      dup2\n      mstore\n      pop\n      pop\n        /* \"zkfun/verifier.sol\":4162:4164  p1 */\n      dup7\n        /* \"zkfun/verifier.sol\":4165:4166  i */\n      dup2\n        /* \"zkfun/verifier.sol\":4162:4167  p1[i] */\n      dup2\n      mload\n      dup2\n      lt\n      tag_146\n      jumpi\n      tag_147\n      tag_30\n      jump\t// in\n    tag_147:\n    tag_146:\n      0x20\n      mul\n      0x20\n      add\n      add\n      mload\n        /* \"zkfun/verifier.sol\":4162:4169  p1[i].Y */\n      0x20\n      add\n      mload\n        /* \"zkfun/verifier.sol\":4143:4148  input */\n      dup3\n        /* \"zkfun/verifier.sol\":4157:4158  1 */\n      0x01\n        /* \"zkfun/verifier.sol\":4153:4154  6 */\n      0x06\n        /* \"zkfun/verifier.sol\":4149:4150  i */\n      dup5\n        /* \"zkfun/verifier.sol\":4149:4154  i * 6 */\n      tag_148\n      swap2\n      swap1\n      tag_133\n      jump\t// in\n    tag_148:\n        /* \"zkfun/verifier.sol\":4149:4158  i * 6 + 1 */\n      tag_149\n      swap2\n      swap1\n      tag_23\n      jump\t// in\n    tag_149:\n        /* \"zkfun/verifier.sol\":4143:4159  input[i * 6 + 1] */\n      dup2\n      mload\n      dup2\n      lt\n      tag_150\n      jumpi\n      tag_151\n      tag_30\n      jump\t// in\n    tag_151:\n    tag_150:\n      0x20\n      mul\n      0x20\n      add\n      add\n        /* \"zkfun/verifier.sol\":4143:4169  input[i * 6 + 1] = p1[i].Y */\n      dup2\n      dup2\n      mstore\n      pop\n      pop\n        /* \"zkfun/verifier.sol\":4202:4204  p2 */\n      dup6\n        /* \"zkfun/verifier.sol\":4205:4206  i */\n      dup2\n        /* \"zkfun/verifier.sol\":4202:4207  p2[i] */\n      dup2\n      mload\n      dup2\n      lt\n      tag_152\n      jumpi\n      tag_153\n      tag_30\n      jump\t// in\n    tag_153:\n    tag_152:\n      0x20\n      mul\n      0x20\n      add\n      add\n      mload\n        /* \"zkfun/verifier.sol\":4202:4209  p2[i].X */\n      0x00\n      add\n      mload\n        /* \"zkfun/verifier.sol\":4210:4211  1 */\n      0x01\n        /* \"zkfun/verifier.sol\":4202:4212  p2[i].X[1] */\n      0x02\n      dup2\n      lt\n      tag_154\n      jumpi\n      tag_155\n      tag_30\n      jump\t// in\n    tag_155:\n    tag_154:\n      0x20\n      mul\n      add\n      mload\n        /* \"zkfun/verifier.sol\":4183:4188  input */\n      dup3\n        /* \"zkfun/verifier.sol\":4197:4198  2 */\n      0x02\n        /* \"zkfun/verifier.sol\":4193:4194  6 */\n      0x06\n        /* \"zkfun/verifier.sol\":4189:4190  i */\n      dup5\n        /* \"zkfun/verifier.sol\":4189:4194  i * 6 */\n      tag_156\n      swap2\n      swap1\n      tag_133\n      jump\t// in\n    tag_156:\n        /* \"zkfun/verifier.sol\":4189:4198  i * 6 + 2 */\n      tag_157\n      swap2\n      swap1\n      tag_23\n      jump\t// in\n    tag_157:\n        /* \"zkfun/verifier.sol\":4183:4199  input[i * 6 + 2] */\n      dup2\n      mload\n      dup2\n      lt\n      tag_158\n      jumpi\n      tag_159\n      tag_30\n      jump\t// in\n    tag_159:\n    tag_158:\n      0x20\n      mul\n      0x20\n      add\n      add\n        /* \"zkfun/verifier.sol\":4183:4212  input[i * 6 + 2] = p2[i].X[1] */\n      dup2\n      dup2\n      mstore\n      pop\n      pop\n        /* \"zkfun/verifier.sol\":4245:4247  p2 */\n      dup6\n        /* \"zkfun/verifier.sol\":4248:4249  i */\n      dup2\n        /* \"zkfun/verifier.sol\":4245:4250  p2[i] */\n      dup2\n      mload\n      dup2\n      lt\n      tag_160\n      jumpi\n      tag_161\n      tag_30\n      jump\t// in\n    tag_161:\n    tag_160:\n      0x20\n      mul\n      0x20\n      add\n      add\n      mload\n        /* \"zkfun/verifier.sol\":4245:4252  p2[i].X */\n      0x00\n      add\n      mload\n        /* \"zkfun/verifier.sol\":4253:4254  0 */\n      0x00\n        /* \"zkfun/verifier.sol\":4245:4255  p2[i].X[0] */\n      0x02\n      dup2\n      lt\n      tag_162\n      jumpi\n      tag_163\n      tag_30\n      jump\t// in\n    tag_163:\n    tag_162:\n      0x20\n      mul\n      add\n      mload\n        /* \"zkfun/verifier.sol\":4226:4231  input */\n      dup3\n        /* \"zkfun/verifier.sol\":4240:4241  3 */\n      0x03\n        /* \"zkfun/verifier.sol\":4236:4237  6 */\n      0x06\n        /* \"zkfun/verifier.sol\":4232:4233  i */\n      dup5\n        /* \"zkfun/verifier.sol\":4232:4237  i * 6 */\n      tag_164\n      swap2\n      swap1\n      tag_133\n      jump\t// in\n    tag_164:\n        /* \"zkfun/verifier.sol\":4232:4241  i * 6 + 3 */\n      tag_165\n      swap2\n      swap1\n      tag_23\n      jump\t// in\n    tag_165:\n        /* \"zkfun/verifier.sol\":4226:4242  input[i * 6 + 3] */\n      dup2\n      mload\n      dup2\n      lt\n      tag_166\n      jumpi\n      tag_167\n      tag_30\n      jump\t// in\n    tag_167:\n    tag_166:\n      0x20\n      mul\n      0x20\n      add\n      add\n        /* \"zkfun/verifier.sol\":4226:4255  input[i * 6 + 3] = p2[i].X[0] */\n      dup2\n      dup2\n      mstore\n      pop\n      pop\n        /* \"zkfun/verifier.sol\":4288:4290  p2 */\n      dup6\n        /* \"zkfun/verifier.sol\":4291:4292  i */\n      dup2\n        /* \"zkfun/verifier.sol\":4288:4293  p2[i] */\n      dup2\n      mload\n      dup2\n      lt\n      tag_168\n      jumpi\n      tag_169\n      tag_30\n      jump\t// in\n    tag_169:\n    tag_168:\n      0x20\n      mul\n      0x20\n      add\n      add\n      mload\n        /* \"zkfun/verifier.sol\":4288:4295  p2[i].Y */\n      0x20\n      add\n      mload\n        /* \"zkfun/verifier.sol\":4296:4297  1 */\n      0x01\n        /* \"zkfun/verifier.sol\":4288:4298  p2[i].Y[1] */\n      0x02\n      dup2\n      lt\n      tag_170\n      jumpi\n      tag_171\n      tag_30\n      jump\t// in\n    tag_171:\n    tag_170:\n      0x20\n      mul\n      add\n      mload\n        /* \"zkfun/verifier.sol\":4269:4274  input */\n      dup3\n        /* \"zkfun/verifier.sol\":4283:4284  4 */\n      0x04\n        /* \"zkfun/verifier.sol\":4279:4280  6 */\n      0x06\n        /* \"zkfun/verifier.sol\":4275:4276  i */\n      dup5\n        /* \"zkfun/verifier.sol\":4275:4280  i * 6 */\n      tag_172\n      swap2\n      swap1\n      tag_133\n      jump\t// in\n    tag_172:\n        /* \"zkfun/verifier.sol\":4275:4284  i * 6 + 4 */\n      tag_173\n      swap2\n      swap1\n      tag_23\n      jump\t// in\n    tag_173:\n        /* \"zkfun/verifier.sol\":4269:4285  input[i * 6 + 4] */\n      dup2\n      mload\n      dup2\n      lt\n      tag_174\n      jumpi\n      tag_175\n      tag_30\n      jump\t// in\n    tag_175:\n    tag_174:\n      0x20\n      mul\n      0x20\n      add\n      add\n        /* \"zkfun/verifier.sol\":4269:4298  input[i * 6 + 4] = p2[i].Y[1] */\n      dup2\n      dup2\n      mstore\n      pop\n      pop\n        /* \"zkfun/verifier.sol\":4331:4333  p2 */\n      dup6\n        /* \"zkfun/verifier.sol\":4334:4335  i */\n      dup2\n        /* \"zkfun/verifier.sol\":4331:4336  p2[i] */\n      dup2\n      mload\n      dup2\n      lt\n      tag_176\n      jumpi\n      tag_177\n      tag_30\n      jump\t// in\n    tag_177:\n    tag_176:\n      0x20\n      mul\n      0x20\n      add\n      add\n      mload\n        /* \"zkfun/verifier.sol\":4331:4338  p2[i].Y */\n      0x20\n      add\n      mload\n        /* \"zkfun/verifier.sol\":4339:4340  0 */\n      0x00\n        /* \"zkfun/verifier.sol\":4331:4341  p2[i].Y[0] */\n      0x02\n      dup2\n      lt\n      tag_178\n      jumpi\n      tag_179\n      tag_30\n      jump\t// in\n    tag_179:\n    tag_178:\n      0x20\n      mul\n      add\n      mload\n        /* \"zkfun/verifier.sol\":4312:4317  input */\n      dup3\n        /* \"zkfun/verifier.sol\":4326:4327  5 */\n      0x05\n        /* \"zkfun/verifier.sol\":4322:4323  6 */\n      0x06\n        /* \"zkfun/verifier.sol\":4318:4319  i */\n      dup5\n        /* \"zkfun/verifier.sol\":4318:4323  i * 6 */\n      tag_180\n      swap2\n      swap1\n      tag_133\n      jump\t// in\n    tag_180:\n        /* \"zkfun/verifier.sol\":4318:4327  i * 6 + 5 */\n      tag_181\n      swap2\n      swap1\n      tag_23\n      jump\t// in\n    tag_181:\n        /* \"zkfun/verifier.sol\":4312:4328  input[i * 6 + 5] */\n      dup2\n      mload\n      dup2\n      lt\n      tag_182\n      jumpi\n      tag_183\n      tag_30\n      jump\t// in\n    tag_183:\n    tag_182:\n      0x20\n      mul\n      0x20\n      add\n      add\n        /* \"zkfun/verifier.sol\":4312:4341  input[i * 6 + 5] = p2[i].Y[0] */\n      dup2\n      dup2\n      mstore\n      pop\n      pop\n        /* \"zkfun/verifier.sol\":4076:4079  i++ */\n      dup1\n      dup1\n      tag_184\n      swap1\n      tag_42\n      jump\t// in\n    tag_184:\n      swap2\n      pop\n      pop\n        /* \"zkfun/verifier.sol\":4045:4352  for (uint i = 0; i < elements; i++)... */\n      jump(tag_137)\n    tag_138:\n      pop\n        /* \"zkfun/verifier.sol\":4361:4379  uint[1] memory out */\n      tag_185\n      tag_186\n      jump\t// in\n    tag_185:\n        /* \"zkfun/verifier.sol\":4389:4401  bool success */\n      0x00\n        /* \"zkfun/verifier.sol\":4522:4526  0x20 */\n      0x20\n        /* \"zkfun/verifier.sol\":4517:4520  out */\n      dup3\n        /* \"zkfun/verifier.sol\":4510:4514  0x20 */\n      0x20\n        /* \"zkfun/verifier.sol\":4499:4508  inputSize */\n      dup7\n        /* \"zkfun/verifier.sol\":4495:4515  mul(inputSize, 0x20) */\n      mul\n        /* \"zkfun/verifier.sol\":4488:4492  0x20 */\n      0x20\n        /* \"zkfun/verifier.sol\":4481:4486  input */\n      dup7\n        /* \"zkfun/verifier.sol\":4477:4493  add(input, 0x20) */\n      add\n        /* \"zkfun/verifier.sol\":4474:4475  8 */\n      0x08\n        /* \"zkfun/verifier.sol\":4467:4471  2000 */\n      0x07d0\n        /* \"zkfun/verifier.sol\":4460:4465  gas() */\n      gas\n        /* \"zkfun/verifier.sol\":4456:4472  sub(gas(), 2000) */\n      sub\n        /* \"zkfun/verifier.sol\":4445:4527  staticcall(sub(gas(), 2000), 8, add(input, 0x20), mul(inputSize, 0x20), out, 0x20) */\n      staticcall\n        /* \"zkfun/verifier.sol\":4434:4527  success := staticcall(sub(gas(), 2000), 8, add(input, 0x20), mul(inputSize, 0x20), out, 0x20) */\n      swap1\n      pop\n        /* \"zkfun/verifier.sol\":4604:4611  success */\n      dup1\n        /* \"zkfun/verifier.sol\":4617:4618  0 */\n      0x00\n        /* \"zkfun/verifier.sol\":4612:4632  case 0 { invalid() } */\n      dup2\n      eq\n      tag_188\n      jumpi\n        /* \"zkfun/verifier.sol\":4597:4632  switch success case 0 { invalid() } */\n      jump(tag_187)\n        /* \"zkfun/verifier.sol\":4612:4632  case 0 { invalid() } */\n    tag_188:\n        /* \"zkfun/verifier.sol\":4621:4630  invalid() */\n      invalid\n        /* \"zkfun/verifier.sol\":4597:4632  switch success case 0 { invalid() } */\n    tag_187:\n      pop\n        /* \"zkfun/verifier.sol\":4659:4666  success */\n      dup1\n        /* \"zkfun/verifier.sol\":4651:4667  require(success) */\n      tag_189\n      jumpi\n      0x00\n      dup1\n      revert\n    tag_189:\n        /* \"zkfun/verifier.sol\":4694:4695  0 */\n      0x00\n        /* \"zkfun/verifier.sol\":4684:4687  out */\n      dup3\n        /* \"zkfun/verifier.sol\":4688:4689  0 */\n      0x00\n        /* \"zkfun/verifier.sol\":4684:4690  out[0] */\n      0x01\n      dup2\n      lt\n      tag_190\n      jumpi\n      tag_191\n      tag_30\n      jump\t// in\n    tag_191:\n    tag_190:\n      0x20\n      mul\n      add\n      mload\n        /* \"zkfun/verifier.sol\":4684:4695  out[0] != 0 */\n      eq\n      iszero\n        /* \"zkfun/verifier.sol\":4677:4695  return out[0] != 0 */\n      swap6\n      pop\n      pop\n      pop\n      pop\n      pop\n      pop\n        /* \"zkfun/verifier.sol\":3779:4702  function pairing(G1Point[] memory p1, G2Point[] memory p2) internal view returns (bool) {... */\n      swap3\n      swap2\n      pop\n      pop\n      jump\t// out\n    tag_54:\n      mload(0x40)\n      dup1\n      0xa0\n      add\n      0x40\n      mstore\n      dup1\n      tag_192\n      tag_61\n      jump\t// in\n    tag_192:\n      dup2\n      mstore\n      0x20\n      add\n      tag_193\n      tag_111\n      jump\t// in\n    tag_193:\n      dup2\n      mstore\n      0x20\n      add\n      tag_194\n      tag_111\n      jump\t// in\n    tag_194:\n      dup2\n      mstore\n      0x20\n      add\n      tag_195\n      tag_111\n      jump\t// in\n    tag_195:\n      dup2\n      mstore\n      0x20\n      add\n      0x60\n      dup2\n      mstore\n      pop\n      swap1\n      jump\t// out\n    tag_61:\n      mload(0x40)\n      dup1\n      0x40\n      add\n      0x40\n      mstore\n      dup1\n      0x00\n      dup2\n      mstore\n      0x20\n      add\n      0x00\n      dup2\n      mstore\n      pop\n      swap1\n      jump\t// out\n    tag_67:\n      mload(0x40)\n      dup1\n      0x60\n      add\n      0x40\n      mstore\n      dup1\n      0x03\n      swap1\n      0x20\n      dup3\n      mul\n      dup1\n      calldatasize\n      dup4\n      calldatacopy\n      dup1\n      dup3\n      add\n      swap2\n      pop\n      pop\n      swap1\n      pop\n      pop\n      swap1\n      jump\t// out\n    tag_80:\n      mload(0x40)\n      dup1\n      0x80\n      add\n      0x40\n      mstore\n      dup1\n      0x04\n      swap1\n      0x20\n      dup3\n      mul\n      dup1\n      calldatasize\n      dup4\n      calldatacopy\n      dup1\n      dup3\n      add\n      swap2\n      pop\n      pop\n      swap1\n      pop\n      pop\n      swap1\n      jump\t// out\n    tag_111:\n      mload(0x40)\n      dup1\n      0x40\n      add\n      0x40\n      mstore\n      dup1\n      tag_196\n      tag_197\n      jump\t// in\n    tag_196:\n      dup2\n      mstore\n      0x20\n      add\n      tag_198\n      tag_197\n      jump\t// in\n    tag_198:\n      dup2\n      mstore\n      pop\n      swap1\n      jump\t// out\n    tag_186:\n      mload(0x40)\n      dup1\n      0x20\n      add\n      0x40\n      mstore\n      dup1\n      0x01\n      swap1\n      0x20\n      dup3\n      mul\n      dup1\n      calldatasize\n      dup4\n      calldatacopy\n      dup1\n      dup3\n      add\n      swap2\n      pop\n      pop\n      swap1\n      pop\n      pop\n      swap1\n      jump\t// out\n    tag_197:\n      mload(0x40)\n      dup1\n      0x40\n      add\n      0x40\n      mstore\n      dup1\n      0x02\n      swap1\n      0x20\n      dup3\n      mul\n      dup1\n      calldatasize\n      dup4\n      calldatacopy\n      dup1\n      dup3\n      add\n      swap2\n      pop\n      pop\n      swap1\n      pop\n      pop\n      swap1\n      jump\t// out\n        /* \"#utility.yul\":25:680   */\n    tag_200:\n        /* \"#utility.yul\":119:124   */\n      0x00\n        /* \"#utility.yul\":144:223   */\n      tag_202\n        /* \"#utility.yul\":160:222   */\n      tag_203\n        /* \"#utility.yul\":215:221   */\n      dup5\n        /* \"#utility.yul\":160:222   */\n      tag_204\n      jump\t// in\n    tag_203:\n        /* \"#utility.yul\":144:223   */\n      tag_205\n      jump\t// in\n    tag_202:\n        /* \"#utility.yul\":135:223   */\n      swap1\n      pop\n        /* \"#utility.yul\":243:248   */\n      dup1\n        /* \"#utility.yul\":269:275   */\n      dup3\n        /* \"#utility.yul\":319:322   */\n      dup6\n        /* \"#utility.yul\":311:315   */\n      0x20\n        /* \"#utility.yul\":303:309   */\n      dup7\n        /* \"#utility.yul\":299:316   */\n      mul\n        /* \"#utility.yul\":294:297   */\n      dup3\n        /* \"#utility.yul\":290:317   */\n      add\n        /* \"#utility.yul\":287:323   */\n      gt\n        /* \"#utility.yul\":284:427   */\n      iszero\n      tag_206\n      jumpi\n        /* \"#utility.yul\":338:417   */\n      tag_207\n      tag_208\n      jump\t// in\n    tag_207:\n        /* \"#utility.yul\":284:427   */\n    tag_206:\n        /* \"#utility.yul\":451:452   */\n      0x00\n        /* \"#utility.yul\":436:674   */\n    tag_209:\n        /* \"#utility.yul\":461:467   */\n      dup6\n        /* \"#utility.yul\":458:459   */\n      dup2\n        /* \"#utility.yul\":455:468   */\n      lt\n        /* \"#utility.yul\":436:674   */\n      iszero\n      tag_211\n      jumpi\n        /* \"#utility.yul\":529:532   */\n      dup2\n        /* \"#utility.yul\":558:595   */\n      tag_212\n        /* \"#utility.yul\":591:594   */\n      dup9\n        /* \"#utility.yul\":579:589   */\n      dup3\n        /* \"#utility.yul\":558:595   */\n      tag_213\n      jump\t// in\n    tag_212:\n        /* \"#utility.yul\":553:556   */\n      dup5\n        /* \"#utility.yul\":546:596   */\n      mstore\n        /* \"#utility.yul\":625:629   */\n      0x20\n        /* \"#utility.yul\":620:623   */\n      dup5\n        /* \"#utility.yul\":616:630   */\n      add\n        /* \"#utility.yul\":609:630   */\n      swap4\n      pop\n        /* \"#utility.yul\":659:663   */\n      0x20\n        /* \"#utility.yul\":654:657   */\n      dup4\n        /* \"#utility.yul\":650:664   */\n      add\n        /* \"#utility.yul\":643:664   */\n      swap3\n      pop\n        /* \"#utility.yul\":496:674   */\n      pop\n        /* \"#utility.yul\":483:484   */\n      0x01\n        /* \"#utility.yul\":480:481   */\n      dup2\n        /* \"#utility.yul\":476:485   */\n      add\n        /* \"#utility.yul\":471:485   */\n      swap1\n      pop\n        /* \"#utility.yul\":436:674   */\n      jump(tag_209)\n    tag_211:\n        /* \"#utility.yul\":440:454   */\n      pop\n        /* \"#utility.yul\":125:680   */\n      pop\n      pop\n        /* \"#utility.yul\":25:680   */\n      swap4\n      swap3\n      pop\n      pop\n      pop\n      jump\t// out\n        /* \"#utility.yul\":704:1043   */\n    tag_214:\n        /* \"#utility.yul\":773:778   */\n      0x00\n        /* \"#utility.yul\":822:825   */\n      dup3\n        /* \"#utility.yul\":815:819   */\n      0x1f\n        /* \"#utility.yul\":807:813   */\n      dup4\n        /* \"#utility.yul\":803:820   */\n      add\n        /* \"#utility.yul\":799:826   */\n      slt\n        /* \"#utility.yul\":789:911   */\n      tag_216\n      jumpi\n        /* \"#utility.yul\":830:909   */\n      tag_217\n      tag_218\n      jump\t// in\n    tag_217:\n        /* \"#utility.yul\":789:911   */\n    tag_216:\n        /* \"#utility.yul\":934:938   */\n      0x02\n        /* \"#utility.yul\":956:1037   */\n      tag_219\n        /* \"#utility.yul\":1033:1036   */\n      dup5\n        /* \"#utility.yul\":1025:1031   */\n      dup3\n        /* \"#utility.yul\":1017:1023   */\n      dup6\n        /* \"#utility.yul\":956:1037   */\n      tag_200\n      jump\t// in\n    tag_219:\n        /* \"#utility.yul\":947:1037   */\n      swap2\n      pop\n        /* \"#utility.yul\":779:1043   */\n      pop\n        /* \"#utility.yul\":704:1043   */\n      swap3\n      swap2\n      pop\n      pop\n      jump\t// out\n        /* \"#utility.yul\":1079:1644   */\n    tag_220:\n        /* \"#utility.yul\":1150:1155   */\n      0x00\n        /* \"#utility.yul\":1194:1198   */\n      0x40\n        /* \"#utility.yul\":1182:1191   */\n      dup3\n        /* \"#utility.yul\":1177:1180   */\n      dup5\n        /* \"#utility.yul\":1173:1192   */\n      sub\n        /* \"#utility.yul\":1169:1199   */\n      slt\n        /* \"#utility.yul\":1166:1283   */\n      iszero\n      tag_222\n      jumpi\n        /* \"#utility.yul\":1202:1281   */\n      tag_223\n      tag_224\n      jump\t// in\n    tag_223:\n        /* \"#utility.yul\":1166:1283   */\n    tag_222:\n        /* \"#utility.yul\":1301:1322   */\n      tag_225\n        /* \"#utility.yul\":1317:1321   */\n      0x40\n        /* \"#utility.yul\":1301:1322   */\n      tag_205\n      jump\t// in\n    tag_225:\n        /* \"#utility.yul\":1292:1322   */\n      swap1\n      pop\n        /* \"#utility.yul\":1378:1379   */\n      0x00\n        /* \"#utility.yul\":1418:1467   */\n      tag_226\n        /* \"#utility.yul\":1463:1466   */\n      dup5\n        /* \"#utility.yul\":1454:1460   */\n      dup3\n        /* \"#utility.yul\":1443:1452   */\n      dup6\n        /* \"#utility.yul\":1439:1461   */\n      add\n        /* \"#utility.yul\":1418:1467   */\n      tag_213\n      jump\t// in\n    tag_226:\n        /* \"#utility.yul\":1411:1415   */\n      0x00\n        /* \"#utility.yul\":1404:1409   */\n      dup4\n        /* \"#utility.yul\":1400:1416   */\n      add\n        /* \"#utility.yul\":1393:1468   */\n      mstore\n        /* \"#utility.yul\":1332:1479   */\n      pop\n        /* \"#utility.yul\":1535:1537   */\n      0x20\n        /* \"#utility.yul\":1576:1625   */\n      tag_227\n        /* \"#utility.yul\":1621:1624   */\n      dup5\n        /* \"#utility.yul\":1612:1618   */\n      dup3\n        /* \"#utility.yul\":1601:1610   */\n      dup6\n        /* \"#utility.yul\":1597:1619   */\n      add\n        /* \"#utility.yul\":1576:1625   */\n      tag_213\n      jump\t// in\n    tag_227:\n        /* \"#utility.yul\":1569:1573   */\n      0x20\n        /* \"#utility.yul\":1562:1567   */\n      dup4\n        /* \"#utility.yul\":1558:1574   */\n      add\n        /* \"#utility.yul\":1551:1626   */\n      mstore\n        /* \"#utility.yul\":1489:1637   */\n      pop\n        /* \"#utility.yul\":1079:1644   */\n      swap3\n      swap2\n      pop\n      pop\n      jump\t// out\n        /* \"#utility.yul\":1680:2292   */\n    tag_228:\n        /* \"#utility.yul\":1752:1757   */\n      0x00\n        /* \"#utility.yul\":1796:1800   */\n      0x80\n        /* \"#utility.yul\":1784:1793   */\n      dup3\n        /* \"#utility.yul\":1779:1782   */\n      dup5\n        /* \"#utility.yul\":1775:1794   */\n      sub\n        /* \"#utility.yul\":1771:1801   */\n      slt\n        /* \"#utility.yul\":1768:1885   */\n      iszero\n      tag_230\n      jumpi\n        /* \"#utility.yul\":1804:1883   */\n      tag_231\n      tag_224\n      jump\t// in\n    tag_231:\n        /* \"#utility.yul\":1768:1885   */\n    tag_230:\n        /* \"#utility.yul\":1903:1924   */\n      tag_232\n        /* \"#utility.yul\":1919:1923   */\n      0x40\n        /* \"#utility.yul\":1903:1924   */\n      tag_205\n      jump\t// in\n    tag_232:\n        /* \"#utility.yul\":1894:1924   */\n      swap1\n      pop\n        /* \"#utility.yul\":1980:1981   */\n      0x00\n        /* \"#utility.yul\":2020:2092   */\n      tag_233\n        /* \"#utility.yul\":2088:2091   */\n      dup5\n        /* \"#utility.yul\":2079:2085   */\n      dup3\n        /* \"#utility.yul\":2068:2077   */\n      dup6\n        /* \"#utility.yul\":2064:2086   */\n      add\n        /* \"#utility.yul\":2020:2092   */\n      tag_214\n      jump\t// in\n    tag_233:\n        /* \"#utility.yul\":2013:2017   */\n      0x00\n        /* \"#utility.yul\":2006:2011   */\n      dup4\n        /* \"#utility.yul\":2002:2018   */\n      add\n        /* \"#utility.yul\":1995:2093   */\n      mstore\n        /* \"#utility.yul\":1934:2104   */\n      pop\n        /* \"#utility.yul\":2160:2162   */\n      0x40\n        /* \"#utility.yul\":2201:2273   */\n      tag_234\n        /* \"#utility.yul\":2269:2272   */\n      dup5\n        /* \"#utility.yul\":2260:2266   */\n      dup3\n        /* \"#utility.yul\":2249:2258   */\n      dup6\n        /* \"#utility.yul\":2245:2267   */\n      add\n        /* \"#utility.yul\":2201:2273   */\n      tag_214\n      jump\t// in\n    tag_234:\n        /* \"#utility.yul\":2194:2198   */\n      0x20\n        /* \"#utility.yul\":2187:2192   */\n      dup4\n        /* \"#utility.yul\":2183:2199   */\n      add\n        /* \"#utility.yul\":2176:2274   */\n      mstore\n        /* \"#utility.yul\":2114:2285   */\n      pop\n        /* \"#utility.yul\":1680:2292   */\n      swap3\n      swap2\n      pop\n      pop\n      jump\t// out\n        /* \"#utility.yul\":2327:3120   */\n    tag_235:\n        /* \"#utility.yul\":2398:2403   */\n      0x00\n        /* \"#utility.yul\":2442:2448   */\n      0x0100\n        /* \"#utility.yul\":2430:2439   */\n      dup3\n        /* \"#utility.yul\":2425:2428   */\n      dup5\n        /* \"#utility.yul\":2421:2440   */\n      sub\n        /* \"#utility.yul\":2417:2449   */\n      slt\n        /* \"#utility.yul\":2414:2533   */\n      iszero\n      tag_237\n      jumpi\n        /* \"#utility.yul\":2452:2531   */\n      tag_238\n      tag_224\n      jump\t// in\n    tag_238:\n        /* \"#utility.yul\":2414:2533   */\n    tag_237:\n        /* \"#utility.yul\":2551:2572   */\n      tag_239\n        /* \"#utility.yul\":2567:2571   */\n      0x60\n        /* \"#utility.yul\":2551:2572   */\n      tag_205\n      jump\t// in\n    tag_239:\n        /* \"#utility.yul\":2542:2572   */\n      swap1\n      pop\n        /* \"#utility.yul\":2628:2629   */\n      0x00\n        /* \"#utility.yul\":2668:2739   */\n      tag_240\n        /* \"#utility.yul\":2735:2738   */\n      dup5\n        /* \"#utility.yul\":2726:2732   */\n      dup3\n        /* \"#utility.yul\":2715:2724   */\n      dup6\n        /* \"#utility.yul\":2711:2733   */\n      add\n        /* \"#utility.yul\":2668:2739   */\n      tag_220\n      jump\t// in\n    tag_240:\n        /* \"#utility.yul\":2661:2665   */\n      0x00\n        /* \"#utility.yul\":2654:2659   */\n      dup4\n        /* \"#utility.yul\":2650:2666   */\n      add\n        /* \"#utility.yul\":2643:2740   */\n      mstore\n        /* \"#utility.yul\":2582:2751   */\n      pop\n        /* \"#utility.yul\":2807:2809   */\n      0x40\n        /* \"#utility.yul\":2848:2920   */\n      tag_241\n        /* \"#utility.yul\":2916:2919   */\n      dup5\n        /* \"#utility.yul\":2907:2913   */\n      dup3\n        /* \"#utility.yul\":2896:2905   */\n      dup6\n        /* \"#utility.yul\":2892:2914   */\n      add\n        /* \"#utility.yul\":2848:2920   */\n      tag_228\n      jump\t// in\n    tag_241:\n        /* \"#utility.yul\":2841:2845   */\n      0x20\n        /* \"#utility.yul\":2834:2839   */\n      dup4\n        /* \"#utility.yul\":2830:2846   */\n      add\n        /* \"#utility.yul\":2823:2921   */\n      mstore\n        /* \"#utility.yul\":2761:2932   */\n      pop\n        /* \"#utility.yul\":2988:2991   */\n      0xc0\n        /* \"#utility.yul\":3030:3101   */\n      tag_242\n        /* \"#utility.yul\":3097:3100   */\n      dup5\n        /* \"#utility.yul\":3088:3094   */\n      dup3\n        /* \"#utility.yul\":3077:3086   */\n      dup6\n        /* \"#utility.yul\":3073:3095   */\n      add\n        /* \"#utility.yul\":3030:3101   */\n      tag_220\n      jump\t// in\n    tag_242:\n        /* \"#utility.yul\":3023:3027   */\n      0x40\n        /* \"#utility.yul\":3016:3021   */\n      dup4\n        /* \"#utility.yul\":3012:3028   */\n      add\n        /* \"#utility.yul\":3005:3102   */\n      mstore\n        /* \"#utility.yul\":2942:3113   */\n      pop\n        /* \"#utility.yul\":2327:3120   */\n      swap3\n      swap2\n      pop\n      pop\n      jump\t// out\n        /* \"#utility.yul\":3126:3265   */\n    tag_213:\n        /* \"#utility.yul\":3172:3177   */\n      0x00\n        /* \"#utility.yul\":3210:3216   */\n      dup2\n        /* \"#utility.yul\":3197:3217   */\n      calldataload\n        /* \"#utility.yul\":3188:3217   */\n      swap1\n      pop\n        /* \"#utility.yul\":3226:3259   */\n      tag_244\n        /* \"#utility.yul\":3253:3258   */\n      dup2\n        /* \"#utility.yul\":3226:3259   */\n      tag_245\n      jump\t// in\n    tag_244:\n        /* \"#utility.yul\":3126:3265   */\n      swap3\n      swap2\n      pop\n      pop\n      jump\t// out\n        /* \"#utility.yul\":3271:3645   */\n    tag_6:\n        /* \"#utility.yul\":3352:3358   */\n      0x00\n        /* \"#utility.yul\":3401:3404   */\n      0x0100\n        /* \"#utility.yul\":3389:3398   */\n      dup3\n        /* \"#utility.yul\":3380:3387   */\n      dup5\n        /* \"#utility.yul\":3376:3399   */\n      sub\n        /* \"#utility.yul\":3372:3405   */\n      slt\n        /* \"#utility.yul\":3369:3489   */\n      iszero\n      tag_247\n      jumpi\n        /* \"#utility.yul\":3408:3487   */\n      tag_248\n      tag_249\n      jump\t// in\n    tag_248:\n        /* \"#utility.yul\":3369:3489   */\n    tag_247:\n        /* \"#utility.yul\":3528:3529   */\n      0x00\n        /* \"#utility.yul\":3553:3628   */\n      tag_250\n        /* \"#utility.yul\":3620:3627   */\n      dup5\n        /* \"#utility.yul\":3611:3617   */\n      dup3\n        /* \"#utility.yul\":3600:3609   */\n      dup6\n        /* \"#utility.yul\":3596:3618   */\n      add\n        /* \"#utility.yul\":3553:3628   */\n      tag_235\n      jump\t// in\n    tag_250:\n        /* \"#utility.yul\":3543:3628   */\n      swap2\n      pop\n        /* \"#utility.yul\":3499:3638   */\n      pop\n        /* \"#utility.yul\":3271:3645   */\n      swap3\n      swap2\n      pop\n      pop\n      jump\t// out\n        /* \"#utility.yul\":3651:3760   */\n    tag_251:\n        /* \"#utility.yul\":3732:3753   */\n      tag_253\n        /* \"#utility.yul\":3747:3752   */\n      dup2\n        /* \"#utility.yul\":3732:3753   */\n      tag_254\n      jump\t// in\n    tag_253:\n        /* \"#utility.yul\":3727:3730   */\n      dup3\n        /* \"#utility.yul\":3720:3754   */\n      mstore\n        /* \"#utility.yul\":3651:3760   */\n      pop\n      pop\n      jump\t// out\n        /* \"#utility.yul\":3766:3976   */\n    tag_9:\n        /* \"#utility.yul\":3853:3857   */\n      0x00\n        /* \"#utility.yul\":3891:3893   */\n      0x20\n        /* \"#utility.yul\":3880:3889   */\n      dup3\n        /* \"#utility.yul\":3876:3894   */\n      add\n        /* \"#utility.yul\":3868:3894   */\n      swap1\n      pop\n        /* \"#utility.yul\":3904:3969   */\n      tag_256\n        /* \"#utility.yul\":3966:3967   */\n      0x00\n        /* \"#utility.yul\":3955:3964   */\n      dup4\n        /* \"#utility.yul\":3951:3968   */\n      add\n        /* \"#utility.yul\":3942:3948   */\n      dup5\n        /* \"#utility.yul\":3904:3969   */\n      tag_251\n      jump\t// in\n    tag_256:\n        /* \"#utility.yul\":3766:3976   */\n      swap3\n      swap2\n      pop\n      pop\n      jump\t// out\n        /* \"#utility.yul\":3982:4111   */\n    tag_205:\n        /* \"#utility.yul\":4016:4022   */\n      0x00\n        /* \"#utility.yul\":4043:4063   */\n      tag_258\n      tag_259\n      jump\t// in\n    tag_258:\n        /* \"#utility.yul\":4033:4063   */\n      swap1\n      pop\n        /* \"#utility.yul\":4072:4105   */\n      tag_260\n        /* \"#utility.yul\":4100:4104   */\n      dup3\n        /* \"#utility.yul\":4092:4098   */\n      dup3\n        /* \"#utility.yul\":4072:4105   */\n      tag_261\n      jump\t// in\n    tag_260:\n        /* \"#utility.yul\":3982:4111   */\n      swap2\n      swap1\n      pop\n      jump\t// out\n        /* \"#utility.yul\":4117:4192   */\n    tag_259:\n        /* \"#utility.yul\":4150:4156   */\n      0x00\n        /* \"#utility.yul\":4183:4185   */\n      0x40\n        /* \"#utility.yul\":4177:4186   */\n      mload\n        /* \"#utility.yul\":4167:4186   */\n      swap1\n      pop\n        /* \"#utility.yul\":4117:4192   */\n      swap1\n      jump\t// out\n        /* \"#utility.yul\":4198:4447   */\n    tag_204:\n        /* \"#utility.yul\":4273:4277   */\n      0x00\n        /* \"#utility.yul\":4363:4381   */\n      0xffffffffffffffff\n        /* \"#utility.yul\":4355:4361   */\n      dup3\n        /* \"#utility.yul\":4352:4382   */\n      gt\n        /* \"#utility.yul\":4349:4405   */\n      iszero\n      tag_264\n      jumpi\n        /* \"#utility.yul\":4385:4403   */\n      tag_265\n      tag_13\n      jump\t// in\n    tag_265:\n        /* \"#utility.yul\":4349:4405   */\n    tag_264:\n        /* \"#utility.yul\":4435:4439   */\n      0x20\n        /* \"#utility.yul\":4427:4433   */\n      dup3\n        /* \"#utility.yul\":4423:4440   */\n      mul\n        /* \"#utility.yul\":4415:4440   */\n      swap1\n      pop\n        /* \"#utility.yul\":4198:4447   */\n      swap2\n      swap1\n      pop\n      jump\t// out\n        /* \"#utility.yul\":4453:4758   */\n    tag_23:\n        /* \"#utility.yul\":4493:4496   */\n      0x00\n        /* \"#utility.yul\":4512:4532   */\n      tag_267\n        /* \"#utility.yul\":4530:4531   */\n      dup3\n        /* \"#utility.yul\":4512:4532   */\n      tag_268\n      jump\t// in\n    tag_267:\n        /* \"#utility.yul\":4507:4532   */\n      swap2\n      pop\n        /* \"#utility.yul\":4546:4566   */\n      tag_269\n        /* \"#utility.yul\":4564:4565   */\n      dup4\n        /* \"#utility.yul\":4546:4566   */\n      tag_268\n      jump\t// in\n    tag_269:\n        /* \"#utility.yul\":4541:4566   */\n      swap3\n      pop\n        /* \"#utility.yul\":4700:4701   */\n      dup3\n        /* \"#utility.yul\":4632:4698   */\n      0xffffffffffffffffffffffffffffffffffffffffffffffffffffffffffffffff\n        /* \"#utility.yul\":4628:4702   */\n      sub\n        /* \"#utility.yul\":4625:4626   */\n      dup3\n        /* \"#utility.yul\":4622:4703   */\n      gt\n        /* \"#utility.yul\":4619:4726   */\n      iszero\n      tag_270\n      jumpi\n        /* \"#utility.yul\":4706:4724   */\n      tag_271\n      tag_272\n      jump\t// in\n    tag_271:\n        /* \"#utility.yul\":4619:4726   */\n    tag_270:\n        /* \"#utility.yul\":4750:4751   */\n      dup3\n        /* \"#utility.yul\":4747:4748   */\n      dup3\n        /* \"#utility.yul\":4743:4752   */\n      add\n        /* \"#utility.yul\":4736:4752   */\n      swap1\n      pop\n        /* \"#utility.yul\":4453:4758   */\n      swap3\n      swap2\n      pop\n      pop\n      jump\t// out\n        /* \"#utility.yul\":4764:5112   */\n    tag_133:\n        /* \"#utility.yul\":4804:4811   */\n      0x00\n        /* \"#utility.yul\":4827:4847   */\n      tag_274\n        /* \"#utility.yul\":4845:4846   */\n      dup3\n        /* \"#utility.yul\":4827:4847   */\n      tag_268\n      jump\t// in\n    tag_274:\n        /* \"#utility.yul\":4822:4847   */\n      swap2\n      pop\n        /* \"#utility.yul\":4861:4881   */\n      tag_275\n        /* \"#utility.yul\":4879:4880   */\n      dup4\n        /* \"#utility.yul\":4861:4881   */\n      tag_268\n      jump\t// in\n    tag_275:\n        /* \"#utility.yul\":4856:4881   */\n      swap3\n      pop\n        /* \"#utility.yul\":5049:5050   */\n      dup2\n        /* \"#utility.yul\":4981:5047   */\n      0xffffffffffffffffffffffffffffffffffffffffffffffffffffffffffffffff\n        /* \"#utility.yul\":4977:5051   */\n      div\n        /* \"#utility.yul\":4974:4975   */\n      dup4\n        /* \"#utility.yul\":4971:5052   */\n      gt\n        /* \"#utility.yul\":4966:4967   */\n      dup3\n        /* \"#utility.yul\":4959:4968   */\n      iszero\n        /* \"#utility.yul\":4952:4969   */\n      iszero\n        /* \"#utility.yul\":4948:5053   */\n      and\n        /* \"#utility.yul\":4945:5076   */\n      iszero\n      tag_276\n      jumpi\n        /* \"#utility.yul\":5056:5074   */\n      tag_277\n      tag_272\n      jump\t// in\n    tag_277:\n        /* \"#utility.yul\":4945:5076   */\n    tag_276:\n        /* \"#utility.yul\":5104:5105   */\n      dup3\n        /* \"#utility.yul\":5101:5102   */\n      dup3\n        /* \"#utility.yul\":5097:5106   */\n      mul\n        /* \"#utility.yul\":5086:5106   */\n      swap1\n      pop\n        /* \"#utility.yul\":4764:5112   */\n      swap3\n      swap2\n      pop\n      pop\n      jump\t// out\n        /* \"#utility.yul\":5118:5309   */\n    tag_99:\n        /* \"#utility.yul\":5158:5162   */\n      0x00\n        /* \"#utility.yul\":5178:5198   */\n      tag_279\n        /* \"#utility.yul\":5196:5197   */\n      dup3\n        /* \"#utility.yul\":5178:5198   */\n      tag_268\n      jump\t// in\n    tag_279:\n        /* \"#utility.yul\":5173:5198   */\n      swap2\n      pop\n        /* \"#utility.yul\":5212:5232   */\n      tag_280\n        /* \"#utility.yul\":5230:5231   */\n      dup4\n        /* \"#utility.yul\":5212:5232   */\n      tag_268\n      jump\t// in\n    tag_280:\n        /* \"#utility.yul\":5207:5232   */\n      swap3\n      pop\n        /* \"#utility.yul\":5251:5252   */\n      dup3\n        /* \"#utility.yul\":5248:5249   */\n      dup3\n        /* \"#utility.yul\":5245:5253   */\n      lt\n        /* \"#utility.yul\":5242:5276   */\n      iszero\n      tag_281\n      jumpi\n        /* \"#utility.yul\":5256:5274   */\n      tag_282\n      tag_272\n      jump\t// in\n    tag_282:\n        /* \"#utility.yul\":5242:5276   */\n    tag_281:\n        /* \"#utility.yul\":5301:5302   */\n      dup3\n        /* \"#utility.yul\":5298:5299   */\n      dup3\n        /* \"#utility.yul\":5294:5303   */\n      sub\n        /* \"#utility.yul\":5286:5303   */\n      swap1\n      pop\n        /* \"#utility.yul\":5118:5309   */\n      swap3\n      swap2\n      pop\n      pop\n      jump\t// out\n        /* \"#utility.yul\":5315:5405   */\n    tag_254:\n        /* \"#utility.yul\":5349:5356   */\n      0x00\n        /* \"#utility.yul\":5392:5397   */\n      dup2\n        /* \"#utility.yul\":5385:5398   */\n      iszero\n        /* \"#utility.yul\":5378:5399   */\n      iszero\n        /* \"#utility.yul\":5367:5399   */\n      swap1\n      pop\n        /* \"#utility.yul\":5315:5405   */\n      swap2\n      swap1\n      pop\n      jump\t// out\n        /* \"#utility.yul\":5411:5488   */\n    tag_268:\n        /* \"#utility.yul\":5448:5455   */\n      0x00\n        /* \"#utility.yul\":5477:5482   */\n      dup2\n        /* \"#utility.yul\":5466:5482   */\n      swap1\n      pop\n        /* \"#utility.yul\":5411:5488   */\n      swap2\n      swap1\n      pop\n      jump\t// out\n        /* \"#utility.yul\":5494:5775   */\n    tag_261:\n        /* \"#utility.yul\":5577:5604   */\n      tag_286\n        /* \"#utility.yul\":5599:5603   */\n      dup3\n        /* \"#utility.yul\":5577:5604   */\n      tag_287\n      jump\t// in\n    tag_286:\n        /* \"#utility.yul\":5569:5575   */\n      dup2\n        /* \"#utility.yul\":5565:5605   */\n      add\n        /* \"#utility.yul\":5707:5713   */\n      dup2\n        /* \"#utility.yul\":5695:5705   */\n      dup2\n        /* \"#utility.yul\":5692:5714   */\n      lt\n        /* \"#utility.yul\":5671:5689   */\n      0xffffffffffffffff\n        /* \"#utility.yul\":5659:5669   */\n      dup3\n        /* \"#utility.yul\":5656:5690   */\n      gt\n        /* \"#utility.yul\":5653:5715   */\n      or\n        /* \"#utility.yul\":5650:5738   */\n      iszero\n      tag_288\n      jumpi\n        /* \"#utility.yul\":5718:5736   */\n      tag_289\n      tag_13\n      jump\t// in\n    tag_289:\n        /* \"#utility.yul\":5650:5738   */\n    tag_288:\n        /* \"#utility.yul\":5758:5768   */\n      dup1\n        /* \"#utility.yul\":5754:5756   */\n      0x40\n        /* \"#utility.yul\":5747:5769   */\n      mstore\n        /* \"#utility.yul\":5537:5775   */\n      pop\n        /* \"#utility.yul\":5494:5775   */\n      pop\n      pop\n      jump\t// out\n        /* \"#utility.yul\":5781:6014   */\n    tag_42:\n        /* \"#utility.yul\":5820:5823   */\n      0x00\n        /* \"#utility.yul\":5843:5867   */\n      tag_291\n        /* \"#utility.yul\":5861:5866   */\n      dup3\n        /* \"#utility.yul\":5843:5867   */\n      tag_268\n      jump\t// in\n    tag_291:\n        /* \"#utility.yul\":5834:5867   */\n      swap2\n      pop\n        /* \"#utility.yul\":5889:5955   */\n      0xffffffffffffffffffffffffffffffffffffffffffffffffffffffffffffffff\n        /* \"#utility.yul\":5882:5887   */\n      dup3\n        /* \"#utility.yul\":5879:5956   */\n      eq\n        /* \"#utility.yul\":5876:5979   */\n      iszero\n      tag_292\n      jumpi\n        /* \"#utility.yul\":5959:5977   */\n      tag_293\n      tag_272\n      jump\t// in\n    tag_293:\n        /* \"#utility.yul\":5876:5979   */\n    tag_292:\n        /* \"#utility.yul\":6006:6007   */\n      0x01\n        /* \"#utility.yul\":5999:6004   */\n      dup3\n        /* \"#utility.yul\":5995:6008   */\n      add\n        /* \"#utility.yul\":5988:6008   */\n      swap1\n      pop\n        /* \"#utility.yul\":5781:6014   */\n      swap2\n      swap1\n      pop\n      jump\t// out\n        /* \"#utility.yul\":6020:6196   */\n    tag_97:\n        /* \"#utility.yul\":6052:6053   */\n      0x00\n        /* \"#utility.yul\":6069:6089   */\n      tag_295\n        /* \"#utility.yul\":6087:6088   */\n      dup3\n        /* \"#utility.yul\":6069:6089   */\n      tag_268\n      jump\t// in\n    tag_295:\n        /* \"#utility.yul\":6064:6089   */\n      swap2\n      pop\n        /* \"#utility.yul\":6103:6123   */\n      tag_296\n        /* \"#utility.yul\":6121:6122   */\n      dup4\n        /* \"#utility.yul\":6103:6123   */\n      tag_268\n      jump\t// in\n    tag_296:\n        /* \"#utility.yul\":6098:6123   */\n      swap3\n      pop\n        /* \"#utility.yul\":6142:6143   */\n      dup3\n        /* \"#utility.yul\":6132:6167   */\n      tag_297\n      jumpi\n        /* \"#utility.yul\":6147:6165   */\n      tag_298\n      tag_299\n      jump\t// in\n    tag_298:\n        /* \"#utility.yul\":6132:6167   */\n    tag_297:\n        /* \"#utility.yul\":6188:6189   */\n      dup3\n        /* \"#utility.yul\":6185:6186   */\n      dup3\n        /* \"#utility.yul\":6181:6190   */\n      mod\n        /* \"#utility.yul\":6176:6190   */\n      swap1\n      pop\n        /* \"#utility.yul\":6020:6196   */\n      swap3\n      swap2\n      pop\n      pop\n      jump\t// out\n        /* \"#utility.yul\":6202:6382   */\n    tag_272:\n        /* \"#utility.yul\":6250:6327   */\n      0x4e487b7100000000000000000000000000000000000000000000000000000000\n        /* \"#utility.yul\":6247:6248   */\n      0x00\n        /* \"#utility.yul\":6240:6328   */\n      mstore\n        /* \"#utility.yul\":6347:6351   */\n      0x11\n        /* \"#utility.yul\":6344:6345   */\n      0x04\n        /* \"#utility.yul\":6337:6352   */\n      mstore\n        /* \"#utility.yul\":6371:6375   */\n      0x24\n        /* \"#utility.yul\":6368:6369   */\n      0x00\n        /* \"#utility.yul\":6361:6376   */\n      revert\n        /* \"#utility.yul\":6388:6568   */\n    tag_299:\n        /* \"#utility.yul\":6436:6513   */\n      0x4e487b7100000000000000000000000000000000000000000000000000000000\n        /* \"#utility.yul\":6433:6434   */\n      0x00\n        /* \"#utility.yul\":6426:6514   */\n      mstore\n        /* \"#utility.yul\":6533:6537   */\n      0x12\n        /* \"#utility.yul\":6530:6531   */\n      0x04\n        /* \"#utility.yul\":6523:6538   */\n      mstore\n        /* \"#utility.yul\":6557:6561   */\n      0x24\n        /* \"#utility.yul\":6554:6555   */\n      0x00\n        /* \"#utility.yul\":6547:6562   */\n      revert\n        /* \"#utility.yul\":6574:6754   */\n    tag_30:\n        /* \"#utility.yul\":6622:6699   */\n      0x4e487b7100000000000000000000000000000000000000000000000000000000\n        /* \"#utility.yul\":6619:6620   */\n      0x00\n        /* \"#utility.yul\":6612:6700   */\n      mstore\n        /* \"#utility.yul\":6719:6723   */\n      0x32\n        /* \"#utility.yul\":6716:6717   */\n      0x04\n        /* \"#utility.yul\":6709:6724   */\n      mstore\n        /* \"#utility.yul\":6743:6747   */\n      0x24\n        /* \"#utility.yul\":6740:6741   */\n      0x00\n        /* \"#utility.yul\":6733:6748   */\n      revert\n        /* \"#utility.yul\":6760:6940   */\n    tag_13:\n        /* \"#utility.yul\":6808:6885   */\n      0x4e487b7100000000000000000000000000000000000000000000000000000000\n        /* \"#utility.yul\":6805:6806   */\n      0x00\n        /* \"#utility.yul\":6798:6886   */\n      mstore\n        /* \"#utility.yul\":6905:6909   */\n      0x41\n        /* \"#utility.yul\":6902:6903   */\n      0x04\n        /* \"#utility.yul\":6895:6910   */\n      mstore\n        /* \"#utility.yul\":6929:6933   */\n      0x24\n        /* \"#utility.yul\":6926:6927   */\n      0x00\n        /* \"#utility.yul\":6919:6934   */\n      revert\n        /* \"#utility.yul\":6946:7063   */\n    tag_218:\n        /* \"#utility.yul\":7055:7056   */\n      0x00\n        /* \"#utility.yul\":7052:7053   */\n      dup1\n        /* \"#utility.yul\":7045:7057   */\n      revert\n        /* \"#utility.yul\":7069:7186   */\n    tag_224:\n        /* \"#utility.yul\":7178:7179   */\n      0x00\n        /* \"#utility.yul\":7175:7176   */\n      dup1\n        /* \"#utility.yul\":7168:7180   */\n      revert\n        /* \"#utility.yul\":7315:7432   */\n    tag_208:\n        /* \"#utility.yul\":7424:7425   */\n      0x00\n        /* \"#utility.yul\":7421:7422   */\n      dup1\n        /* \"#utility.yul\":7414:7426   */\n      revert\n        /* \"#utility.yul\":7561:7678   */\n    tag_249:\n        /* \"#utility.yul\":7670:7671   */\n      0x00\n        /* \"#utility.yul\":7667:7668   */\n      dup1\n        /* \"#utility.yul\":7660:7672   */\n      revert\n        /* \"#utility.yul\":7684:7786   */\n    tag_287:\n        /* \"#utility.yul\":7725:7731   */\n      0x00\n        /* \"#utility.yul\":7776:7778   */\n      0x1f\n        /* \"#utility.yul\":7772:7779   */\n      not\n        /* \"#utility.yul\":7767:7769   */\n      0x1f\n        /* \"#utility.yul\":7760:7765   */\n      dup4\n        /* \"#utility.yul\":7756:7770   */\n      add\n        /* \"#utility.yul\":7752:7780   */\n      and\n        /* \"#utility.yul\":7742:7780   */\n      swap1\n      pop\n        /* \"#utility.yul\":7684:7786   */\n      swap2\n      swap1\n      pop\n      jump\t// out\n        /* \"#utility.yul\":7792:7914   */\n    tag_245:\n        /* \"#utility.yul\":7865:7889   */\n      tag_314\n        /* \"#utility.yul\":7883:7888   */\n      dup2\n        /* \"#utility.yul\":7865:7889   */\n      tag_268\n      jump\t// in\n    tag_314:\n        /* \"#utility.yul\":7858:7863   */\n      dup2\n        /* \"#utility.yul\":7855:7890   */\n      eq\n        /* \"#utility.yul\":7845:7908   */\n      tag_315\n      jumpi\n        /* \"#utility.yul\":7904:7905   */\n      0x00\n        /* \"#utility.yul\":7901:7902   */\n      dup1\n        /* \"#utility.yul\":7894:7906   */\n      revert\n        /* \"#utility.yul\":7845:7908   */\n    tag_315:\n        /* \"#utility.yul\":7792:7914   */\n      pop\n      jump\t// out\n\n    auxdata: 0xa2646970667358221220eb369ae87a4d9a03efc6127257ca9d19049957690ee73929786ba37bfc24d89564736f6c63430008070033\n}\n",
				"bytecode": {
					"linkReferences": {},
					"object": "608060405234801561001057600080fd5b5061136b806100206000396000f3fe608060405234801561001057600080fd5b506004361061002b5760003560e01c8063f6af031114610030575b600080fd5b61004a60048036038101906100459190610ff5565b610060565b6040516100579190611032565b60405180910390f35b600080600067ffffffffffffffff81111561007e5761007d6112ca565b5b6040519080825280602002602001820160405280156100ac5781602001602082028036833780820191505090505b50905060006100bb82856100d6565b14156100cb5760019150506100d1565b60009150505b919050565b6000807f30644e72e131a029b85045b68181585d2833e84879b9709143e1f593f00000019050600061010661026d565b90508060800151516001865161011c9190611098565b1461012657600080fd5b60006040518060400160405280600081526020016000815250905060005b86518110156101df57838782815181106101615761016061129b565b5b60200260200101511061017357600080fd5b6101ca826101c5856080015160018561018c9190611098565b8151811061019d5761019c61129b565b5b60200260200101518a85815181106101b8576101b761129b565b5b60200260200101516105f9565b6106a0565b915080806101d7906111c3565b915050610144565b506102098183608001516000815181106101fc576101fb61129b565b5b60200260200101516106a0565b905061024f856000015186602001516102218461076d565b85604001516102338a6040015161076d565b8760600151610245896000015161076d565b8960200151610812565b61025f5760019350505050610267565b600093505050505b92915050565b610275610d3a565b60405180604001604052807f1fdedc4d74a6c545d0175532cd4564b545f4fba889dd16b77367f06ec7faeaf581526020017f21b9827f906c4099d33e386ca2ad769eaa48ba95893f7968ad6feb138d7e56a08152508160000181905250604051806040016040528060405180604001604052807f20f3703be75050503099249ab5a4fe9bdc92af5c1124c314e5eb6e8e7f0580ab81526020017f12fc620bc73d8ee6d0c37bfd35d801e34bf0192513d48d46e6e8a4fd099cef36815250815260200160405180604001604052807f2e4a53adf3bf125ab99cdbd3279555158c881dbb45f3f84a3573aa7c658d97f281526020017f1c668dc18277710d3b4e4b76195b193043cf0bfcd5e379c9253d272ec0aa76308152508152508160200181905250604051806040016040528060405180604001604052807f2e99a3654469ee16c016fcade62f1e5f9d302cff6163303b15bd3fafddb43ae981526020017f2d9f2ab023f35ad98afec5a8b75bb6990b9ccfd8bae336312163b154c143a0a6815250815260200160405180604001604052807f0557f37b3dd57bfe24d1b19793969aef90c6e20e716470a4840c4aa66b3eb7dc81526020017f01dd44f774a60e52731e2f62a2223f33bbb2771a8853a923dfe9816a200b59288152508152508160400181905250604051806040016040528060405180604001604052807f0195662174889172211dd148d40b1693dcdc55965a46dfad6ce0b7fe82b0a63e81526020017f1d5ec1b5e38ebfeff940df7caf36f258a9fcb6091bf643084ad00f22d9121771815250815260200160405180604001604052807f24c34c5d910ed5ca19527044658583eb2d55d563eec24ad73d2e1bca1c6d68df81526020017f2b3d4d65dfbf6921db931526703be5c65335b6dc3b70802cc7c736b51e0df0438152508152508160600181905250600167ffffffffffffffff81111561053c5761053b6112ca565b5b60405190808252806020026020018201604052801561057557816020015b610562610d81565b81526020019060019003908161055a5790505b50816080018190525060405180604001604052807f012f2d9f7bac40de2e42c343af97c7ea513d9c2add1bf91dce58cf9215cb9d2d81526020017f1df5488f3315e1d47726d6fed303482be76a6a87e91aa70f7ece33df6733749f81525081608001516000815181106105eb576105ea61129b565b5b602002602001018190525090565b610601610d81565b610609610d9b565b8360000151816000600381106106225761062161129b565b5b6020020181815250508360200151816001600381106106445761064361129b565b5b60200201818152505082816002600381106106625761066161129b565b5b602002018181525050600060608360808460076107d05a03fa9050806000811461068b5761068d565bfe5b508061069857600080fd5b505092915050565b6106a8610d81565b6106b0610dbd565b8360000151816000600481106106c9576106c861129b565b5b6020020181815250508360200151816001600481106106eb576106ea61129b565b5b60200201818152505082600001518160026004811061070d5761070c61129b565b5b60200201818152505082602001518160036004811061072f5761072e61129b565b5b602002018181525050600060608360c08460066107d05a03fa905080600081146107585761075a565bfe5b508061076557600080fd5b505092915050565b610775610d81565b60007f30644e72e131a029b85045b68181585d97816a916871ca8d3c208c16d87cfd479050600083600001511480156107b2575060008360200151145b156107d657604051806040016040528060008152602001600081525091505061080d565b6040518060400160405280846000015181526020018285602001516107fb919061120c565b836108069190611148565b8152509150505b919050565b600080600467ffffffffffffffff8111156108305761082f6112ca565b5b60405190808252806020026020018201604052801561086957816020015b610856610d81565b81526020019060019003908161084e5790505b5090506000600467ffffffffffffffff811115610889576108886112ca565b5b6040519080825280602002602001820160405280156108c257816020015b6108af610ddf565b8152602001906001900390816108a75790505b5090508a826000815181106108da576108d961129b565b5b602002602001018190525088826001815181106108fa576108f961129b565b5b6020026020010181905250868260028151811061091a5761091961129b565b5b6020026020010181905250848260038151811061093a5761093961129b565b5b6020026020010181905250898160008151811061095a5761095961129b565b5b6020026020010181905250878160018151811061097a5761097961129b565b5b6020026020010181905250858160028151811061099a5761099961129b565b5b602002602001018190525083816003815181106109ba576109b961129b565b5b60200260200101819052506109cf82826109df565b9250505098975050505050505050565b600081518351146109ef57600080fd5b6000835190506000600682610a0491906110ee565b905060008167ffffffffffffffff811115610a2257610a216112ca565b5b604051908082528060200260200182016040528015610a505781602001602082028036833780820191505090505b50905060005b83811015610cd557868181518110610a7157610a7061129b565b5b602002602001015160000151826000600684610a8d91906110ee565b610a979190611098565b81518110610aa857610aa761129b565b5b602002602001018181525050868181518110610ac757610ac661129b565b5b602002602001015160200151826001600684610ae391906110ee565b610aed9190611098565b81518110610afe57610afd61129b565b5b602002602001018181525050858181518110610b1d57610b1c61129b565b5b602002602001015160000151600160028110610b3c57610b3b61129b565b5b6020020151826002600684610b5191906110ee565b610b5b9190611098565b81518110610b6c57610b6b61129b565b5b602002602001018181525050858181518110610b8b57610b8a61129b565b5b602002602001015160000151600060028110610baa57610ba961129b565b5b6020020151826003600684610bbf91906110ee565b610bc99190611098565b81518110610bda57610bd961129b565b5b602002602001018181525050858181518110610bf957610bf861129b565b5b602002602001015160200151600160028110610c1857610c1761129b565b5b6020020151826004600684610c2d91906110ee565b610c379190611098565b81518110610c4857610c4761129b565b5b602002602001018181525050858181518110610c6757610c6661129b565b5b602002602001015160200151600060028110610c8657610c8561129b565b5b6020020151826005600684610c9b91906110ee565b610ca59190611098565b81518110610cb657610cb561129b565b5b6020026020010181815250508080610ccd906111c3565b915050610a56565b50610cde610e05565b6000602082602086026020860160086107d05a03fa90508060008114610d0357610d05565bfe5b5080610d1057600080fd5b600082600060018110610d2657610d2561129b565b5b602002015114159550505050505092915050565b6040518060a00160405280610d4d610d81565b8152602001610d5a610ddf565b8152602001610d67610ddf565b8152602001610d74610ddf565b8152602001606081525090565b604051806040016040528060008152602001600081525090565b6040518060600160405280600390602082028036833780820191505090505090565b6040518060800160405280600490602082028036833780820191505090505090565b6040518060400160405280610df2610e27565b8152602001610dff610e27565b81525090565b6040518060200160405280600190602082028036833780820191505090505090565b6040518060400160405280600290602082028036833780820191505090505090565b6000610e5c610e5784611072565b61104d565b90508082856020860282011115610e7657610e75611303565b5b60005b85811015610ea65781610e8c8882610fe0565b845260208401935060208301925050600181019050610e79565b5050509392505050565b600082601f830112610ec557610ec46112f9565b5b6002610ed2848285610e49565b91505092915050565b600060408284031215610ef157610ef06112fe565b5b610efb604061104d565b90506000610f0b84828501610fe0565b6000830152506020610f1f84828501610fe0565b60208301525092915050565b600060808284031215610f4157610f406112fe565b5b610f4b604061104d565b90506000610f5b84828501610eb0565b6000830152506040610f6f84828501610eb0565b60208301525092915050565b60006101008284031215610f9257610f916112fe565b5b610f9c606061104d565b90506000610fac84828501610edb565b6000830152506040610fc084828501610f2b565b60208301525060c0610fd484828501610edb565b60408301525092915050565b600081359050610fef8161131e565b92915050565b6000610100828403121561100c5761100b611308565b5b600061101a84828501610f7b565b91505092915050565b61102c8161117c565b82525050565b60006020820190506110476000830184611023565b92915050565b6000611057611068565b90506110638282611192565b919050565b6000604051905090565b600067ffffffffffffffff82111561108d5761108c6112ca565b5b602082029050919050565b60006110a382611188565b91506110ae83611188565b9250827fffffffffffffffffffffffffffffffffffffffffffffffffffffffffffffffff038211156110e3576110e261123d565b5b828201905092915050565b60006110f982611188565b915061110483611188565b9250817fffffffffffffffffffffffffffffffffffffffffffffffffffffffffffffffff048311821515161561113d5761113c61123d565b5b828202905092915050565b600061115382611188565b915061115e83611188565b9250828210156111715761117061123d565b5b828203905092915050565b60008115159050919050565b6000819050919050565b61119b8261130d565b810181811067ffffffffffffffff821117156111ba576111b96112ca565b5b80604052505050565b60006111ce82611188565b91507fffffffffffffffffffffffffffffffffffffffffffffffffffffffffffffffff8214156112015761120061123d565b5b600182019050919050565b600061121782611188565b915061122283611188565b9250826112325761123161126c565b5b828206905092915050565b7f4e487b7100000000000000000000000000000000000000000000000000000000600052601160045260246000fd5b7f4e487b7100000000000000000000000000000000000000000000000000000000600052601260045260246000fd5b7f4e487b7100000000000000000000000000000000000000000000000000000000600052603260045260246000fd5b7f4e487b7100000000000000000000000000000000000000000000000000000000600052604160045260246000fd5b600080fd5b600080fd5b600080fd5b600080fd5b6000601f19601f8301169050919050565b61132781611188565b811461133257600080fd5b5056fea2646970667358221220eb369ae87a4d9a03efc6127257ca9d19049957690ee73929786ba37bfc24d89564736f6c63430008070033",
					"opcodes": "PUSH1 0x80 PUSH1 0x40 MSTORE CALLVALUE DUP1 ISZERO PUSH2 0x10 JUMPI PUSH1 0x0 DUP1 REVERT JUMPDEST POP PUSH2 0x136B DUP1 PUSH2 0x20 PUSH1 0x0 CODECOPY PUSH1 0x0 RETURN INVALID PUSH1 0x80 PUSH1 0x40 MSTORE CALLVALUE DUP1 ISZERO PUSH2 0x10 JUMPI PUSH1 0x0 DUP1 REVERT JUMPDEST POP PUSH1 0x4 CALLDATASIZE LT PUSH2 0x2B JUMPI PUSH1 0x0 CALLDATALOAD PUSH1 0xE0 SHR DUP1 PUSH4 0xF6AF0311 EQ PUSH2 0x30 JUMPI JUMPDEST PUSH1 0x0 DUP1 REVERT JUMPDEST PUSH2 0x4A PUSH1 0x4 DUP1 CALLDATASIZE SUB DUP2 ADD SWAP1 PUSH2 0x45 SWAP2 SWAP1 PUSH2 0xFF5 JUMP JUMPDEST PUSH2 0x60 JUMP JUMPDEST PUSH1 0x40 MLOAD PUSH2 0x57 SWAP2 SWAP1 PUSH2 0x1032 JUMP JUMPDEST PUSH1 0x40 MLOAD DUP1 SWAP2 SUB SWAP1 RETURN JUMPDEST PUSH1 0x0 DUP1 PUSH1 0x0 PUSH8 0xFFFFFFFFFFFFFFFF DUP2 GT ISZERO PUSH2 0x7E JUMPI PUSH2 0x7D PUSH2 0x12CA JUMP JUMPDEST JUMPDEST PUSH1 0x40 MLOAD SWAP1 DUP1 DUP3 MSTORE DUP1 PUSH1 0x20 MUL PUSH1 0x20 ADD DUP3 ADD PUSH1 0x40 MSTORE DUP1 ISZERO PUSH2 0xAC JUMPI DUP2 PUSH1 0x20 ADD PUSH1 0x20 DUP3 MUL DUP1 CALLDATASIZE DUP4 CALLDATACOPY DUP1 DUP3 ADD SWAP2 POP POP SWAP1 POP JUMPDEST POP SWAP1 POP PUSH1 0x0 PUSH2 0xBB DUP3 DUP6 PUSH2 0xD6 JUMP JUMPDEST EQ ISZERO PUSH2 0xCB JUMPI PUSH1 0x1 SWAP2 POP POP PUSH2 0xD1 JUMP JUMPDEST PUSH1 0x0 SWAP2 POP POP JUMPDEST SWAP2 SWAP1 POP JUMP JUMPDEST PUSH1 0x0 DUP1 PUSH32 0x30644E72E131A029B85045B68181585D2833E84879B9709143E1F593F0000001 SWAP1 POP PUSH1 0x0 PUSH2 0x106 PUSH2 0x26D JUMP JUMPDEST SWAP1 POP DUP1 PUSH1 0x80 ADD MLOAD MLOAD PUSH1 0x1 DUP7 MLOAD PUSH2 0x11C SWAP2 SWAP1 PUSH2 0x1098 JUMP JUMPDEST EQ PUSH2 0x126 JUMPI PUSH1 0x0 DUP1 REVERT JUMPDEST PUSH1 0x0 PUSH1 0x40 MLOAD DUP1 PUSH1 0x40 ADD PUSH1 0x40 MSTORE DUP1 PUSH1 0x0 DUP2 MSTORE PUSH1 0x20 ADD PUSH1 0x0 DUP2 MSTORE POP SWAP1 POP PUSH1 0x0 JUMPDEST DUP7 MLOAD DUP2 LT ISZERO PUSH2 0x1DF JUMPI DUP4 DUP8 DUP3 DUP2 MLOAD DUP2 LT PUSH2 0x161 JUMPI PUSH2 0x160 PUSH2 0x129B JUMP JUMPDEST JUMPDEST PUSH1 0x20 MUL PUSH1 0x20 ADD ADD MLOAD LT PUSH2 0x173 JUMPI PUSH1 0x0 DUP1 REVERT JUMPDEST PUSH2 0x1CA DUP3 PUSH2 0x1C5 DUP6 PUSH1 0x80 ADD MLOAD PUSH1 0x1 DUP6 PUSH2 0x18C SWAP2 SWAP1 PUSH2 0x1098 JUMP JUMPDEST DUP2 MLOAD DUP2 LT PUSH2 0x19D JUMPI PUSH2 0x19C PUSH2 0x129B JUMP JUMPDEST JUMPDEST PUSH1 0x20 MUL PUSH1 0x20 ADD ADD MLOAD DUP11 DUP6 DUP2 MLOAD DUP2 LT PUSH2 0x1B8 JUMPI PUSH2 0x1B7 PUSH2 0x129B JUMP JUMPDEST JUMPDEST PUSH1 0x20 MUL PUSH1 0x20 ADD ADD MLOAD PUSH2 0x5F9 JUMP JUMPDEST PUSH2 0x6A0 JUMP JUMPDEST SWAP2 POP DUP1 DUP1 PUSH2 0x1D7 SWAP1 PUSH2 0x11C3 JUMP JUMPDEST SWAP2 POP POP PUSH2 0x144 JUMP JUMPDEST POP PUSH2 0x209 DUP2 DUP4 PUSH1 0x80 ADD MLOAD PUSH1 0x0 DUP2 MLOAD DUP2 LT PUSH2 0x1FC JUMPI PUSH2 0x1FB PUSH2 0x129B JUMP JUMPDEST JUMPDEST PUSH1 0x20 MUL PUSH1 0x20 ADD ADD MLOAD PUSH2 0x6A0 JUMP JUMPDEST SWAP1 POP PUSH2 0x24F DUP6 PUSH1 0x0 ADD MLOAD DUP7 PUSH1 0x20 ADD MLOAD PUSH2 0x221 DUP5 PUSH2 0x76D JUMP JUMPDEST DUP6 PUSH1 0x40 ADD MLOAD PUSH2 0x233 DUP11 PUSH1 0x40 ADD MLOAD PUSH2 0x76D JUMP JUMPDEST DUP8 PUSH1 0x60 ADD MLOAD PUSH2 0x245 DUP10 PUSH1 0x0 ADD MLOAD PUSH2 0x76D JUMP JUMPDEST DUP10 PUSH1 0x20 ADD MLOAD PUSH2 0x812 JUMP JUMPDEST PUSH2 0x25F JUMPI PUSH1 0x1 SWAP4 POP POP POP POP PUSH2 0x267 JUMP JUMPDEST PUSH1 0x0 SWAP4 POP POP POP POP JUMPDEST SWAP3 SWAP2 POP POP JUMP JUMPDEST PUSH2 0x275 PUSH2 0xD3A JUMP JUMPDEST PUSH1 0x40 MLOAD DUP1 PUSH1 0x40 ADD PUSH1 0x40 MSTORE DUP1 PUSH32 0x1FDEDC4D74A6C545D0175532CD4564B545F4FBA889DD16B77367F06EC7FAEAF5 DUP2 MSTORE PUSH1 0x20 ADD PUSH32 0x21B9827F906C4099D33E386CA2AD769EAA48BA95893F7968AD6FEB138D7E56A0 DUP2 MSTORE POP DUP2 PUSH1 0x0 ADD DUP2 SWAP1 MSTORE POP PUSH1 0x40 MLOAD DUP1 PUSH1 0x40 ADD PUSH1 0x40 MSTORE DUP1 PUSH1 0x40 MLOAD DUP1 PUSH1 0x40 ADD PUSH1 0x40 MSTORE DUP1 PUSH32 0x20F3703BE75050503099249AB5A4FE9BDC92AF5C1124C314E5EB6E8E7F0580AB DUP2 MSTORE PUSH1 0x20 ADD PUSH32 0x12FC620BC73D8EE6D0C37BFD35D801E34BF0192513D48D46E6E8A4FD099CEF36 DUP2 MSTORE POP DUP2 MSTORE PUSH1 0x20 ADD PUSH1 0x40 MLOAD DUP1 PUSH1 0x40 ADD PUSH1 0x40 MSTORE DUP1 PUSH32 0x2E4A53ADF3BF125AB99CDBD3279555158C881DBB45F3F84A3573AA7C658D97F2 DUP2 MSTORE PUSH1 0x20 ADD PUSH32 0x1C668DC18277710D3B4E4B76195B193043CF0BFCD5E379C9253D272EC0AA7630 DUP2 MSTORE POP DUP2 MSTORE POP DUP2 PUSH1 0x20 ADD DUP2 SWAP1 MSTORE POP PUSH1 0x40 MLOAD DUP1 PUSH1 0x40 ADD PUSH1 0x40 MSTORE DUP1 PUSH1 0x40 MLOAD DUP1 PUSH1 0x40 ADD PUSH1 0x40 MSTORE DUP1 PUSH32 0x2E99A3654469EE16C016FCADE62F1E5F9D302CFF6163303B15BD3FAFDDB43AE9 DUP2 MSTORE PUSH1 0x20 ADD PUSH32 0x2D9F2AB023F35AD98AFEC5A8B75BB6990B9CCFD8BAE336312163B154C143A0A6 DUP2 MSTORE POP DUP2 MSTORE PUSH1 0x20 ADD PUSH1 0x40 MLOAD DUP1 PUSH1 0x40 ADD PUSH1 0x40 MSTORE DUP1 PUSH32 0x557F37B3DD57BFE24D1B19793969AEF90C6E20E716470A4840C4AA66B3EB7DC DUP2 MSTORE PUSH1 0x20 ADD PUSH32 0x1DD44F774A60E52731E2F62A2223F33BBB2771A8853A923DFE9816A200B5928 DUP2 MSTORE POP DUP2 MSTORE POP DUP2 PUSH1 0x40 ADD DUP2 SWAP1 MSTORE POP PUSH1 0x40 MLOAD DUP1 PUSH1 0x40 ADD PUSH1 0x40 MSTORE DUP1 PUSH1 0x40 MLOAD DUP1 PUSH1 0x40 ADD PUSH1 0x40 MSTORE DUP1 PUSH32 0x195662174889172211DD148D40B1693DCDC55965A46DFAD6CE0B7FE82B0A63E DUP2 MSTORE PUSH1 0x20 ADD PUSH32 0x1D5EC1B5E38EBFEFF940DF7CAF36F258A9FCB6091BF643084AD00F22D9121771 DUP2 MSTORE POP DUP2 MSTORE PUSH1 0x20 ADD PUSH1 0x40 MLOAD DUP1 PUSH1 0x40 ADD PUSH1 0x40 MSTORE DUP1 PUSH32 0x24C34C5D910ED5CA19527044658583EB2D55D563EEC24AD73D2E1BCA1C6D68DF DUP2 MSTORE PUSH1 0x20 ADD PUSH32 0x2B3D4D65DFBF6921DB931526703BE5C65335B6DC3B70802CC7C736B51E0DF043 DUP2 MSTORE POP DUP2 MSTORE POP DUP2 PUSH1 0x60 ADD DUP2 SWAP1 MSTORE POP PUSH1 0x1 PUSH8 0xFFFFFFFFFFFFFFFF DUP2 GT ISZERO PUSH2 0x53C JUMPI PUSH2 0x53B PUSH2 0x12CA JUMP JUMPDEST JUMPDEST PUSH1 0x40 MLOAD SWAP1 DUP1 DUP3 MSTORE DUP1 PUSH1 0x20 MUL PUSH1 0x20 ADD DUP3 ADD PUSH1 0x40 MSTORE DUP1 ISZERO PUSH2 0x575 JUMPI DUP2 PUSH1 0x20 ADD JUMPDEST PUSH2 0x562 PUSH2 0xD81 JUMP JUMPDEST DUP2 MSTORE PUSH1 0x20 ADD SWAP1 PUSH1 0x1 SWAP1 SUB SWAP1 DUP2 PUSH2 0x55A JUMPI SWAP1 POP JUMPDEST POP DUP2 PUSH1 0x80 ADD DUP2 SWAP1 MSTORE POP PUSH1 0x40 MLOAD DUP1 PUSH1 0x40 ADD PUSH1 0x40 MSTORE DUP1 PUSH32 0x12F2D9F7BAC40DE2E42C343AF97C7EA513D9C2ADD1BF91DCE58CF9215CB9D2D DUP2 MSTORE PUSH1 0x20 ADD PUSH32 0x1DF5488F3315E1D47726D6FED303482BE76A6A87E91AA70F7ECE33DF6733749F DUP2 MSTORE POP DUP2 PUSH1 0x80 ADD MLOAD PUSH1 0x0 DUP2 MLOAD DUP2 LT PUSH2 0x5EB JUMPI PUSH2 0x5EA PUSH2 0x129B JUMP JUMPDEST JUMPDEST PUSH1 0x20 MUL PUSH1 0x20 ADD ADD DUP2 SWAP1 MSTORE POP SWAP1 JUMP JUMPDEST PUSH2 0x601 PUSH2 0xD81 JUMP JUMPDEST PUSH2 0x609 PUSH2 0xD9B JUMP JUMPDEST DUP4 PUSH1 0x0 ADD MLOAD DUP2 PUSH1 0x0 PUSH1 0x3 DUP2 LT PUSH2 0x622 JUMPI PUSH2 0x621 PUSH2 0x129B JUMP JUMPDEST JUMPDEST PUSH1 0x20 MUL ADD DUP2 DUP2 MSTORE POP POP DUP4 PUSH1 0x20 ADD MLOAD DUP2 PUSH1 0x1 PUSH1 0x3 DUP2 LT PUSH2 0x644 JUMPI PUSH2 0x643 PUSH2 0x129B JUMP JUMPDEST JUMPDEST PUSH1 0x20 MUL ADD DUP2 DUP2 MSTORE POP POP DUP3 DUP2 PUSH1 0x2 PUSH1 0x3 DUP2 LT PUSH2 0x662 JUMPI PUSH2 0x661 PUSH2 0x129B JUMP JUMPDEST JUMPDEST PUSH1 0x20 MUL ADD DUP2 DUP2 MSTORE POP POP PUSH1 0x0 PUSH1 0x60 DUP4 PUSH1 0x80 DUP5 PUSH1 0x7 PUSH2 0x7D0 GAS SUB STATICCALL SWAP1 POP DUP1 PUSH1 0x0 DUP2 EQ PUSH2 0x68B JUMPI PUSH2 0x68D JUMP JUMPDEST INVALID JUMPDEST POP DUP1 PUSH2 0x698 JUMPI PUSH1 0x0 DUP1 REVERT JUMPDEST POP POP SWAP3 SWAP2 POP POP JUMP JUMPDEST PUSH2 0x6A8 PUSH2 0xD81 JUMP JUMPDEST PUSH2 0x6B0 PUSH2 0xDBD JUMP JUMPDEST DUP4 PUSH1 0x0 ADD MLOAD DUP2 PUSH1 0x0 PUSH1 0x4 DUP2 LT PUSH2 0x6C9 JUMPI PUSH2 0x6C8 PUSH2 0x129B JUMP JUMPDEST JUMPDEST PUSH1 0x20 MUL ADD DUP2 DUP2 MSTORE POP POP DUP4 PUSH1 0x20 ADD MLOAD DUP2 PUSH1 0x1 PUSH1 0x4 DUP2 LT PUSH2 0x6EB JUMPI PUSH2 0x6EA PUSH2 0x129B JUMP JUMPDEST JUMPDEST PUSH1 0x20 MUL ADD DUP2 DUP2 MSTORE POP POP DUP3 PUSH1 0x0 ADD MLOAD DUP2 PUSH1 0x2 PUSH1 0x4 DUP2 LT PUSH2 0x70D JUMPI PUSH2 0x70C PUSH2 0x129B JUMP JUMPDEST JUMPDEST PUSH1 0x20 MUL ADD DUP2 DUP2 MSTORE POP POP DUP3 PUSH1 0x20 ADD MLOAD DUP2 PUSH1 0x3 PUSH1 0x4 DUP2 LT PUSH2 0x72F JUMPI PUSH2 0x72E PUSH2 0x129B JUMP JUMPDEST JUMPDEST PUSH1 0x20 MUL ADD DUP2 DUP2 MSTORE POP POP PUSH1 0x0 PUSH1 0x60 DUP4 PUSH1 0xC0 DUP5 PUSH1 0x6 PUSH2 0x7D0 GAS SUB STATICCALL SWAP1 POP DUP1 PUSH1 0x0 DUP2 EQ PUSH2 0x758 JUMPI PUSH2 0x75A JUMP JUMPDEST INVALID JUMPDEST POP DUP1 PUSH2 0x765 JUMPI PUSH1 0x0 DUP1 REVERT JUMPDEST POP POP SWAP3 SWAP2 POP POP JUMP JUMPDEST PUSH2 0x775 PUSH2 0xD81 JUMP JUMPDEST PUSH1 0x0 PUSH32 0x30644E72E131A029B85045B68181585D97816A916871CA8D3C208C16D87CFD47 SWAP1 POP PUSH1 0x0 DUP4 PUSH1 0x0 ADD MLOAD EQ DUP1 ISZERO PUSH2 0x7B2 JUMPI POP PUSH1 0x0 DUP4 PUSH1 0x20 ADD MLOAD EQ JUMPDEST ISZERO PUSH2 0x7D6 JUMPI PUSH1 0x40 MLOAD DUP1 PUSH1 0x40 ADD PUSH1 0x40 MSTORE DUP1 PUSH1 0x0 DUP2 MSTORE PUSH1 0x20 ADD PUSH1 0x0 DUP2 MSTORE POP SWAP2 POP POP PUSH2 0x80D JUMP JUMPDEST PUSH1 0x40 MLOAD DUP1 PUSH1 0x40 ADD PUSH1 0x40 MSTORE DUP1 DUP5 PUSH1 0x0 ADD MLOAD DUP2 MSTORE PUSH1 0x20 ADD DUP3 DUP6 PUSH1 0x20 ADD MLOAD PUSH2 0x7FB SWAP2 SWAP1 PUSH2 0x120C JUMP JUMPDEST DUP4 PUSH2 0x806 SWAP2 SWAP1 PUSH2 0x1148 JUMP JUMPDEST DUP2 MSTORE POP SWAP2 POP POP JUMPDEST SWAP2 SWAP1 POP JUMP JUMPDEST PUSH1 0x0 DUP1 PUSH1 0x4 PUSH8 0xFFFFFFFFFFFFFFFF DUP2 GT ISZERO PUSH2 0x830 JUMPI PUSH2 0x82F PUSH2 0x12CA JUMP JUMPDEST JUMPDEST PUSH1 0x40 MLOAD SWAP1 DUP1 DUP3 MSTORE DUP1 PUSH1 0x20 MUL PUSH1 0x20 ADD DUP3 ADD PUSH1 0x40 MSTORE DUP1 ISZERO PUSH2 0x869 JUMPI DUP2 PUSH1 0x20 ADD JUMPDEST PUSH2 0x856 PUSH2 0xD81 JUMP JUMPDEST DUP2 MSTORE PUSH1 0x20 ADD SWAP1 PUSH1 0x1 SWAP1 SUB SWAP1 DUP2 PUSH2 0x84E JUMPI SWAP1 POP JUMPDEST POP SWAP1 POP PUSH1 0x0 PUSH1 0x4 PUSH8 0xFFFFFFFFFFFFFFFF DUP2 GT ISZERO PUSH2 0x889 JUMPI PUSH2 0x888 PUSH2 0x12CA JUMP JUMPDEST JUMPDEST PUSH1 0x40 MLOAD SWAP1 DUP1 DUP3 MSTORE DUP1 PUSH1 0x20 MUL PUSH1 0x20 ADD DUP3 ADD PUSH1 0x40 MSTORE DUP1 ISZERO PUSH2 0x8C2 JUMPI DUP2 PUSH1 0x20 ADD JUMPDEST PUSH2 0x8AF PUSH2 0xDDF JUMP JUMPDEST DUP2 MSTORE PUSH1 0x20 ADD SWAP1 PUSH1 0x1 SWAP1 SUB SWAP1 DUP2 PUSH2 0x8A7 JUMPI SWAP1 POP JUMPDEST POP SWAP1 POP DUP11 DUP3 PUSH1 0x0 DUP2 MLOAD DUP2 LT PUSH2 0x8DA JUMPI PUSH2 0x8D9 PUSH2 0x129B JUMP JUMPDEST JUMPDEST PUSH1 0x20 MUL PUSH1 0x20 ADD ADD DUP2 SWAP1 MSTORE POP DUP9 DUP3 PUSH1 0x1 DUP2 MLOAD DUP2 LT PUSH2 0x8FA JUMPI PUSH2 0x8F9 PUSH2 0x129B JUMP JUMPDEST JUMPDEST PUSH1 0x20 MUL PUSH1 0x20 ADD ADD DUP2 SWAP1 MSTORE POP DUP7 DUP3 PUSH1 0x2 DUP2 MLOAD DUP2 LT PUSH2 0x91A JUMPI PUSH2 0x919 PUSH2 0x129B JUMP JUMPDEST JUMPDEST PUSH1 0x20 MUL PUSH1 0x20 ADD ADD DUP2 SWAP1 MSTORE POP DUP5 DUP3 PUSH1 0x3 DUP2 MLOAD DUP2 LT PUSH2 0x93A JUMPI PUSH2 0x939 PUSH2 0x129B JUMP JUMPDEST JUMPDEST PUSH1 0x20 MUL PUSH1 0x20 ADD ADD DUP2 SWAP1 MSTORE POP DUP10 DUP2 PUSH1 0x0 DUP2 MLOAD DUP2 LT PUSH2 0x95A JUMPI PUSH2 0x959 PUSH2 0x129B JUMP JUMPDEST JUMPDEST PUSH1 0x20 MUL PUSH1 0x20 ADD ADD DUP2 SWAP1 MSTORE POP DUP8 DUP2 PUSH1 0x1 DUP2 MLOAD DUP2 LT PUSH2 0x97A JUMPI PUSH2 0x979 PUSH2 0x129B JUMP JUMPDEST JUMPDEST PUSH1 0x20 MUL PUSH1 0x20 ADD ADD DUP2 SWAP1 MSTORE POP DUP6 DUP2 PUSH1 0x2 DUP2 MLOAD DUP2 LT PUSH2 0x99A JUMPI PUSH2 0x999 PUSH2 0x129B JUMP JUMPDEST JUMPDEST PUSH1 0x20 MUL PUSH1 0x20 ADD ADD DUP2 SWAP1 MSTORE POP DUP4 DUP2 PUSH1 0x3 DUP2 MLOAD DUP2 LT PUSH2 0x9BA JUMPI PUSH2 0x9B9 PUSH2 0x129B JUMP JUMPDEST JUMPDEST PUSH1 0x20 MUL PUSH1 0x20 ADD ADD DUP2 SWAP1 MSTORE POP PUSH2 0x9CF DUP3 DUP3 PUSH2 0x9DF JUMP JUMPDEST SWAP3 POP POP POP SWAP9 SWAP8 POP POP POP POP POP POP POP POP JUMP JUMPDEST PUSH1 0x0 DUP2 MLOAD DUP4 MLOAD EQ PUSH2 0x9EF JUMPI PUSH1 0x0 DUP1 REVERT JUMPDEST PUSH1 0x0 DUP4 MLOAD SWAP1 POP PUSH1 0x0 PUSH1 0x6 DUP3 PUSH2 0xA04 SWAP2 SWAP1 PUSH2 0x10EE JUMP JUMPDEST SWAP1 POP PUSH1 0x0 DUP2 PUSH8 0xFFFFFFFFFFFFFFFF DUP2 GT ISZERO PUSH2 0xA22 JUMPI PUSH2 0xA21 PUSH2 0x12CA JUMP JUMPDEST JUMPDEST PUSH1 0x40 MLOAD SWAP1 DUP1 DUP3 MSTORE DUP1 PUSH1 0x20 MUL PUSH1 0x20 ADD DUP3 ADD PUSH1 0x40 MSTORE DUP1 ISZERO PUSH2 0xA50 JUMPI DUP2 PUSH1 0x20 ADD PUSH1 0x20 DUP3 MUL DUP1 CALLDATASIZE DUP4 CALLDATACOPY DUP1 DUP3 ADD SWAP2 POP POP SWAP1 POP JUMPDEST POP SWAP1 POP PUSH1 0x0 JUMPDEST DUP4 DUP2 LT ISZERO PUSH2 0xCD5 JUMPI DUP7 DUP2 DUP2 MLOAD DUP2 LT PUSH2 0xA71 JUMPI PUSH2 0xA70 PUSH2 0x129B JUMP JUMPDEST JUMPDEST PUSH1 0x20 MUL PUSH1 0x20 ADD ADD MLOAD PUSH1 0x0 ADD MLOAD DUP3 PUSH1 0x0 PUSH1 0x6 DUP5 PUSH2 0xA8D SWAP2 SWAP1 PUSH2 0x10EE JUMP JUMPDEST PUSH2 0xA97 SWAP2 SWAP1 PUSH2 0x1098 JUMP JUMPDEST DUP2 MLOAD DUP2 LT PUSH2 0xAA8 JUMPI PUSH2 0xAA7 PUSH2 0x129B JUMP JUMPDEST JUMPDEST PUSH1 0x20 MUL PUSH1 0x20 ADD ADD DUP2 DUP2 MSTORE POP POP DUP7 DUP2 DUP2 MLOAD DUP2 LT PUSH2 0xAC7 JUMPI PUSH2 0xAC6 PUSH2 0x129B JUMP JUMPDEST JUMPDEST PUSH1 0x20 MUL PUSH1 0x20 ADD ADD MLOAD PUSH1 0x20 ADD MLOAD DUP3 PUSH1 0x1 PUSH1 0x6 DUP5 PUSH2 0xAE3 SWAP2 SWAP1 PUSH2 0x10EE JUMP JUMPDEST PUSH2 0xAED SWAP2 SWAP1 PUSH2 0x1098 JUMP JUMPDEST DUP2 MLOAD DUP2 LT PUSH2 0xAFE JUMPI PUSH2 0xAFD PUSH2 0x129B JUMP JUMPDEST JUMPDEST PUSH1 0x20 MUL PUSH1 0x20 ADD ADD DUP2 DUP2 MSTORE POP POP DUP6 DUP2 DUP2 MLOAD DUP2 LT PUSH2 0xB1D JUMPI PUSH2 0xB1C PUSH2 0x129B JUMP JUMPDEST JUMPDEST PUSH1 0x20 MUL PUSH1 0x20 ADD ADD MLOAD PUSH1 0x0 ADD MLOAD PUSH1 0x1 PUSH1 0x2 DUP2 LT PUSH2 0xB3C JUMPI PUSH2 0xB3B PUSH2 0x129B JUMP JUMPDEST JUMPDEST PUSH1 0x20 MUL ADD MLOAD DUP3 PUSH1 0x2 PUSH1 0x6 DUP5 PUSH2 0xB51 SWAP2 SWAP1 PUSH2 0x10EE JUMP JUMPDEST PUSH2 0xB5B SWAP2 SWAP1 PUSH2 0x1098 JUMP JUMPDEST DUP2 MLOAD DUP2 LT PUSH2 0xB6C JUMPI PUSH2 0xB6B PUSH2 0x129B JUMP JUMPDEST JUMPDEST PUSH1 0x20 MUL PUSH1 0x20 ADD ADD DUP2 DUP2 MSTORE POP POP DUP6 DUP2 DUP2 MLOAD DUP2 LT PUSH2 0xB8B JUMPI PUSH2 0xB8A PUSH2 0x129B JUMP JUMPDEST JUMPDEST PUSH1 0x20 MUL PUSH1 0x20 ADD ADD MLOAD PUSH1 0x0 ADD MLOAD PUSH1 0x0 PUSH1 0x2 DUP2 LT PUSH2 0xBAA JUMPI PUSH2 0xBA9 PUSH2 0x129B JUMP JUMPDEST JUMPDEST PUSH1 0x20 MUL ADD MLOAD DUP3 PUSH1 0x3 PUSH1 0x6 DUP5 PUSH2 0xBBF SWAP2 SWAP1 PUSH2 0x10EE JUMP JUMPDEST PUSH2 0xBC9 SWAP2 SWAP1 PUSH2 0x1098 JUMP JUMPDEST DUP2 MLOAD DUP2 LT PUSH2 0xBDA JUMPI PUSH2 0xBD9 PUSH2 0x129B JUMP JUMPDEST JUMPDEST PUSH1 0x20 MUL PUSH1 0x20 ADD ADD DUP2 DUP2 MSTORE POP POP DUP6 DUP2 DUP2 MLOAD DUP2 LT PUSH2 0xBF9 JUMPI PUSH2 0xBF8 PUSH2 0x129B JUMP JUMPDEST JUMPDEST PUSH1 0x20 MUL PUSH1 0x20 ADD ADD MLOAD PUSH1 0x20 ADD MLOAD PUSH1 0x1 PUSH1 0x2 DUP2 LT PUSH2 0xC18 JUMPI PUSH2 0xC17 PUSH2 0x129B JUMP JUMPDEST JUMPDEST PUSH1 0x20 MUL ADD MLOAD DUP3 PUSH1 0x4 PUSH1 0x6 DUP5 PUSH2 0xC2D SWAP2 SWAP1 PUSH2 0x10EE JUMP JUMPDEST PUSH2 0xC37 SWAP2 SWAP1 PUSH2 0x1098 JUMP JUMPDEST DUP2 MLOAD DUP2 LT PUSH2 0xC48 JUMPI PUSH2 0xC47 PUSH2 0x129B JUMP JUMPDEST JUMPDEST PUSH1 0x20 MUL PUSH1 0x20 ADD ADD DUP2 DUP2 MSTORE POP POP DUP6 DUP2 DUP2 MLOAD DUP2 LT PUSH2 0xC67 JUMPI PUSH2 0xC66 PUSH2 0x129B JUMP JUMPDEST JUMPDEST PUSH1 0x20 MUL PUSH1 0x20 ADD ADD MLOAD PUSH1 0x20 ADD MLOAD PUSH1 0x0 PUSH1 0x2 DUP2 LT PUSH2 0xC86 JUMPI PUSH2 0xC85 PUSH2 0x129B JUMP JUMPDEST JUMPDEST PUSH1 0x20 MUL ADD MLOAD DUP3 PUSH1 0x5 PUSH1 0x6 DUP5 PUSH2 0xC9B SWAP2 SWAP1 PUSH2 0x10EE JUMP JUMPDEST PUSH2 0xCA5 SWAP2 SWAP1 PUSH2 0x1098 JUMP JUMPDEST DUP2 MLOAD DUP2 LT PUSH2 0xCB6 JUMPI PUSH2 0xCB5 PUSH2 0x129B JUMP JUMPDEST JUMPDEST PUSH1 0x20 MUL PUSH1 0x20 ADD ADD DUP2 DUP2 MSTORE POP POP DUP1 DUP1 PUSH2 0xCCD SWAP1 PUSH2 0x11C3 JUMP JUMPDEST SWAP2 POP POP PUSH2 0xA56 JUMP JUMPDEST POP PUSH2 0xCDE PUSH2 0xE05 JUMP JUMPDEST PUSH1 0x0 PUSH1 0x20 DUP3 PUSH1 0x20 DUP7 MUL PUSH1 0x20 DUP7 ADD PUSH1 0x8 PUSH2 0x7D0 GAS SUB STATICCALL SWAP1 POP DUP1 PUSH1 0x0 DUP2 EQ PUSH2 0xD03 JUMPI PUSH2 0xD05 JUMP JUMPDEST INVALID JUMPDEST POP DUP1 PUSH2 0xD10 JUMPI PUSH1 0x0 DUP1 REVERT JUMPDEST PUSH1 0x0 DUP3 PUSH1 0x0 PUSH1 0x1 DUP2 LT PUSH2 0xD26 JUMPI PUSH2 0xD25 PUSH2 0x129B JUMP JUMPDEST JUMPDEST PUSH1 0x20 MUL ADD MLOAD EQ ISZERO SWAP6 POP POP POP POP POP POP SWAP3 SWAP2 POP POP JUMP JUMPDEST PUSH1 0x40 MLOAD DUP1 PUSH1 0xA0 ADD PUSH1 0x40 MSTORE DUP1 PUSH2 0xD4D PUSH2 0xD81 JUMP JUMPDEST DUP2 MSTORE PUSH1 0x20 ADD PUSH2 0xD5A PUSH2 0xDDF JUMP JUMPDEST DUP2 MSTORE PUSH1 0x20 ADD PUSH2 0xD67 PUSH2 0xDDF JUMP JUMPDEST DUP2 MSTORE PUSH1 0x20 ADD PUSH2 0xD74 PUSH2 0xDDF JUMP JUMPDEST DUP2 MSTORE PUSH1 0x20 ADD PUSH1 0x60 DUP2 MSTORE POP SWAP1 JUMP JUMPDEST PUSH1 0x40 MLOAD DUP1 PUSH1 0x40 ADD PUSH1 0x40 MSTORE DUP1 PUSH1 0x0 DUP2 MSTORE PUSH1 0x20 ADD PUSH1 0x0 DUP2 MSTORE POP SWAP1 JUMP JUMPDEST PUSH1 0x40 MLOAD DUP1 PUSH1 0x60 ADD PUSH1 0x40 MSTORE DUP1 PUSH1 0x3 SWAP1 PUSH1 0x20 DUP3 MUL DUP1 CALLDATASIZE DUP4 CALLDATACOPY DUP1 DUP3 ADD SWAP2 POP POP SWAP1 POP POP SWAP1 JUMP JUMPDEST PUSH1 0x40 MLOAD DUP1 PUSH1 0x80 ADD PUSH1 0x40 MSTORE DUP1 PUSH1 0x4 SWAP1 PUSH1 0x20 DUP3 MUL DUP1 CALLDATASIZE DUP4 CALLDATACOPY DUP1 DUP3 ADD SWAP2 POP POP SWAP1 POP POP SWAP1 JUMP JUMPDEST PUSH1 0x40 MLOAD DUP1 PUSH1 0x40 ADD PUSH1 0x40 MSTORE DUP1 PUSH2 0xDF2 PUSH2 0xE27 JUMP JUMPDEST DUP2 MSTORE PUSH1 0x20 ADD PUSH2 0xDFF PUSH2 0xE27 JUMP JUMPDEST DUP2 MSTORE POP SWAP1 JUMP JUMPDEST PUSH1 0x40 MLOAD DUP1 PUSH1 0x20 ADD PUSH1 0x40 MSTORE DUP1 PUSH1 0x1 SWAP1 PUSH1 0x20 DUP3 MUL DUP1 CALLDATASIZE DUP4 CALLDATACOPY DUP1 DUP3 ADD SWAP2 POP POP SWAP1 POP POP SWAP1 JUMP JUMPDEST PUSH1 0x40 MLOAD DUP1 PUSH1 0x40 ADD PUSH1 0x40 MSTORE DUP1 PUSH1 0x2 SWAP1 PUSH1 0x20 DUP3 MUL DUP1 CALLDATASIZE DUP4 CALLDATACOPY DUP1 DUP3 ADD SWAP2 POP POP SWAP1 POP POP SWAP1 JUMP JUMPDEST PUSH1 0x0 PUSH2 0xE5C PUSH2 0xE57 DUP5 PUSH2 0x1072 JUMP JUMPDEST PUSH2 0x104D JUMP JUMPDEST SWAP1 POP DUP1 DUP3 DUP6 PUSH1 0x20 DUP7 MUL DUP3 ADD GT ISZERO PUSH2 0xE76 JUMPI PUSH2 0xE75 PUSH2 0x1303 JUMP JUMPDEST JUMPDEST PUSH1 0x0 JUMPDEST DUP6 DUP2 LT ISZERO PUSH2 0xEA6 JUMPI DUP2 PUSH2 0xE8C DUP9 DUP3 PUSH2 0xFE0 JUMP JUMPDEST DUP5 MSTORE PUSH1 0x20 DUP5 ADD SWAP4 POP PUSH1 0x20 DUP4 ADD SWAP3 POP POP PUSH1 0x1 DUP2 ADD SWAP1 POP PUSH2 0xE79 JUMP JUMPDEST POP POP POP SWAP4 SWAP3 POP POP POP JUMP JUMPDEST PUSH1 0x0 DUP3 PUSH1 0x1F DUP4 ADD SLT PUSH2 0xEC5 JUMPI PUSH2 0xEC4 PUSH2 0x12F9 JUMP JUMPDEST JUMPDEST PUSH1 0x2 PUSH2 0xED2 DUP5 DUP3 DUP6 PUSH2 0xE49 JUMP JUMPDEST SWAP2 POP POP SWAP3 SWAP2 POP POP JUMP JUMPDEST PUSH1 0x0 PUSH1 0x40 DUP3 DUP5 SUB SLT ISZERO PUSH2 0xEF1 JUMPI PUSH2 0xEF0 PUSH2 0x12FE JUMP JUMPDEST JUMPDEST PUSH2 0xEFB PUSH1 0x40 PUSH2 0x104D JUMP JUMPDEST SWAP1 POP PUSH1 0x0 PUSH2 0xF0B DUP5 DUP3 DUP6 ADD PUSH2 0xFE0 JUMP JUMPDEST PUSH1 0x0 DUP4 ADD MSTORE POP PUSH1 0x20 PUSH2 0xF1F DUP5 DUP3 DUP6 ADD PUSH2 0xFE0 JUMP JUMPDEST PUSH1 0x20 DUP4 ADD MSTORE POP SWAP3 SWAP2 POP POP JUMP JUMPDEST PUSH1 0x0 PUSH1 0x80 DUP3 DUP5 SUB SLT ISZERO PUSH2 0xF41 JUMPI PUSH2 0xF40 PUSH2 0x12FE JUMP JUMPDEST JUMPDEST PUSH2 0xF4B PUSH1 0x40 PUSH2 0x104D JUMP JUMPDEST SWAP1 POP PUSH1 0x0 PUSH2 0xF5B DUP5 DUP3 DUP6 ADD PUSH2 0xEB0 JUMP JUMPDEST PUSH1 0x0 DUP4 ADD MSTORE POP PUSH1 0x40 PUSH2 0xF6F DUP5 DUP3 DUP6 ADD PUSH2 0xEB0 JUMP JUMPDEST PUSH1 0x20 DUP4 ADD MSTORE POP SWAP3 SWAP2 POP POP JUMP JUMPDEST PUSH1 0x0 PUSH2 0x100 DUP3 DUP5 SUB SLT ISZERO PUSH2 0xF92 JUMPI PUSH2 0xF91 PUSH2 0x12FE JUMP JUMPDEST JUMPDEST PUSH2 0xF9C PUSH1 0x60 PUSH2 0x104D JUMP JUMPDEST SWAP1 POP PUSH1 0x0 PUSH2 0xFAC DUP5 DUP3 DUP6 ADD PUSH2 0xEDB JUMP JUMPDEST PUSH1 0x0 DUP4 ADD MSTORE POP PUSH1 0x40 PUSH2 0xFC0 DUP5 DUP3 DUP6 ADD PUSH2 0xF2B JUMP JUMPDEST PUSH1 0x20 DUP4 ADD MSTORE POP PUSH1 0xC0 PUSH2 0xFD4 DUP5 DUP3 DUP6 ADD PUSH2 0xEDB JUMP JUMPDEST PUSH1 0x40 DUP4 ADD MSTORE POP SWAP3 SWAP2 POP POP JUMP JUMPDEST PUSH1 0x0 DUP2 CALLDATALOAD SWAP1 POP PUSH2 0xFEF DUP2 PUSH2 0x131E JUMP JUMPDEST SWAP3 SWAP2 POP POP JUMP JUMPDEST PUSH1 0x0 PUSH2 0x100 DUP3 DUP5 SUB SLT ISZERO PUSH2 0x100C JUMPI PUSH2 0x100B PUSH2 0x1308 JUMP JUMPDEST JUMPDEST PUSH1 0x0 PUSH2 0x101A DUP5 DUP3 DUP6 ADD PUSH2 0xF7B JUMP JUMPDEST SWAP2 POP POP SWAP3 SWAP2 POP POP JUMP JUMPDEST PUSH2 0x102C DUP2 PUSH2 0x117C JUMP JUMPDEST DUP3 MSTORE POP POP JUMP JUMPDEST PUSH1 0x0 PUSH1 0x20 DUP3 ADD SWAP1 POP PUSH2 0x1047 PUSH1 0x0 DUP4 ADD DUP5 PUSH2 0x1023 JUMP JUMPDEST SWAP3 SWAP2 POP POP JUMP JUMPDEST PUSH1 0x0 PUSH2 0x1057 PUSH2 0x1068 JUMP JUMPDEST SWAP1 POP PUSH2 0x1063 DUP3 DUP3 PUSH2 0x1192 JUMP JUMPDEST SWAP2 SWAP1 POP JUMP JUMPDEST PUSH1 0x0 PUSH1 0x40 MLOAD SWAP1 POP SWAP1 JUMP JUMPDEST PUSH1 0x0 PUSH8 0xFFFFFFFFFFFFFFFF DUP3 GT ISZERO PUSH2 0x108D JUMPI PUSH2 0x108C PUSH2 0x12CA JUMP JUMPDEST JUMPDEST PUSH1 0x20 DUP3 MUL SWAP1 POP SWAP2 SWAP1 POP JUMP JUMPDEST PUSH1 0x0 PUSH2 0x10A3 DUP3 PUSH2 0x1188 JUMP JUMPDEST SWAP2 POP PUSH2 0x10AE DUP4 PUSH2 0x1188 JUMP JUMPDEST SWAP3 POP DUP3 PUSH32 0xFFFFFFFFFFFFFFFFFFFFFFFFFFFFFFFFFFFFFFFFFFFFFFFFFFFFFFFFFFFFFFFF SUB DUP3 GT ISZERO PUSH2 0x10E3 JUMPI PUSH2 0x10E2 PUSH2 0x123D JUMP JUMPDEST JUMPDEST DUP3 DUP3 ADD SWAP1 POP SWAP3 SWAP2 POP POP JUMP JUMPDEST PUSH1 0x0 PUSH2 0x10F9 DUP3 PUSH2 0x1188 JUMP JUMPDEST SWAP2 POP PUSH2 0x1104 DUP4 PUSH2 0x1188 JUMP JUMPDEST SWAP3 POP DUP2 PUSH32 0xFFFFFFFFFFFFFFFFFFFFFFFFFFFFFFFFFFFFFFFFFFFFFFFFFFFFFFFFFFFFFFFF DIV DUP4 GT DUP3 ISZERO ISZERO AND ISZERO PUSH2 0x113D JUMPI PUSH2 0x113C PUSH2 0x123D JUMP JUMPDEST JUMPDEST DUP3 DUP3 MUL SWAP1 POP SWAP3 SWAP2 POP POP JUMP JUMPDEST PUSH1 0x0 PUSH2 0x1153 DUP3 PUSH2 0x1188 JUMP JUMPDEST SWAP2 POP PUSH2 0x115E DUP4 PUSH2 0x1188 JUMP JUMPDEST SWAP3 POP DUP3 DUP3 LT ISZERO PUSH2 0x1171 JUMPI PUSH2 0x1170 PUSH2 0x123D JUMP JUMPDEST JUMPDEST DUP3 DUP3 SUB SWAP1 POP SWAP3 SWAP2 POP POP JUMP JUMPDEST PUSH1 0x0 DUP2 ISZERO ISZERO SWAP1 POP SWAP2 SWAP1 POP JUMP JUMPDEST PUSH1 0x0 DUP2 SWAP1 POP SWAP2 SWAP1 POP JUMP JUMPDEST PUSH2 0x119B DUP3 PUSH2 0x130D JUMP JUMPDEST DUP2 ADD DUP2 DUP2 LT PUSH8 0xFFFFFFFFFFFFFFFF DUP3 GT OR ISZERO PUSH2 0x11BA JUMPI PUSH2 0x11B9 PUSH2 0x12CA JUMP JUMPDEST JUMPDEST DUP1 PUSH1 0x40 MSTORE POP POP POP JUMP JUMPDEST PUSH1 0x0 PUSH2 0x11CE DUP3 PUSH2 0x1188 JUMP JUMPDEST SWAP2 POP PUSH32 0xFFFFFFFFFFFFFFFFFFFFFFFFFFFFFFFFFFFFFFFFFFFFFFFFFFFFFFFFFFFFFFFF DUP3 EQ ISZERO PUSH2 0x1201 JUMPI PUSH2 0x1200 PUSH2 0x123D JUMP JUMPDEST JUMPDEST PUSH1 0x1 DUP3 ADD SWAP1 POP SWAP2 SWAP1 POP JUMP JUMPDEST PUSH1 0x0 PUSH2 0x1217 DUP3 PUSH2 0x1188 JUMP JUMPDEST SWAP2 POP PUSH2 0x1222 DUP4 PUSH2 0x1188 JUMP JUMPDEST SWAP3 POP DUP3 PUSH2 0x1232 JUMPI PUSH2 0x1231 PUSH2 0x126C JUMP JUMPDEST JUMPDEST DUP3 DUP3 MOD SWAP1 POP SWAP3 SWAP2 POP POP JUMP JUMPDEST PUSH32 0x4E487B7100000000000000000000000000000000000000000000000000000000 PUSH1 0x0 MSTORE PUSH1 0x11 PUSH1 0x4 MSTORE PUSH1 0x24 PUSH1 0x0 REVERT JUMPDEST PUSH32 0x4E487B7100000000000000000000000000000000000000000000000000000000 PUSH1 0x0 MSTORE PUSH1 0x12 PUSH1 0x4 MSTORE PUSH1 0x24 PUSH1 0x0 REVERT JUMPDEST PUSH32 0x4E487B7100000000000000000000000000000000000000000000000000000000 PUSH1 0x0 MSTORE PUSH1 0x32 PUSH1 0x4 MSTORE PUSH1 0x24 PUSH1 0x0 REVERT JUMPDEST PUSH32 0x4E487B7100000000000000000000000000000000000000000000000000000000 PUSH1 0x0 MSTORE PUSH1 0x41 PUSH1 0x4 MSTORE PUSH1 0x24 PUSH1 0x0 REVERT JUMPDEST PUSH1 0x0 DUP1 REVERT JUMPDEST PUSH1 0x0 DUP1 REVERT JUMPDEST PUSH1 0x0 DUP1 REVERT JUMPDEST PUSH1 0x0 DUP1 REVERT JUMPDEST PUSH1 0x0 PUSH1 0x1F NOT PUSH1 0x1F DUP4 ADD AND SWAP1 POP SWAP2 SWAP1 POP JUMP JUMPDEST PUSH2 0x1327 DUP2 PUSH2 0x1188 JUMP JUMPDEST DUP2 EQ PUSH2 0x1332 JUMPI PUSH1 0x0 DUP1 REVERT JUMPDEST POP JUMP INVALID LOG2 PUSH5 0x6970667358 0x22 SLT KECCAK256 0xEB CALLDATASIZE SWAP11 0xE8 PUSH27 0x4D9A03EFC6127257CA9D19049957690EE73929786BA37BFC24D895 PUSH5 0x736F6C6343 STOP ADDMOD SMOD STOP CALLER "
				},
				"gasEstimates": {
					"creation": {
						"codeDepositCost": "994200",
						"executionCost": "1034",
						"totalCost": "995234"
					},
					"external": {
						"verifyTx(((uint256,uint256),(uint256[2],uint256[2]),(uint256,uint256)))": "infinite"
					},
					"internal": {
						"verify(uint256[] memory,struct Verifier.Proof memory)": "infinite",
						"verifyingKey()": "infinite"
					}
				},
				"methodIdentifiers": {
					"verifyTx(((uint256,uint256),(uint256[2],uint256[2]),(uint256,uint256)))": "f6af0311"
				}
			},
			"storageLayout": {
				"storage": [],
				"types": null
			},
			"userdoc": {
				"kind": "user",
				"methods": {},
				"version": 1
			}
		}
	}
}